:020000040800F2
:10000000E04F002029030008BD2A0008B91E00089F
:10001000BB2A0008C90F00080165000800000000A5
:100020000000000000000000000000004102000885
:100030008F17000800000000D10200081D0300080F
:10004000430300084303000843030008CD3A0008B7
:100050004303000843030008430300084303000868
:100060004303000843030008430300084303000858
:100070004303000843030008430300084303000848
:100080004303000843030008430300084303000838
:100090004303000843030008430300084303000828
:1000A0004303000843030008430300084303000818
:1000B00043030008255F00084303000843030008CA
:1000C00043030008430300084303000843030008F8
:1000D00043030008B56100089D620008430300085F
:1000E00043030008430300084303000800F002F83C
:1000F00000F065F80AA090E8000C82448344AAF15D
:100100000107DA4501D100F05AF8AFF2090EBAE85A
:100110000F0013F0010F18BFFB1A43F0010318473B
:100120001C8600003C8600000A444FF0000C10F8CA
:10013000013B13F0070408BF10F8014B1D1108BF65
:1001400010F8015B641E05D010F8016B641E01F805
:10015000016BF9D113F0080F1EBF10F8014BAD1C55
:100160000C1B09D16D1E58BF01F801CBFAD505E073
:1001700014F8016B01F8016B6D1EF9D59142D6D3CD
:10018000704700000023002400250026103A28BFF5
:1001900078C1FBD8520728BF30C148BF0B607047F9
:1001A0001FB507F001FC00F075FC040000200021E1
:1001B00007F0E4FB401C60601FBD10B510BD00F0EF
:1001C00036FC1146FFF7ECFF06F0CEFA00F05CFCBF
:1001D00003B4FFF7F2FF03BC00F0A6FC80F309882C
:1001E0007047684680F3098804480078C00714BF48
:1001F0000220032080F3148870470000C4790008AF
:10020000DFF818C0EFF305831B0618BF6047EFF354
:100210001483DB0708BF604700DF7047B16E00083A
:10022000DFF818C0EFF305831B0618BF6047EFF334
:100230001483DB0708BF604700DF7047397100088F
:10024000EFF30980816931F8021C31F47F4128D134
:1002500090E80F10E047EFF3098C1A4B93E8060083
:10026000914219D00CB44FF0010300291FBF81F84F
:1002700021302CE9F00FC1F824C007F0C5F90CBCFF
:100280001A60D2F824C0BCE8F00F92F821308CF349
:1002900009881BB192F82000CCF800006FF0020E24
:1002A000704710B5084A1268914209D8074C54F8B3
:1002B000214090E80F10A047EFF3098C8CE80F0065
:1002C00010BD0000BC010020380B0008380B0008EE
:1002D00007F0A4F8134B93E8060091421BD00CB42E
:1002E0004FF0000381F82130EFF3098C2CE9F00F77
:1002F000C1F824C007F088F90CBC1A60D2F824C0F9
:10030000BCE8F00F8CF3098892F821301BB192F809
:100310002030CCF800306FF0020E704707F02EFA54
:10032000D8E70000BC010020094880470948004781
:10033000FEE7FEE7FEE7FEE7FEE7FEE7FEE7FEE795
:10034000FEE7FEE704480549054A064B70470000F2
:10035000815E0008ED000008E0490020E04F002029
:10036000E04B0020E04B0020004870477C49002013
:100370000FB400B58DB010A9099000910B904FF00B
:10038000FF300A9000200C900648784406900648FA
:1003900078446A4607900F9909A800F0CDF80DB08F
:1003A0005DF814FBCF010000E70100002DE9FF5FBD
:1003B0001446994600273E4650689169DDF838A0FA
:1003C00083469068804601988847054659EA0A00A6
:1003D00005D009E0A1690198761C88470546216A85
:1003E000284688470028F5D1681C03D05FEACB7007
:1003F00005D016E04FF0FF3004B0BDE8F09F206854
:10040000011D216007680CE05FEACB7001D107F89D
:10041000015BA169A8F10100761C8046019888471C
:100420000546B8F1000F1ADD681C18D0B9F1000FAD
:100430000DD0E81705EBD060421120F01F0059F8ED
:1004400022102A1A012090400142DDD107E0BAF1C2
:10045000000FD9D12846216A88470028D4D0E16905
:10046000019888470BF0010050EA0A0000D138706B
:10047000A2686FF001004245BEDDBAF1000F02D064
:10048000B8F1000FB8D13046B6E7032A40F2308009
:1004900010F0030C00F0158011F8013BBCF1020FC5
:1004A000624498BF11F801CB00F8013B38BF11F846
:1004B000013BA2F1040298BF00F801CB38BF00F85D
:1004C000013B11F0030300F06980083AC0F0088096
:1004D00051F8043B083A51F804CBA0E80810F5E7BE
:1004E000121D5CBF51F8043B40F8043BAFF30080A1
:1004F000D20724BF11F8013B11F801CB48BF11F816
:10050000012B24BF00F8013B00F801CB48BF00F8E5
:10051000012B704702F0FF0343EA032242EA024242
:1005200000F070B8704770477047000002681144CF
:1005300013780160184670470B461146054A7A4405
:100540004A61054A7A440A620022C1E9033200F096
:1005500083B80000EBFFFFFFFD000000426842B1DE
:10056000016811F8013B23B1521EC0E90012184680
:1005700070470121C160881E7047416859B1C36846
:10058000026843B98368934205D0521E491CC0E9F2
:100590000021002070474FF0FF30704710B5203A1F
:1005A000C0F00B80B1E81850203AA0E81850B1E82C
:1005B0001850A0E81850BFF4F5AF5FEA027C24BFE2
:1005C000B1E81850A0E8185044BF18C918C0BDE8D9
:1005D00010405FEA827C24BF51F8043B40F8043BA2
:1005E00008BF7047D20728BF31F8023B48BF11F857
:1005F000012B28BF20F8023B48BF00F8012B7047B1
:100600004FF000020429C0F0128010F0030C00F03B
:10061000E981CCF1040CBCF1020F18BF00F8012BEA
:10062000A8BF20F8022BA1EB0C0100F0DBB95FEAB8
:10063000C17C24BF00F8012B00F8012B48BF00F853
:10064000012B704710B5044600F016FA0068005DF3
:1006500000F0010010BD00002DE9F34F0C46002012
:100660008FB082460120834600260D9001F10C00D8
:100670000B9062690B980121904705002DD0252D24
:100680002CD0216A8847C0B162690B98012190473C
:10069000216A88470028F7D16269411E0B9890476C
:1006A00000E0761CA1690F988847216A88470028D6
:1006B000F7D1E1690F988847DBE7A1690F98884770
:1006C000A842074601D1761CD3E7E1690F98884715
:1006D0007F1C02D1BAF1000F72D04AE162690B9817
:1006E00000273D46394690472A2804D162690B9875
:1006F000012190470125DFF8E48262690B9801210E
:100700009047A0F130010A290DD2BBF1000F0AD0A9
:100710004745E2DC07EB870100EB4107303FDCD4C3
:1007200045F01005E9E7E90601D46FF000476C28B1
:100730000AD04C2814D0682815D06A280DD0742807
:100740001CD07A281AD01DE062690B9801219047CD
:100750006C2802D045F0040514E045F002050DE0D8
:1007600045F020050AE062690B980121904768284E
:1007700002D045F0080505E045F4006562690B9874
:1007800001219047C4E90157652842D019DC582857
:100790007ED00CDC45283CD004DC252826D041281E
:1007A00031D136E0462834D047282CD131E05B28BF
:1007B0007BD061282DD0632877D0642823D15EE0D8
:1007C00022E06F284CD008DC662822D0672820D091
:1007D000692826D06E2816D12CE0702849D07328BD
:1007E0006CD075284BD078280DD151E0A1690F98B5
:1007F0008847252805463FF466AFE1690F9888478A
:100800006D1C3FF467AFB4E04FF0FF3011B0BDE8AE
:10081000F08F0F9923466A466FF00100AFF3008016
:10082000C8E045F0400023464FF000026060A80792
:1008300035D43DE0206800F10401216000682905FD
:1008400001D5067015E7290701D5068011E7A9072C
:1008500004D54FEAE671C0E900610AE7066008E7DF
:1008600045F0400023464FF008026060A80716D408
:100870001EE040F60E0125EA0100606016E045F03A
:10088000400023464FF00A026060A80707D40FE03B
:1008900045F040006060A80708D5234610220F9954
:1008A0006FF00100AFF3008084E007E010222346E0
:1008B0000F996FF00100AFF300807BE00021632807
:1008C00089460F4688460B460C9102D05B2806D01D
:1008D00030E0E80601D4C4F808B001272AE06269D4
:1008E0000B98012190475E2805D16269012081465D
:1008F00001460B989047216981B3E168891E0C91EC
:1009000068B3216961B308F10100804662690B9800
:10091000012190475D28F3D1B9F1000F09D00020E3
:1009200003A951F82020D24341F82020401C082878
:10093000F7DB03AB2069002860684FEA40702AD0DB
:100940002246CDF80080CDE901970C9B0F99002835
:100950006FF001002CDAAFF300802BE001E008E03B
:1009600009E0002303AA42F82130491C0829FADBD8
:10097000C6E750464AE7C11700EBD16303A95A11F5
:1009800023F01F0301EB8201C31A0A680BFA03F07C
:1009900002430A60BAE7009722460F9900286FF0D9
:1009A000010002DAAFF3008004E0FFF7FFFC01E092
:1009B000AFF30080002808DA4FF0FF31401C01D16E
:1009C0000D9800B95146084620E7E90702D10AF11F
:1009D00001018A46064400200D904AE6CCCCCC0C9E
:1009E0004FF0000200B5134694469646203922BFC8
:1009F000A0E80C50A0E80C50B1F12001BFF4F7AF13
:100A0000090728BFA0E80C5048BF0CC05DF804EBF4
:100A1000890028BF40F8042B08BF704748BF20F862
:100A2000022B11F0804F18BF00F8012B704775465C
:100A3000FFF79AFCAE4605006946534620F00700D2
:100A4000854618B020B5FFF77DFCBDE820404FF08B
:100A500000064FF000074FF000084FF0000B21F0A8
:100A60000701AC46ACE8C009ACE8C009ACE8C00975
:100A7000ACE8C0098D46704710B500F00BF8001DBA
:100A800010BD00BFF96E00000446AFF300802046A1
:100A9000FFF79EFB10B5FFF767FC203010BD10B5C7
:100AA00005F078FD001D10BD4FF0013C50F8042BFF
:100AB00051F8043B9A4221D1A2EB0C03934313EA71
:100AC000CC1317D150F8042B51F8043B9A4215D19E
:100AD000A2EB0C03934313EACC130BD150F8042B75
:100AE00051F8043B9A4209D1A2EB0C03934313EA59
:100AF000CC13DBD04FF00000704700BFD01A01BA12
:100B0000B1FA81F101F0180122FA01F0CB40C1F1F4
:100B10002001DBB2C0B2C01A2CFA01F3D11A914302
:100B200011EAC311E6D1704701491820ABBEFEE7B8
:100B300026000200704700000000000000298168C4
:100B400002D041F0010101E021F001018160704714
:100B50000029816802D041F4807101E021F48071A4
:100B60008160704708B57320ADF8000000208DF853
:100B700003006946014801F0F9F808BD000801408A
:100B8000014600208968490700D5012070470146C9
:100B900000208968090700D50120704710B5426818
:100BA0000E4B0C791A400B6842EA0422134343604F
:100BB00082680B4B1A40D1E9024323434C7942EA45
:100BC000440213438360C26A097C22F47002491E06
:100BD000C9B242EA0151C16210BD0000FFFEF0FF40
:100BE000FDF7F1FF70B5072609290AD9C568A1F1FB
:100BF0000A0404EB4404A640B543A3401D43C5606A
:100C000007E0056901EB4104A640B543A3401D433D
:100C100005611F23072A09D2446B521E02EB820290
:100C200093409C4391400C43446370BD0D2A09D20C
:100C3000046BD21F02EB820293409C4391400C4311
:100C4000046370BDC46A0D3A02EB820293409C4378
:100C500091400C43C46270BD816841F0080181601D
:100C600070470029816802D041F4A00101E021F41D
:100C7000A00181607047816841F004018160704784
:100C800010B54FF48064204601F010F8002803D01E
:100C9000204601F005F8012010BD00001B4C4FF666
:100CA000FF750120DFF868C0A16A00DF0122294634
:100CB0001046DFF860C000DF00231A460A211648FC
:100CC000DFF858C000DF002307461A460B211448FE
:100CD000DFF848C000DF06460220DFF834C0A16A12
:100CE00000DF012229460220DFF828C000DF31465C
:100CF0000120DFF830C000DF39460120DFF824C0D2
:100D000000DF3220DFF820C000DFCAE7200000202B
:100D10001D700008F5700008592A0008F9770008CE
:100D2000390F000891700008157000080EB50FA06B
:100D3000D0E9001280680091CDE901200E4A002020
:100D400069460B5C1354401CC0B20928F9D30B4907
:100D50000920012208700A4900200870094908701A
:100D600040F22771084805F034FB0EBDA20700FFD2
:100D70000105000000000000E44100203E010020C9
:100D80003F0100201C00002000380140F0B589B070
:100D9000114F00246D460020C4EBC401CB1904F0B0
:100DA00001011A5C00EB0116401CC0B2AA550728CD
:100DB000F7D3E0070AD060084001C030202269461E
:100DC00000F03AFF0520DFF814C000DF641CE4B235
:100DD000142CE0D309B0F0BDAC0000201570000861
:100DE00070B58AB0114E00246D46E0070AD1600844
:100DF0004001C0302022694600F0C8FE0520DFF81F
:100E000030C000DFC4EBC401002004F00103314412
:100E100000EB0312AA5C0A54401CC0B20728F7D3A7
:100E2000641CE4B2142CE0D30AB070BDAC00002006
:100E3000157000081E4EDFF87C904FF48048348A0D
:100E4000356A308A844202D1306A85422AD04146CE
:100E5000484600F0E2FF0024254640F27A37708AC7
:100E6000318A884203D9BC4208D20A3402E00A2CF3
:100E700004D90A3CA4B2204600F058F90A20DFF851
:100E800038C000DF6D1CEDB2962D05D8308A718A0E
:100E9000401A801C0428E2D8348A41464846356A04
:100EA00000F0B9FF0520DFF810C000DFC9E700003F
:100EB00020000020000C0140157000081B4D1C4E46
:100EC000287808B1042412E02021304600F09CFF6D
:100ED00008B103240BE0FFF7D3FE012804D001F092
:100EE000DFFD012802D002E0022400E00124A74235
:100EF00010D0012C06D0022C07D0032C0FD0042CCC
:100F000007D10FE00021022001E00021042001F0C0
:100F100065FF27460520DFF81CC000DFD0E7002171
:100F20000120F4E700210320F1E70000690100201F
:100F3000000C014015700008144C0421204600F0FC
:100F40006AFF0A20DFF848C000DF0421204600F0D5
:100F500064FF0A20DFF838C000DF0421204600F0DB
:100F60005AFF0A20DFF828C000DF0421204600F0E5
:100F700054FF01223C211046DFF818C000DF022890
:100F8000DBD10020DFF810C000DFD6E700140140FD
:100F900015700008F57000088978000810B5012068
:100FA00002F0C0F8BDE81040002002F0BBB800001D
:100FB0000149085A70470000006C0040014A115076
:100FC00070470000006C0040FEE700002DE9F84F7C
:100FD0000121042002F08EF80121480402F072F889
:100FE0000820ADF8000003268DF8026004258DF876
:100FF00003506946314800F0B9FEADF8005018279B
:101000008DF8037069462D4800F0B0FE2C484FF46F
:1010100016580024C0F800808480C4800481848134
:101020004FF00C09DFF89CA0A0F80A90014650464A
:1010300005F0E8F940F2255B01225946504605F0DB
:10104000C8F9012240F22771504605F0C2F901218A
:10105000504605F095F90121880302F04BF828026B
:10106000ADF800008DF802608DF803506946134812
:1010700000F07CFEE801ADF800008DF803706946D1
:101080000E4800F073FE0E4810380146C0F800808C
:101090008480C480048184810B4CA0F80A9020468F
:1010A00005F0B0F901225946204605F092F90121D8
:1010B000204605F065F9BDE8F88F00000008014002
:1010C000D43F0020004400400038014010B500F03B
:1010D000A7FE0349C871BDE8104004F0C7BB00007B
:1010E0002000002010B500F0BFFE03494882BDE893
:1010F000104004F0DBBB00002000002010B500F021
:10110000C7FE03498882BDE81040C0B204F0BCBCF1
:101110002000002010B500F091FE03490872BDE8E0
:10112000104004F005BD00002000002070B51F4EE7
:1011300004460821304600F06EFE4FEA84504FEA24
:101140001045002428044FF00201304602D500F07B
:1011500064FE01E000F05FFE0421304600F05DFE19
:1011600000F040F86804050C0421304600F053FEFE
:1011700000F038F8641CE4B20A2CE3D30024042104
:10118000304600F04AFE00F02DF80421304600F011
:1011900042FE00F027F8641CE4B2022CEFD3304684
:1011A000BDE87040082100F038BE0000001001408A
:1011B00038B50121102001F09DFF0E20ADF8000090
:1011C00003208DF802001020054C8DF803006946BD
:1011D000204600F0CBFD0421204600F01CFE38BD67
:1011E000001001400A20401EFDD27047002901680E
:1011F00002D041F0010102E04FF6FE7211400160A1
:101200007047000001684FF6FE7211400160002136
:10121000016041608160C1603349334A08399042BE
:1012200003D1486840F00F0006E02F4A1432904284
:1012300004D1486840F0F000486070472A4A2832DC
:10124000904203D1486840F47060F5E7264A3C328A
:10125000904203D1486840F47040EDE7224A503292
:10126000904203D1486840F47020E5E71E4A64329A
:10127000904203D1486840F47000DDE71A4A7832A2
:10128000904203D1486840F07060D5E7174A904219
:1012900004D1D1F8040440F00F0007E0134A1432DF
:1012A000904206D1D1F8040440F0F000C1F80404E3
:1012B00070470E4A2832904204D1D1F8040440F419
:1012C0007060F3E7094A3C32904204D1D1F804043B
:1012D00040F47040EAE7054A50329042E8D1D1F834
:1012E000040440F47020E1E70800024008040240D2
:1012F00030B5036847F6F07293430C6A8A6822435C
:10130000D1E904452C4322438C692243CC69224312
:101310004C6A22438C6A22431A430260CA684260C4
:101320000A6882604968C16030BD00002DE9FC4157
:10133000002501240095019500F098FAFCA20021F7
:10134000142001F09BFAFFA20221002001F096FA7E
:10135000FEA20421002001F091FA01F0F9F80A261A
:1013600041F2883857E0012C55D09DF80000022149
:10137000B0FBF6F03030C2B2202001F0E3F99DF866
:101380000000B0FBF6F106FB1102303202212820EA
:1013900001F0D8F92D220221302001F0D3F99DF877
:1013A0000100022CB0FBF6F000F13000C2B24FF0A9
:1013B00002014FF0380044D001F0C4F99DF801005B
:1013C000B0FBF6F106FB110230320221402001F0A1
:1013D000B9F92D220221482001F0B4F99DF802004C
:1013E000032CB0FBF6F000F13000C2B24FF0020166
:1013F0004FF0500033D001F0A5F99DF80200B0FB8A
:10140000F6F106FB110230320221582001F09AF960
:10141000042C44D030E09DF800000221B0FBF6F02F
:101420003030C2B2202001F0B9F99DF80000B0FBC5
:10143000F6F106FB110230320221282001F0AEF94C
:10144000A8E701F0ABF99DF80100B0FBF6F106FB4F
:10145000110230320221402001F0A0F9B9E701F079
:101460009DF99DF80200B0FBF6F106FB1102303247
:101470000221582001F092F9B5FBF6F707F1300090
:10148000C2B20421382001F05DF906FB1752303258
:101490000421402001F056F9052C79D00FE0B5FB6E
:1014A000F6F707F13000C2B20421382001F076F9D6
:1014B00006FB175230320421402001F06FF99DF8ED
:1014C00004000421B0FBF6F03030C2B2782001F005
:1014D00039F99DF80400B0FBF6F106FB1102303239
:1014E0000421802001F02EF92D220421882001F012
:1014F00029F99DF80500062CB0FBF6F000F130004C
:10150000C2B24FF004014FF0900057D001F01AF929
:101510009DF80500B0FBF6F106FB11023032042104
:10152000982001F00FF92D220421A02001F00AF9E2
:101530009DF80600072CB0FBF6F000F13000C2B2B7
:101540004FF004014FF0A80046D001F0FBF89DF8E1
:101550000600B0FBF6F106FB110230320421B02088
:1015600001F0F0F801F00EF8012843D000F024FF5C
:10157000012868D000F058FF012870D000F0B0FFBB
:1015800001286DD000F095FF01286AD0C8E0FFE780
:101590009DF804000421B0FBF6F03030C2B2782090
:1015A00001F0FCF89DF80400B0FBF6F106FB110217
:1015B00030320421802001F0F1F895E701F0EEF8D7
:1015C0009DF80500B0FBF6F106FB11023032042154
:1015D000982001F0E3F8A6E701F0E0F89DF8060096
:1015E000B0FBF6F106FB110230320421B02001F00D
:1015F000D5F8B7E7042000F053FB082CBFF4B3AED6
:10160000DFE804F00405090D1115191DABE69DF87E
:101610000000401C29E09DF80100401C2BE09DF8D3
:101620000200401C2DE03F2DF0D26D1C2FE09DF8F4
:101630000400401C30E09DF80500401C32E09DF89D
:101640000600401C34E0012000F02AFB082CDDD20B
:10165000DFE804F004080E141A1F252B83E62AE0A5
:1016600033E03BE09DF80000401E8DF800007AE674
:101670009DF80100401E8DF8010074E69DF80200FF
:10168000401E8DF802006EE6002DBFD06D1EEDB23B
:1016900069E69DF80400401E8DF8040063E69DF89D
:1016A0000500401E8DF805005DE69DF80600401E11
:1016B0008DF8060057E64FF4805000F0F1FA641EF2
:1016C00014F0FF04A2D107244DE6202000F0E8FA30
:1016D000641CE4B2072C99D9012444E6022000F0EE
:1016E000DFFA042C48D01BD91CA24FF006014FF0A2
:1016F000000001F0C3F801A9684601F013FE474657
:10170000404600F045F817A20621002001F0B6F887
:10171000384600F03DF815A20621002001F0AEF891
:1017200000F0BCFE01287FF464AF102020E0000030
:101730002D2D3C4465627567204D6F64653E2D2DEF
:10174000000000004944313A00000000566F6C75FB
:101750006D653A202020204944323A0053656E647A
:101760002E2E2E004F4B2020202020002020000075
:1017700000F096FABDE8FC81AFF2200206210020BD
:1017800001F07CF82946684601F000FEB7E7704793
:101790004FF47A7202E01146491EFDD1401EFAD282
:1017A000704700002DE9F0478246A2F120000F4665
:1017B0005B2800D37B22203AD0B2114900EB4000D5
:1017C00001EB4000002580460AEB050018F8056093
:1017D00000248146F00707EB040101D0012200E05C
:1017E0000022484600F034F9641C7608E4B2082C64
:1017F000F0D36D1CEDB2062DE6D3BDE8F0870000F6
:10180000248000082DE9F0478246A2F120000F460F
:101810005B2800D37B22203AD0B2134900EB400072
:1018200001EB4000002580460AEB050018F8056032
:1018300000248146F00707EB040101D0012200E0FB
:101840000022484600F004F9641C7608E4B2072C34
:10185000F0D30122F91D484600F0FAF86D1CEDB2F4
:10186000062DE1D3BDE8F0872480000810B500F014
:1018700005F8BDE8104000F03DB9000010B50021AA
:10188000084C0A4601EB4103002004EB83131A5471
:10189000401CC0B2C028FAD3491CC9B20829F1D3F0
:1018A00010BD0000644200202DE9F04106460C46C0
:1018B00017461D46DDF8188007E043463A462146A4
:1018C000304600F02FF9641CA4B2AC42F5D3BDE859
:1018D000F0810000CA08074B02EB420203EB8212C0
:1018E000105C01F0070201219140084000D0012066
:1018F00070470000644200202DE9FE4F14468946DF
:1019000080460025A3EB09011A46A4EB080000B2AB
:101910006B1E2E4609B2002803DD4FF00102009233
:1019200009E007D10C9B03B049464046BDE8F04FA3
:1019300000F00EB90093002903DD4FF0010201927F
:101940000AE008D10C9B03B0224649464046BDE858
:10195000F04F00F0E7B80193002800DA404200B2EF
:101960008346002900DA494208B282465946D345E7
:1019700001DD0C4600E00446494640460C9A00F062
:1019800067F80027601C02901FE0494640460C9A09
:1019900000F05EF805EB0B0005B206EB0A0006B29C
:1019A000A54206DD281B009905B208EB010080B2B4
:1019B0008046A64206DD301B019906B209EB010004
:1019C00080B281467F1C02983FB28742DDDDBDE8D0
:1019D000FE8F2DE9F041174688461E46B84219D8B9
:1019E000B04517D8054613E044460DE02146284689
:1019F000FFF770FF08B1002200E0012221462846CF
:101A000000F026F8641CE4B2B442EFD96D1CEDB2CC
:101A1000BD42E9D9BDE8F08130B40B490B4C00223E
:101A200002EB4203002004EB831311F8015B1D5409
:101A3000401CC0B2C028F8D3521CD2B2042AEFD343
:101A400030BC00F057B800004C820008644200200F
:101A500030B4C02819D2402917D2CC080C4D04EB61
:101A6000440305EB831301F0070501210344A9405A
:101A7000002A1A7801D00A4300E08A431A70E1B2C2
:101A800030BCD2B2C0B200F04BBF30BC70470000D7
:101A9000644200202DE9F0411C46DDF8188006461E
:101AA0000F461546434600F03DF843462A46214678
:101AB000304600F037F8434622463946304600F0BB
:101AC00047F84346224639462846BDE8F04100F033
:101AD0003FB870B505460E46144606E0641C314614
:101AE0002846FFF75FFEAD1DEDB22278002AF5D142
:101AF00070BD000070B50A4E0025002404EB4400C0
:101B000006EB80102146425D284600F009FF641C68
:101B1000E4B2082CF2D36D1CEDB2C02DEDD370BD34
:101B2000644200202DE9F041154604460F461E464A
:101B3000A84209D92546144606E0324639462046D1
:101B4000FFF786FF641CA4B2AC42F6D9BDE8F08171
:101B50002DE9F041154607461E460C46A94209D913
:101B60000D46144606E0324621463846FFF770FF20
:101B7000641CA4B2AC42F6D9BDE8F0810248012150
:101B80000170417081707047700100202DE9F041B3
:101B90000E461546040AC7B200F004FBA02000F070
:101BA000B7FB00F0EBF9DFF8888088F80000C0BBD5
:101BB000204600F0ADFB00F0E1F9444688F8000053
:101BC00078BB384600F0A4FB00F0D8F9207040BB89
:101BD00000F0E8FAA12000F09BFB00F0CFF92070A4
:101BE000F8B90024134F6D1E14E000F035FA30559B
:101BF0008021384600F00FF94021384600F00DF9F9
:101C000004F087FC4021384600F005F904F081FC1F
:101C1000641CA4B2AC42E8DB00F01EFA305500F0C0
:101C20006BFA00F00BFB98F80000BDE8F0810000B3
:101C300062010020000C01402DE9F041040AC0B20D
:101C40000E461746804600F0ADFAA02000F060FB7B
:101C500000F094F9114D2870D0B9204600F058FBDF
:101C600000F08CF9287098B9404600F051FB00F064
:101C700085F9287060B9002408E0305D00F048FB69
:101C800000F07CF9287018B9641CA4B2BC42F4D3EB
:101C900000F0D4FA2878BDE8F0810000620100204D
:101CA000014908607047000014040140034A0146DE
:101CB000002012680A4200D001207047140401403D
:101CC00030B51F4A8179036899B311460C6824EA3C
:101CD00003040C604B68046823EA04034B60047936
:101CE00004EB02031C68056844EA05041C608B6869
:101CF000046823EA04038B60CB68046823EA0403C6
:101D0000CB604379A1F58061102B05D099180A6842
:101D1000006802430A6030BD01F581610A6803680A
:101D200042EA03020A604A68006842EA00024A6026
:101D300030BDFFE700791044016899430160F7E77F
:101D40000004014010B58A0721F003040649120F70
:101D500021440F238C6893409C438C608B68904097
:101D600003438B6010BD000000000140F0B5CC784B
:101D7000002204F00F03E40601D58C7823430C887D
:101D80004FF00F0C14F0FF0F4FF0010E1AD0056842
:101D90000E880EFA02F42640A6420FD196000CFAE5
:101DA00006F7BD4303FA06F63543CE78282E02D057
:101DB000482E02D002E0446100E00461521C082A6F
:101DC000E6D305600A88FF2A1DD94568002202F182
:101DD00008060EFA06F40E882640A6420FD1960099
:101DE0000CFA06F725EA070703FA06F5CE783D4315
:101DF000282E00D14461CE78482E00D10461521CB7
:101E0000082AE4D34560F0BD0246002092680A42E9
:101E100000D00120704741617047016170470000A8
:101E20000448008940F2253148430349B0FBF1F0F2
:101E3000C0B2704710490020E09304000948808830
:101E400040F2253148434FF47A71B0FBF1F0A0F530
:101E5000FA700A21B0FBF1F0C0B2642800D363200D
:101E600070470000104900200848008840F22531E2
:101E700048434FF47A71B0FBF1F02822B0FBF2F244
:101E80004243B2FBF1F080B27047000010490020DD
:101E90000848408840F2253148434FF47A71B0FB3E
:101EA000F1F02822B0FBF2F24243B2FBF1F080B233
:101EB0007047000010490020FEE70000F8B501243B
:101EC0006602ADF800604820134D8DF803006946A6
:101ED0002846FFF74BFF270239462846FFF79DFFAC
:101EE00004F00FFB31462846FFF78EFF00B90024AF
:101EF00039462846FFF78FFF04F003FBADF800607A
:101F000010208DF8030003208DF802006946284652
:101F1000FFF72CFF2046F8BD000C0140F8B5012466
:101F2000E602ADF800604820134D8DF803006946C5
:101F30002846FFF71BFFA70239462846FFF76DFF2B
:101F400004F0E3FA31462846FFF75EFF00B90024AB
:101F500039462846FFF75FFF04F0D7FAADF8006076
:101F600010208DF8030003208DF8020069462846F2
:101F7000FFF7FCFE2046F8BD000C0140F8B58026B6
:101F8000ADF800604820144D8DF803000124694627
:101F90002846FFF7EBFE40212846FFF73EFF04F0FE
:101FA000B8FA80212846FFF72FFF00B9002440210E
:101FB0002846FFF730FF04F0ACFAADF800601020BF
:101FC0008DF8030003208DF8020069462846FFF7CC
:101FD000CDFE2046F8BD0000000C01402DE9F8437D
:101FE0004FF40066ADF8006048201A4F8DF80300EA
:101FF000002469463846FFF7B9FEB04600253E4644
:102000003F156006040E39463046FFF706FF04F020
:102010007CFA41463046FFF7F7FE012801D144F033
:10202000010439463046FFF7F6FE04F06EFA6D1CE7
:10203000EDB2082DE5D3ADF8008010208DF8030037
:1020400003208DF8020069463046FFF78FFE2046D8
:10205000BDE8F883000C0140F8B58027ADF80070AA
:102060004820184E8DF80300002469463046FFF7DB
:102070007DFE00256006040E40213046FFF7CDFEB0
:1020800004F047FA80213046FFF7BEFE012801D157
:1020900044F0010440213046FFF7BDFE04F039FA58
:1020A0006D1CEDB2082DE5D3ADF8007010208DF851
:1020B000030003208DF8020069463046FFF756FE04
:1020C0002046F8BD000C014070B50A4C4FF4006189
:1020D0002046FFF7A2FE251529462046FFF79DFE64
:1020E00004F013FA29462046FFF795FEBDE870403C
:1020F00004F00BBA000C014010B5094C80212046B9
:10210000FFF78BFE40212046FFF787FE04F001FA1F
:1021100040212046FFF77FFEBDE8104004F0F9B9EA
:10212000000C014070B50E4D4FF400742146284656
:10213000FFF773FE661031462846FFF76EFE04F087
:10214000E0F921462846FFF766FE04F0DAF9314649
:102150002846FFF760FEBDE8704004F0D2B90000E9
:10216000000C014070B50E4D4FF400642146284626
:10217000FFF753FE661031462846FFF74EFE04F087
:10218000C4F921462846FFF746FE04F0BEF9314661
:102190002846FFF740FEBDE8704004F0B6B90000E5
:1021A000000C014010B50C4C80212046FFF735FE95
:1021B00040212046FFF731FE04F0ABF98021204694
:1021C000FFF729FE04F0A5F940212046FFF723FE82
:1021D000BDE8104004F09DB9000C014070B50A4DF7
:1021E0004FF4007421462846FFF715FE611028467B
:1021F000FFF713FE04F085F921462846FFF70DFE90
:10220000BDE8704004F07DB9000C014070B50A4D86
:102210004FF4006421462846FFF7FDFD6110284673
:10222000FFF7FBFD04F071F921462846FFF7F5FDA5
:10223000BDE8704004F069B9000C014010B5094CCC
:1022400080212046FFF7E7FD40212046FFF7E5FD0E
:1022500004F05FF980212046FFF7DFFDBDE8104064
:1022600004F057B9000C01402DE9F0410824124F49
:1022700005464FF40078660128064146384602D5E7
:10228000FFF7CBFD01E0FFF7C6FD04F03AF9314658
:102290003846FFF7C2FD04F034F96806050E3146F2
:1022A0003846FFF7B8FD04F02CF9641E14F0FF0463
:1022B000E2D1BDE8F0810000000C01402DE9F041C1
:1022C0000824124F05464FF40068E60128064146EF
:1022D000384602D5FFF7A1FD01E0FFF79CFD04F0B1
:1022E00014F931463846FFF798FD04F00EF96806F8
:1022F000050E31463846FFF78EFD04F006F9641EE0
:1023000014F0FF04E2D1BDE8F0810000000C0140B0
:1023100070B5114E0546082428064FF0800130465E
:1023200002D5FFF77AFD01E0FFF775FD04F0F1F843
:1023300040213046FFF771FD04F0EBF86806050E0A
:1023400040213046FFF767FD04F0E3F8641E14F007
:10235000FF04E1D170BD0000000C014000230E4AD3
:102360000E490F48DFF83CC000DF0F4C00231A462F
:10237000606201210D48DFF82CC000DF0023A0625D
:102380001A4601210A48DFF81CC000DF6063002004
:10239000DFF820C000DF0000983C0020012003008F
:1023A000E1670008F9770008200000209D0C000874
:1023B000A12B00088978000810B50120FFF776FCF2
:1023C000054CA178084305D00120FFF769FC0020E7
:1023D000A070012010BD00004A01002010B5104C73
:1023E000E078012808D101210E48FFF70DFD0021FA
:1023F00018B1A181E181E17010BDA089502801D2FE
:10240000401CA08180B25028F6D1E089401C80B2E7
:10241000E0811428F0D1E1810120A07010BD0000FE
:102420004A010020000C014070B54FF48055284649
:10243000FFF73CFC054C6179084305D02846FFF7BF
:102440002FFC00206071012070BD00004A010020B7
:1024500010B5104C2079012808D101030E48FFF770
:10246000D3FC002118B121826182217110BD208A24
:10247000502801D2401C208280B25028F6D1608AB8
:10248000401C80B260821428F0D16182012060710A
:1024900010BD00004A010020000C014010B51020C2
:1024A000FFF704FC002803D01020FFF7F9FB012000
:1024B00010BD10B50220FFF7F9FB002803D0022061
:1024C000FFF7EEFB012010BD10B58020FFF7EEFBFB
:1024D000002803D08020FFF7E3FB012010BD00009F
:1024E00010B52020FFF7E2FB054CA179084305D089
:1024F0002020FFF7D5FB0020A071012010BD0000B7
:102500004A01002010B5104CE079012808D12021A3
:102510000E48FFF779FC002118B1A182E182E17138
:1025200010BDA08A502801D2401CA08280B2502841
:10253000F6D1E08A401C80B2E0821428F0D1E1821A
:102540000120A07110BD00004A01002000100140D0
:1025500010B50420FFF7A4FB0120FFF7A1FB4FF407
:102560008050FFF79DFB2020FFF79AFB0220FFF72A
:1025700097FB1020FFF794FBBDE810408020FFF789
:102580008FBB000010B50420FFF790FB054C61786D
:10259000084305D00420FFF783FB00206070012072
:1025A00010BD00004A01002010B5104C2078012811
:1025B00008D104210E48FFF727FC002118B1218122
:1025C0006181217010BD2089502801D2401C2081DA
:1025D00080B25028F6D16089401C80B260811428F6
:1025E000F0D161810120607010BD00004A0100201F
:1025F000000C0140FEB501213D2000F07BFD48208C
:102600008DF8030041F227003D4DADF8000069460A
:102610002846FFF7ABFB41F630403A4EADF80000DC
:1026200069463046FFF7A2FB8020ADF800006946FE
:102630003548FFF79BFB07210020FFF783FB0021B4
:102640000120FFF77FFB01210846FFF77BFB0221FA
:102650000120FFF777FB0C210120FFF773FB04211A
:102660000220FFF76FFB05210220FFF76BFB0A2119
:102670000220FFF767FB0B210220FFF763FB00201E
:102680008DF808000C208DF8090001208DF80A0053
:1026900041F6B740019001A8FFF712FB4FF4C04488
:1026A000ADF8004010228DF8032003208DF80200C1
:1026B00069462846FFF75AFB21462846FFF7ABFB41
:1026C00042F20100ADF8000069463046FFF74EFBCC
:1026D00069143046FFF79FFB01213046FFF79DFB51
:1026E0000420ADF800001420084C8DF80300694662
:1026F0002046FFF73BFB04212046FFF78EFBFEBD83
:10270000000C01400010014000080140001401408D
:102710004FF480510148FFF77EBB000000080140E4
:1027200070B50025002400222946204600F0F8F864
:10273000641CE4B2C02CF6D36D1CEDB2082DF1D3AD
:1027400070BD00002DE9F041074606461248884654
:1027500000EB0214A4F50074002514F8012B414687
:10276000304600F0DDF8761C6D1CEDB2F6B2082D97
:10277000F3D308F10100C6B2002514F8012B31464D
:10278000384600F0CDF87F1C6D1CEDB2FFB2082D6D
:10279000F3D3BDE8F0810000347A00082DE9F04160
:1027A000074606461448884600EB0214A4F5007458
:1027B000002514F8010B4146C043C2B2304600F078
:1027C000AFF8761C6D1CEDB2F6B2082DF1D308F10E
:1027D0000100C6B2002514F8010B3146C043C2B255
:1027E000384600F09DF87F1C6D1CEDB2FFB2082D3D
:1027F000F1D3BDE8F0810000347A000810B54FF441
:1028000000710C48FFF709FB0B4C4FF48071204618
:10281000FFF703FBE1142046FFF7FFFA3E2003F029
:102820007DFE3E2003F08EFEBDE810403E2003F00A
:102830009DBE0000001001400008014010B54FF49B
:1028400000710C48FFF7E9FA0B4C4FF480712046F9
:10285000FFF7E3FAE1142046FFF7DFFA3F2003F029
:102860005DFE3F2003F06EFEBDE810403F2003F008
:102870007DBE0000001001400008014070B5054613
:102880000E46144606E0641C31462846FFF75AFF00
:102890000835EDB22278002AF5D170BD38B5012196
:1028A0001C2000F027FC4FF47070ADF800001020E1
:1028B0008DF8030003248DF8024069461548FFF7A0
:1028C00055FA4FF41060144DADF8000069462846E3
:1028D000FFF74CFA4FF40041ADF8001069460F487D
:1028E000FFF744FAA814ADF8000014208DF8030097
:1028F0008DF8024069462846FFF738FAFFF77EFF59
:10290000FFF70EFFFFF79AFFBDE83840002000F008
:1029100061B800000010014000080140000C0140B7
:102920002DE9F04706460D46924607294AD8264C1F
:10293000264FB0094FF400714FF480784FF40069CE
:102940002CD0012832D002283CD13846FFF765FA56
:1029500041462046FFF761FA49462046FFF75BFAF9
:1029600006F03F00403000F05BF8B835E8B200F008
:1029700057F854464FF400411548FFF74EFA4021EE
:102980003846FFF74AFA204601F088FD40213846D4
:10299000FFF741FABDE8F04703F0E2BE3846FFF723
:1029A0003AFA41462046FFF738FA06E03846FFF784
:1029B00034FA41462046FFF72EFA49462046FFF7F3
:1029C0002CFACDE7BDE8F087000801400010014077
:1029D000000C014070B5044640281BD24FF4007132
:1029E0000D48FFF71AFA0D4D4FF480712846FFF796
:1029F00014FAE9142846FFF710FAC034E0B204468E
:102A000003F08CFD204603F09DFD2046BDE870409C
:102A100003F0ACBD70BD0000001001400008014093
:102A200070B505464FF400410948FFF7F4F9094C29
:102A300040212046FFF7F1F9284601F02FFD402103
:102A40002046FFF7E8F9BDE8704003F089BE0000BA
:102A5000000C0140001001400D4D4FF48044214610
:102A60002846FFF7DAF90A20DFF828C000DF214600
:102A70002846FFF7D0F901220A211046DFF818C0D6
:102A800000DF0228EBD10020DFF810C000DFE6E70E
:102A9000000C014015700008F570000889780008E6
:102AA00010B54FF400642046FFF700F9002803D06A
:102AB0002046FFF7F5F8012010BDFEE77047F8B596
:102AC0004FF4E06000F062F826208DF8000004204A
:102AD0008DF8020001248DF80340684600F027F8C5
:102AE00025208DF8000000258DF802508DF801405A
:102AF0008DF80340684600F01AF803208DF80000B6
:102B00008DF8015002268DF802608DF8034068466A
:102B100000F00DF81D208DF800008DF801508DF8A3
:102B200002608DF80340684600F001F8F8BD70B50A
:102B30000F24C27801784FF0E0230126E2B1D3F8E8
:102B40000C2D194402F4E062C2F5E062120AC2F1EF
:102B50000405D4404278AA408578254015432A01CF
:102B600081F80024007800F01F018E40400903EB3B
:102B70008000C0F8006170BD01F01F008640480968
:102B800003EB8000C0F8806170BD0000024908437B
:102B900002490860704700000000FA050CED00E0F3
:102BA0000EB50020274F284D01904FF6FF760824E0
:102BB0000290B87A0028FCD031462448DFF890C053
:102BC00000DFFEF797FF28784FF00803009410B15C
:102BD000204A012101E0204A0B21B52002F0DAFE53
:102BE0001A48DFF878C000DF3220DFF874C000DF59
:102BF00031461648DFF858C000DFFEF77BFF287823
:102C00004FF0080301AA009440B10121B52002F061
:102C1000C1FE0823104A0B21009407E00B21B520C8
:102C200002F0B8FE08230B4A01210094B52002F0FF
:102C3000B1FE0648DFF824C000DF3220DFF820C0F4
:102C400000DFB6E72000002069010020B83F002027
:102C5000B5730008C4860008BC8600080973000824
:102C600015700008F0B589B0104F00246D460020A3
:102C700007EBC40304F001011A5C00EB0116401CD1
:102C8000C0B2AA550828F7D3E00709D06008400170
:102C900020226946FEF7D0FF0520DFF814C000DFD0
:102CA000641CE4B20A2CE2D309B0F0BD5C00002041
:102CB0001570000870B58AB0104E00246D46E0070C
:102CC00009D16008400120226946FEF75FFF052018
:102CD000DFF82CC000DF002004F0010306EBC40184
:102CE00000EB0312AA5C0A54401CC0B20828F7D3B8
:102CF000641CE4B20A2CE2D30AB070BD5C00002070
:102D0000157000083EB511A0D0E90010CDE9011002
:102D10000121082000F0EEF94FF44074ADF80040B6
:102D200003208DF8020010200A4D8DF8030069463B
:102D30002846FFF71BF821462846FFF76EF80621C4
:102D400001A800F00BF8044908703EBD5CC0E0002B
:102D50006F7F0000000C0140480100202DE9F04188
:102D600006460F46FFF7DEF98820FFF77DFAFFF7EA
:102D7000A5F805000CD1002408E0305DFFF774FAD7
:102D8000FFF79CF8050003D1641CE4B2BC42F4D305
:102D9000FFF724FA2846BDE8F08170B50546FFF735
:102DA000C1F98820FFF760FAFFF788F8040005D121
:102DB0002846FFF759FAFFF781F80446FFF70EFAA5
:102DC000204670BD10B500F00F0040F06000FFF726
:102DD000E4FF0149087010BD4801002010B54022F1
:102DE00051B1012909D0022902D0032907D101E0FC
:102DF000482202E0502200E05C22042801D9012090
:102E000010BD401E0243D0B2FFF7C7FF0149087052
:102E100010BD00004801002010B500F00F0040F088
:102E20007000FFF7BAFF0149087010BD480100208B
:102E300010B5202801D9012010BDC0F12000C0B27A
:102E4000FFF7ABFF0149087010BD000048010020EA
:102E500010B50A4C0AA10BA06269FDF789FA6069F6
:102E6000072180F8211000F120000221C1704FF0ED
:102E7000200181704FF00001017010BD640100203D
:102E800025730000475A3130332E30000149086263
:102E90007047000000000E422DE9F047DFF844A023
:102EA00080468946002505EB450000EBC5000AEB8E
:102EB000400605EB4500002409EB800704EB4403C2
:102EC00008EB4300325DF9B2C0B2FEF76BFC641C44
:102ED000E4B2162CF2D36D1CEDB2042DE3D3BDE8A1
:102EE000F0870000DC790008002240F6B8330021AA
:102EF00001E0491C89B28142FBD3521C92B29A4232
:102F0000F5D3704738B50121082000F0F3F84FF4ED
:102F10004C60ADF8000014208DF803000320254C10
:102F20008DF8020069462046FEF720FFC0212046AA
:102F3000FEF773FF8121002000F066F84FF47A70ED
:102F4000FFF7D2FF3F21032000F05EF8512104205B
:102F500000F05AF840221146002000F095F80021B8
:102F60004022084600F090F83220FFF7BDFFE42130
:102F7000182000F049F8F0211B2000F045F86421EA
:102F8000112000F041F840211F2000F03DF8012001
:102F900000F070F8A721022000F036F8222100206E
:102FA00000F032F8002000F05CF8BDE83840642002
:102FB000FFF79ABF000C014070B506460025FFF7E9
:102FC000D1F85820FFF77AF9FEF7A8FF0D4C2070D2
:102FD000A0B93046FFF772F9FEF7A0FF207068B97C
:102FE000FFF7C0F85920FFF769F9FEF797FF207047
:102FF00020B9FEF7F3FF0546FFF766F8FFF706F97D
:10300000284670BD4901002070B506460D46FFF701
:10301000A9F85820FFF752F9FEF780FF094C2070FD
:1030200060B93046FFF74AF9FEF778FF207028B9FB
:103030002846FFF743F9FEF771FF2070BDE87040A6
:10304000FFF7E4B84901002010B50446010A032245
:10305000002000F019F8E1B2BDE810400120FFF7B0
:10306000D3BF4FF0100208B1102100E00021002072
:1030700000F00AB818B1A0211220FFF7C5BF8022C6
:1030800000211220AFF3008070B50E4614460546AD
:10309000FFF792FFE143C9B2084006EA0401014389
:1030A0002846BDE87040FFF7AFBF0000044A002982
:1030B000516901D0014300E0814351617047000034
:1030C00000100240044A0029D16901D0014300E008
:1030D0008143D1617047000000100240044A00297A
:1030E000116901D0014300E0814311617047000084
:1030F00000100240044A0029916901D0014300E018
:10310000814391617047000000100240044A002989
:10311000D16801D0014300E08143D16070470000D5
:10312000001002400149086070470000400442421C
:10313000214A10B55168214B11F00C0103D004292C
:1031400001D0082901D0036012E05168536801F4EE
:1031500070114FF0020413F4803F04EB914102D050
:1031600053689B0301D5164B00E0144B5943016093
:103170005168144B01F0F00109095C5C0168E14001
:103180004160546804F4E064240A1C5D21FA04F4EC
:103190008460546804F46054E40A1B5DD940C16043
:1031A0005268084B02F44042920B1B1F9A5CB1FB21
:1031B000F2F1016110BD00000010024000127A001F
:1031C00000093D0004000020034600205909094A77
:1031D00001290AD002290AD0516A03F01F020123F3
:1031E00093400B4200D0012070471168F5E7116A47
:1031F000F3E7000000100240064900220A7001F8BF
:103200002029012802D0042802D1052081F82000BD
:10321000704700002010024001490860704700001C
:103220003C04424202490A6A02430A6270470000B3
:103230000010024010B504460020024603E0A35CE3
:103240005840521CD2B28A42F9D310BD0246002126
:103250000846535C491C5840C9B20729F9D3704746
:103260002DE9F0418AB0DFF8548000246D4600EB70
:103270004006002008EB041304F001011A5C00EB87
:103280000117401CC0B2EA551028F7D3E0070ED052
:103290006008400100EBC61000F5087080B22022E3
:1032A0006946FEF7C9FC0520DFF814C000DF641C86
:1032B000E4B2182CDDD30AB0BDE8F081E43F002071
:1032C00015700008F0B589B0144F002400EB4006DB
:1032D0006D46E0070ED16008400100EBC61000F516
:1032E000087080B220226946FEF750FC0520DFF806
:1032F00030C000DF002004F0010307EB041100EBF5
:103300000312AA5C0A54401CC0B21028F7D3641CF4
:10331000E4B2182CDDD309B0F0BD0000E43F00207A
:10332000157000087CB549228DF8002002788DF8D0
:10333000012042788DF8022080788DF8030008780B
:103340008DF8040048788DF8050088788DF806001F
:1033500007216846FFF76EFF8DF8070000246D46D1
:1033600004F10800295DC0B2FFF74EFE641CE4B210
:10337000082CF5D30020FFF71FFE400701D52221BE
:1033800000E026210020FFF73FFE7CBD7CB57922BE
:103390008DF8002002788DF8012042788DF8022007
:1033A00080788DF803008DF8041000208DF805005A
:1033B0008DF8060007216846FFF73CFF8DF80700EF
:1033C00000246D4604F10800295DC0B2FFF71CFE21
:1033D000641CE4B2082CF5D30020FFF7EDFD400794
:1033E00001D5222100E026210020FFF70DFE7CBD43
:1033F000FEF7C4FB04F0A6FAFFF72AFD03F000F97C
:103400001F480078FFF75EFF1E49632008701E48C2
:103410001E49006808443221B0FBF1F080B2FFF78A
:1034200013FE1B480078FFF703FD1A480078FFF7EA
:10343000F3FC19480078FFF7C5FC194C1748DFF872
:1034400064C0A0643C3800DF00231A4601211648FE
:10345000DFF858C000DF0023A0621A46012114489B
:10346000DFF848C000DF0023E0621A46012111485E
:10347000DFF838C000DF60620020DFF83CC000DF0A
:1034800029000020240000204000002020D7FEFF5B
:10349000200000202200002021000020C44800203D
:1034A00064010020F9720008BD340008F9770008B3
:1034B000B5360008AD3900088978000817490020A2
:1034C000174C4FF6FF75086029461648DFF858C0BC
:1034D00000DFE078062811D2DFE800F0030B0D19B9
:1034E0001B1D207910B100F025F807E000F068F905
:1034F00004E0012000E0022000F004F9C820DFF819
:103500002CC000DF0748DFF828C000DFDCE703201D
:10351000F2E70420F0E70520EEE700004401002078
:103520006401002088480020B57300081570000869
:103530000973000870B5134D002028706870A870DA
:10354000E87028716871A8712846FFF77FFEE8715E
:10355000002404F10800295DC0B2FFF755FD641C8A
:10356000E4B2082CF5D30020FFF726FD10F0040F7D
:1035700001D0222100E02621BDE870400020FFF7A5
:1035800043BD0000B40100202DE9FC410027009755
:1035900074208DF800002C4E012001978DF8010059
:1035A00096F8220096F82010284D08448DF8020065
:1035B000E8690178D1B1A96911F8012B8DF80320D0
:1035C000A961027892B111F8012B8DF80420A9614C
:1035D00002785AB111F8012B8DF80520A961007805
:1035E00020B111F8010B8DF80600A9616846FFF7BC
:1035F0002DFE8DF807000024E84604F1080018F8B5
:103600000410C0B2FFF700FD641CE4B2082CF4D330
:103610000020FFF7D1FC10F0040F01D0222100E0C0
:1036200026210020FFF7F0FC16F8200F401CC0B246
:103630003070F178A6F12006884202D1AE6186F89A
:103640002070BDE8FC810000644800206401002077
:1036500070B5174D79202870A5F144000178697084
:103660004178A9708078E870A5F150000078287141
:1036700000206871A8712846FFF7E8FDE871002472
:1036800004F10800295DC0B2FFF7BEFC641CE4B27F
:10369000082CF5D30020FFF78FFC10F0040F01D0A9
:1036A000222100E02621BDE870400020FFF7ACBCDD
:1036B000B40100200E4D00244FF6FF764FF4FA7748
:1036C00031460C48DFF830C000DFE043C4B228794F
:1036D00048B914B1FFF7BCFF01E0FFF755FF3846CA
:1036E000DFF818C000DF0348DFF814C000DFE7E7A9
:1036F0006401002088480020B57300081570000898
:10370000097300082DE9F0412C4B61277326002234
:103710009C6B196B03F15005062825D2DFE800F0F9
:1037200024030B173D402F706E700878A870586BFB
:103730000078E87039E0672028706E700878A8700B
:103740002078E870D86B007828716A710CE07420DA
:1037500028706E700878A8702078E870186C00786F
:103760002871586C007868711448AA715030FFF7BE
:103770006DFDE871002404F10800295DC0B2FFF777
:1037800043FC641CE4B2082CF5D30020FFF714FCC2
:1037900010F0040F0BD022210AE02F706F2001E0FF
:1037A0002F7063206870AA70EA702A71CDE7262115
:1037B000BDE8F0410020FFF727BC000064010020B5
:1037C0002DE9F047474B00218AB09A7908460A2A2A
:1037D00000D99871434A82464C32434C1070507065
:1037E0009070D0709E790020994604EB06176D46C4
:1037F00001F00108062300EB0814395C2955032861
:103800000AD8C0F1000C03EB4C0492F800C001FA96
:1038100004F444EA0C041470041F032C0AD8C0F109
:10382000040C03EB4C0492F801C001FA04F444EADE
:103830000C045470A0F10804032C0AD8C0F1080C41
:1038400003EB4C0492F802C001FA04F444EA0C04BD
:103850009470A0F10C04032C07D8C0F10C0403EB06
:103860004404A140D4782143D170401CC0B2102838
:10387000C1D31C4C532050344D4620701B48007857
:103880006070A6701078E070507820719078607148
:10389000D078A0712046FFF7D9FCE071002606F130
:1038A0000800A15DC0B2FFF7AFFB761CF6B2082E90
:1038B000F5D30020FFF780FB10F0040F01D0222188
:1038C00000E026210020FFF79FFB09480168B1F5C1
:1038D000FA7F04D9C0F800A0A879401CA8710AB0EA
:1038E000BDE8F08764010020E43F002029000020AB
:1038F000440100202DE9FC410026009677208DF838
:103900000000284D012001968DF80100287AA97841
:1039100008448DF80200E8690178A9B18DF8031018
:10392000401CE861017879B18DF80410401CE86111
:10393000017849B18DF80510401CE861017819B192
:103940008DF80610401CE8616846FFF77FFC8DF893
:10395000070000246F4604F10800395DC0B2FFF78C
:1039600053FB641CE4B2082CF5D30020FFF724FBC2
:1039700010F0040F01D0222100E026210020FFF7E3
:1039800043FBA878401CC0B2A870697A884207D16E
:10399000687808B1044801E003482038E861AE7057
:1039A000BDE8FC8164010020B4480020104C114D9A
:1039B000114E4FF4FA7764211048DFF844C000DF5D
:1039C000207810B10F4803F011FA287810B10E4892
:1039D00003F00CFA307908B9FFF78CFF3846DFF8AE
:1039E0002CC000DF0548DFF828C000DFE3E7000057
:1039F0001A0000201B0000206401002088480020DD
:103A0000B573000864410020A4410020157000082F
:103A10000973000802490A8822EA00020A807047F6
:103A20000428004010B501214FF0C050FFF74AFBB9
:103A30000120FFF72BFAFDF7B1FA0120FFF7DCFBBD
:103A40004120FFF7C1FB0028FAD04FF48070FFF748
:103A5000E9FB0120FFF7E0FB00F09AF800F090F896
:103A60000121084600F060F800F08AF847F6FF7080
:103A700000F076F8BDE8104000F082B802480188F6
:103A800041F010010180704704280040024801887D
:103A900021F0100101807047042800400249888805
:103AA000098840EA0140704718280040064A91887A
:103AB000128801EA0001C9B2024202D009B1012014
:103AC00070470020704700000028004010B501201A
:103AD000FFF7ECFF88B10120FFF79CFF00F050F8E2
:103AE000FFF7DCFF0E49884204D3002000F02AF8DB
:103AF00000F046F80B49012008700220FFF7D6FFBE
:103B000010B10220FFF786FF0420FFF7CFFF002847
:103B100004D0BDE810400420FFF77CBF10BD0000BA
:103B2000805101002D000020054A0029B2F800183C
:103B300001D0014300E08143A2F800187047000063
:103B40000020004000B50246FFF798FF0348110C23
:103B5000018082805DF804EBFFF798BF18280040D1
:103B600000B50246FFF78AFF0448C2F30341018013
:103B700082805DF804EBFFF789BF00000828004051
:103B80000248B0F804188906FBD5704700200040B1
:103B90000548B0F8041821F00801A0F80418B0F89E
:103BA00004180907FBD570470020004070B5114884
:103BB0000024114D046544658465C4652A780F4965
:103BC0001646D21F5030FCF760FCF61F0C49F0B2CD
:103BD0008207C8712C7000D0012202EB900048725D
:103BE0000001087203485030C861012048708C7091
:103BF00070BD0000644800203A0100206A410020A6
:103C0000640100202DE9FC5F00250124A84602F094
:103C10005BFCEF4881788DF8061041788DF805102F
:103C200000788DF80400FEF793FC00263F23BE22A7
:103C3000272101200096FDF737FEE6A2272101206B
:103C4000FDF747FFE8A22F211420FDF742FFEBA26A
:103C500037211420FDF73DFFDFF8B4934FF0320B0E
:103C6000DB4F4FF47A701A3F4FF00A0AB863A7F897
:103C700016B03978B1FBFAF03030C2B22F212C20C7
:103C8000FDF790FD39783220B1FBFAF20AFB1212EF
:103C900030322F21FDF786FD35B135222F214A2004
:103CA000FDF780FD302205E037222F214A20FDF765
:103CB00079FD35222F215020FDF774FDBA46B878E2
:103CC0000A27B0FBF7F03030C2B22F217420FDF785
:103CD00069FD9AF80200B0FBF7F107FB11023032E0
:103CE0002F217A20FDF75EFD9AF801003721B0FB05
:103CF000F7F03030C2B27420FDF754FD9AF801009D
:103D0000B0FBF7F107FB1102303237217A20FDF7C3
:103D100049FD9DF804003721B0FBF7F03030C2B206
:103D20003220FDF73FFD9DF80400B0FBF7F107FBE3
:103D30001102303237213820FDF734FD9DF805009F
:103D40003721B0FBF7F03030C2B24420FDF72AFD36
:103D50009DF80500B0FBF7F107FB11023032372167
:103D60004A20FDF71FFD9DF806003721B0FBF7F054
:103D70003030C2B25620FDF715FD9DF80600B0FBAD
:103D8000F7F107FB1102303237215C20FDF70AFD05
:103D9000082C09D09FA23721A020FDF79AFE574694
:103DA000787B012802D007E09CA2F4E77E7302F042
:103DB0008BFB874801F006FFFEF736FB012810D089
:103DC000FEF78EFB012813D0FEF7DCFB012815D08F
:103DD000FEF7F2FA012850D0FEF76BFB012874D0F1
:103DE000A8E0641E14F0FF047FF43AAF082437E71C
:103DF000641CE4B2082CFAD9012431E78949012076
:103E0000082C0870F3D2DFE804F004050A0D121D37
:103E1000283325E73878202841D2401C3EE0C5B33E
:103E200000251DE7B8780E2847D2401C44E09DF8D5
:103E30000400401CC0B28DF804001728D7D98DF8B3
:103E400004600DE79DF80500401CC0B28DF8050028
:103E50003B28CCD98DF8056002E79DF80600401C90
:103E6000C0B28DF806003B28C1D98DF80660F7E690
:103E700078780E2852D2401C4FE06B490120082C64
:103E80000870B4D2DFE804F006070415222E3A4683
:103E9000C5E70CE0E4E6387808B1401E3870C0B2DF
:103EA000FEF7C6FFD9F8000039784171D8E6012540
:103EB000D6E6B87808B1401EB870C0B2FEF7ACFFC5
:103EC000D9F80000B978C171CAE62FE09DF8040066
:103ED000401EC0B28DF80400182888D917208DF82C
:103EE0000400BDE69DF80500401EC0B28DF8050037
:103EF0003C288ED93B208DF80500B1E69DF80600E0
:103F0000401EC0B28DF806003C288AD93B208DF8AF
:103F10000600A5E6787808B1401E7870C0B2FEF7BA
:103F200051FFD9F800007978017299E600F0AEFAF5
:103F3000082C06D0FEF7B2FA012805D0F88A28B17D
:103F400020E001A800F0A8FBBDE8FC9FB8F1000F3D
:103F50003AD000208046082C12D2DFE804F0110489
:103F60000A181D23292F362337222F212C200096B3
:103F700004E0362355222F214A200096FDF794FCB9
:103F8000A7F816B0B86B00287FF40AAFDCE7362339
:103F90007F222F21009615E03F233D22372132203A
:103FA0000096EBE73F234F22372144200096E5E7B8
:103FB0003F236122372156200096DFE73F237F22EF
:103FC000372100967420D9E70120804648E600009A
:103FD0003A00002053455420417564696F20414EDA
:103FE000442054696D650000564F4C3A2D2D5045C4
:103FF0003A2D2D757320483A2D2D000054696D65BA
:10400000202D2D3A2D2D3A2D2D20423A2D2D000018
:10401000AC01002020457869740000003E457869B5
:10402000740000004A0100204D0100202DE9F84FE6
:1040300001240025FEF78CFA002000903F23BE22C9
:1040400027210120FDF730FC61A227210120FDF787
:1040500040FD64A22F211420FDF73BFD67A237210C
:104060001420FDF736FDDFF8A4B1694F694E4FF417
:104070007A79A2464FF03208C6F83890A6F8168032
:10408000306A00F08BFA308A00F0CEFA022C07D0AA
:1040900020222F218C20FDF785FB042C0ED004E07C
:1040A0003E222F218C20FDF77DFB5BA23721A02033
:1040B000FDF70FFD707B012802D009E058A2F5E75B
:1040C0000020707302F000FA52481A3001F07AFDB5
:1040D000FEF7AAF9012814D0FEF702FA012816D03B
:1040E000FEF750FA012818D0FEF766F901282BD008
:1040F000FEF7D4F9012868D0FEF7DBF901283FD09C
:1041000042E0641E14F0FF04B6D10424B4E7641C3A
:10411000E4B2042CB0D90124AEE74349012C81F864
:1041200000A008D0022CA7D0032CA5D1308A484586
:10413000A2D2401C15E0306A3C4A643031463062FD
:1041400090421AD9584617E03949012C81F800A04D
:104150000BD0022C90D0032C8ED1308A00288BD02B
:10416000401E30823968087186E7306A314664380B
:104170003062584501D22D480862396808607BE7F3
:1041800000F084F9042C20D0B06B00281DD0F08AF8
:1041900000288FD1A6F8168055B10025012C04D037
:1041A000032C87D100F0F0F984E700F0E3F981E710
:1041B0000125012C05D0032CF6D1308A00F034FA09
:1041C00078E7306A00F0EAF974E7BDE8F88F00009C
:1041D00053455420464D20414E4420524620504FD6
:1041E00057455200464D3A20202020204D487A2045
:1041F0004175746F5365743A200000005246205098
:104200004F5745523A20202020570000C057010048
:10421000AC010020200000202045786974000000D7
:104220003E457869740000004A010020E0A50100C5
:104230004D0100202DE9F84F01240025FEF788F9F3
:104240004FF000093F23BE2227210120CDF8009026
:10425000FDF72AFB79A227210120FDF73AFC7CA279
:104260002F211420FDF735FC0820034600907B4ADF
:104270002F215C2001F08EFB79A237211420FDF75D
:1042800028FCDFF8E8A17A4E0A274FF0320B4FF4F2
:104290007A70B063A6F816B030792F21B0FBF7F032
:1042A0003030C2B25020FDF77DFA3079B0FBF7F123
:1042B00007FB110230322F215620FDF773FA707977
:1042C0003721B0FBF7F03030C2B24A20FDF76AFA6E
:1042D0002E2237215020FDF765FA7079B0FBF7F1F7
:1042E00007FB1102303237215620FDF75BFA032C11
:1042F0000AD060A23721A020FDF7EBFBB04698F86A
:104300000D00012802D009E05CA2F3E788F80D90C7
:1043100002F0DAF856481A3001F054FCFEF784F83F
:10432000012810D0FEF7DCF8012812D0FEF72AF998
:10433000012814D0FEF740F801282BD0FEF7B9F879
:1043400001284ED051E0641E14F0FF049FD10324D5
:104350009DE7641CE4B2032C99D9012497E74949ED
:104360000120012C08700BD0022C90D198F8050088
:10437000401CC0B288F805001E281DD9142019E081
:1043800098F80400401CC0B288F80400502823D9D3
:104390003C201FE03C490120012C087011D0022C68
:1043A000D6D198F80500401EC0B288F80500142840
:1043B00002D21E2088F80500C1B2DAF8000081722E
:1043C00065E798F80400401EC0B288F804003C2855
:1043D00002D2502088F80400C1B2DAF8000041721D
:1043E00055E700F053F8032C26D0FEF757F80128C4
:1043F00022D0B8F81600D0B9012D01D0012546E72A
:104400000025A8F816B0012C02D0022C0FD106E02E
:1044100036235B222F215020CDF8009005E03F236A
:104420005B2237214A20CDF80090FDF73DFAD8F8FD
:10443000380000287FF463AFBDE8F88F534554205F
:10444000417564696F20414E442054696D650000D8
:10445000484947482054454D503A00004C850008D3
:1044600048494748205357523A000000AC01002009
:104470002000002020457869740000003E457869DE
:10448000740000004A0100204D0100200C22024966
:104490004FF40070FDF7D0BBC44800202DE9F04177
:1044A0000E4E054600244FF48077280639463046E4
:1044B00002D5FDF7B2FC01E0FDF7ADFC80213046EE
:1044C000FDF7ABFC6806050E80213046FDF7A3FC26
:1044D000641CE4B2082CE8D3BDE8F0810010014070
:1044E000224900200A6842F480320A604FF4A06337
:1044F0000A6800F1010012F4003F01D19842F7D19F
:104500000868800330D51A48026842F01002026041
:10451000026822F003020260026842F002020260B6
:104520004868486048684860486840F4806048606F
:10453000486820F47C104860486840F4E8104860FF
:10454000086840F08070086008688001FCD5486801
:1045500020F003004860486840F002004860486866
:10456000C0F381000228FAD1704700000010024019
:104570000020024008B500200090362343222F215E
:104580002620FDF791F908BD08B5002000903F23D3
:10459000612237214A20FDF787F908BD204970B50F
:1045A000B0FBF1F201FB12021E49B2FBF1F2B0FBCB
:1045B000F1F301FB130342F21071B3FBF1F330335B
:1045C000DCB2B0FBF1F301FB13034FF47A71B3FBE0
:1045D000F1F33033DDB2B0FBF1F301FB13006421E2
:1045E000B0FBF1F030303032C6B2D2B22F212620EB
:1045F000FDF7D8F822462F212C20FDF7D3F82A46C4
:104600002F213220FDF7CEF82E222F213820FDF762
:10461000C9F83246BDE870402F213E20FDF7C2B8F0
:1046200040420F00A086010042F21071B0FBF1F28F
:1046300001FB12024FF47A71B2FBF1F2B0FBF1F31D
:1046400001FB13036421B3FBF1F370B53033DCB22B
:10465000B0FBF1F301FB13030A21B3FBF1F5B0FB4F
:10466000F1F301FB13063032D2B230353036372148
:104670004A20FDF797F8224637215020FDF792F89F
:104680002A4637215620FDF78DF83246BDE87040A6
:1046900037215C20FDF786B810B502784FF46161D0
:1046A0004A4341788078C1EB011102EB81010C187B
:1046B000FFF766FA2046FFF745FABDE81040FFF71E
:1046C0005FBA00002DE9FF5F07460025C0EBC70178
:1046D000CF480295084403950190016802918188B2
:1046E000ADF80C1080792C462E468DF80E00FDF7A3
:1046F000BDF81020FDF7D4FA4FF0010800213F2348
:10470000BF220846CDF80080FDF7C4F93D2396226C
:104710000C210220CDF80080FDF7BCF90E21082005
:10472000FEF7BAFB5B2202210120FDF73BF84FF0B8
:104730000A09B7FBF9F080463030C2B202210720E7
:10474000FDF730F809FB1872303202210D20FDF719
:1047500029F85D2202211320FDF724F8DFF8B0824A
:104760004FF47A7BA8F18C084FF016094FF0080A35
:10477000C8F838B0002702A807EB4701C25D4FF028
:10478000190000EB4100AF42C0B24FF0020102D16C
:10479000FDF738F801E0FDF705F87F1CFFB2072FA1
:1047A000E9D3072D07D09BA202215020FDF791F9F4
:1047B000082D0FD004E099A202215020FDF789F9BD
:1047C00098A202217420FDF784F9FDF772FE0128FA
:1047D00002D037E095A2F4E7C8F838B016B3072D39
:1047E00030D2E0B2009000EB40000E2101EB40021D
:1047F000C4F3072707EB470309EB83010AEB4000EB
:104800000023FDF78FF907EB47018A4A01EBC70147
:10481000009802EB41010026415C02A841556D1C45
:10482000EDB2A7E7072D12D0082D1BD0002060F3B2
:104830000704012660F30F240E22494650463346F2
:10484000FDF770F9FDF79EFE01280DD03AE0DDE995
:1048500001010160BDF80C1081809DF80E1081717E
:10486000FCF794FABDE8FF9F734901200870C8F86F
:1048700038B03EB304EB44010AEB4100C7B2C4F3C5
:10488000072000EB4001009009EB8100C1B200233A
:10489000BA1D3846FDF746F90098401EC0B260F3D5
:1048A0000F24032802D9032060F30F24C4F3072048
:1048B00000EB400109EB8100C1B20123BA1D38466B
:1048C000FDF730F9FDF778FD01282CD15B49087020
:1048D000C8F838B03EB304EB44010AEB4100C7B25C
:1048E000C4F3072000EB4001009009EB8100C1B246
:1048F0000023BA1D3846FDF715F90098401CC0B2D8
:1049000060F30F24032802D9002060F30F24C4F3BE
:10491000072000EB400109EB8100C1B20123BA1D61
:104920003846FDF7FFF8FDF77FFD012828D14449FF
:104930000870C8F838B046B304EB44010AEB4100F4
:10494000C4F3072101EB410209EB8201C0B2CFB2EF
:104950000023821D3946FDF7E5F8601EC0B260F302
:104960000704152802D9152060F3070404EB44015D
:104970000AEB4100C0B20123821D3946FDF7D2F88F
:10498000FDF7AEFD012807D030E06D1EEDB2082D19
:104990007FF647AF0825EDE62A4901200870C8F8E0
:1049A00038B076B304EB44010AEB4100C4F30721AD
:1049B00001EB410209EB8201C0B2CFB20023821D9C
:1049C0003946FDF7AFF8601CC0B260F30704152844
:1049D00002D9002060F3070404EB44010AEB410014
:1049E000C0B20123821D3946FDF79CF8FDF756FD44
:1049F00001283FF437AFD8F8380000287FF4E5AE3F
:104A000030E76D1CEDB2082DC5D90025B2E60000D7
:104A1000AC00002020534156450000003E53415653
:104A20004500000020455849540000003E455849C3
:104A300054000000DC7900084A0100204D010020EC
:104A40004E010020510100202DE9FF5F0746C848B4
:104A5000002500EBC7000190D0E90010CDE902105D
:104A60002C462E46FCF702FF1020FDF719F94FF0F7
:104A7000010800213F23BF220846CDF80080FDF742
:104A800009F83D2396220C210220CDF80080FDF785
:104A900001F80E210820FEF7FFF95B220221012018
:104AA000FCF780FE3037FAB202210720FCF77AFECD
:104AB0005D2202210D20FCF775FEAD494FF47A7B93
:104AC0003C394FF016094FF0080AC1F838B00027FA
:104AD0004FF0130802A807EB4701C25D08EB410045
:104AE000AF42C0B24FF0020102D1FCF78BFE01E0F1
:104AF000FCF758FE7F1CFFB2082FEBD3082D07D020
:104B00009CA202215020FCF7E4FF092D11D004E003
:104B10009AA202215020FCF7DCFF9AA20221742005
:104B2000FCF7D7FF924F3C3FFDF7C3FC012802D0B2
:104B300037E096A2F2E7C7F838B016B3082D30D2A6
:104B4000E0B2804600EB48000E2101EB4002C4F3C6
:104B5000072707EB470309EB83010AEB400000231B
:104B6000FCF7E0FF07EB47018A4A01EBC70102EBC4
:104B7000410102A818F80110002641556D1CEDB244
:104B8000A5E7082D12D0092D16D0002060F30704E8
:104B9000012660F30F240E22494650463346FCF7A7
:104BA000C1FFFDF7EFFC012808D037E001AB07CBD0
:104BB000C0E90012FEF756F8BDE8FF9F76490120D4
:104BC0000870C7F838B04EB304EB44010AEB41005B
:104BD000C2B2C4F3072000EB40010090904609EBFD
:104BE0008100C1B20023921D4046FCF79BFF009854
:104BF000401EC0B260F30F24032802D9032060F3E3
:104C00000F24C4F3072000EB400109EB8100C1B27F
:104C1000012308F106024046FCF784FFFDF7CCFBB8
:104C200001282ED15D490870C7F838B04EB304EBA7
:104C300044010AEB4100C2B2C4F3072000EB40017B
:104C40000090904609EB8100C1B20023921D4046BE
:104C5000FCF768FF0098401CC0B260F30F240328E3
:104C600002D9002060F30F24C4F3072000EB4001B9
:104C700009EB8100C1B2012308F106024046FCF7AE
:104C800051FFFDF7D1FB012828D145490870C7F82D
:104C900038B046B304EB44010AEB4100C4F30721EA
:104CA00001EB410209EB8201C0B2C9B28846002380
:104CB000821DFCF737FF601EC0B260F307041528A1
:104CC00002D9152060F3070404EB44010AEB41000C
:104CD000C0B20123821D4146FCF724FFFDF700FC12
:104CE000012807D030E06D1EEDB2092D7FF648AFE8
:104CF0000925ECE62B4901200870C7F838B066B3E7
:104D000004EB44010AEB4100C4F3072101EB41022B
:104D100009EB8201C0B2C9B288460023821DFCF7AC
:104D200001FF601CC0B260F30704152802D90020FF
:104D300060F3070404EB44010AEB4100C0B2012315
:104D4000821D4146FCF7EEFEFDF7A8FB01280AD0C4
:104D5000B86B00287FF4E8AE2EE76D1CEDB2092D8C
:104D6000C7D90025B3E602493C39C1F838B023E77A
:104D70005C00002020534156450000003E53415640
:104D80004500000020455849540000003E45584960
:104D900054000000DC7900084A0100204D01002089
:104DA0004E010020510100202DE9FE4F022806D0BF
:104DB00001286FD00521FA480170BDE8FE8F00255B
:104DC000F84E8DF8045002950124B572FCF74EFDA3
:104DD000012700213F23BF2208460097FCF75AFE17
:104DE0000923BF22194600200097FCF785FD00F03B
:104DF000B7FCED4906F10900B9460860EB4901A886
:104E0000B0460860EA49401D4FF47A7B0860E949E2
:104E100002A80860464698F80900FEF753FA0021F8
:104E2000084600F03FFC0121084600F03BFC02214F
:104E3000084600F037FC0321084600F033FC002749
:104E40008DF80970BA468DF80870B046012C07D06D
:104E5000002198F8090000F09DFB022C0DD004E021
:104E6000012198F8090000F095FB00219DF804004D
:104E700000F064FB032C0ED004E001219DF8040037
:104E800000F05CFBCCA201218020FCF722FE042C68
:104E90001AD005E0B0E1CAA201218020FCF719FE7A
:104EA000C9A20121A020FCF714FEC94981F8009095
:104EB000D8F8380050B1FDF7F1FA012806D0FDF717
:104EC000F8FA012804D073E0C2A2EAE7002077E0F4
:104ED000C8F838B0B5B39DF80920C0499DF808005E
:104EE00001EB021286183078401CC0B230700328E3
:104EF00001D9002030709DF8080032780F280DD0BD
:104F00003946504600F000FC3946504600F088FB18
:104F1000B34803210660A248017049E09DF80900EA
:104F2000009001EB00100F21FBF7F4FA38460099CE
:104F300000F0B8FB3946504600F072FBA948022148
:104F40000660E8E7FFE7022C04D0032C2CD0042CE9
:104F500033D02DE09DF80400401CC0B28DF8040051
:104F6000032802D900208DF804000121C0B200F00E
:104F7000E5FA9DF804204FF4C0719848FBF7CAFA8F
:104F80000321084600F08EFB0221084600F08AFB50
:104F90000121084600F086FB0021084600F082FB54
:104FA0007F4981F8009003E098F80900FEF758F96E
:104FB000FDF7E8FA012806D042E0794900200870A0
:104FC00083490870F9E6884981F800904146C8F89D
:104FD00038B095B39DF8090060B1401EC0B28DF89D
:104FE00009006FB13946504600F01AFB7F1EFFB230
:104FF00039461EE00021504600F012FB002525E74F
:10500000C01CC1B2032000F04DFB9DF80900801CBC
:10501000C1B2022000F046FB9DF80900401CC1B25D
:10502000012000F03FFB9DF80910002000F03AFB42
:105030000021504600F0F4FA02E0FFE7012C04D012
:10504000FDF7BAF9012809D040E0487A401CC0B207
:10505000487209287FF6DEAE002043E0634981F8FC
:1050600000904146C8F838B075B39DF8090017287C
:105070002CD2401CC0B28DF80900032F07D239464C
:10508000504600F0CDFA7F1CFFB2394618E0C01E32
:10509000C1B2002000F006FB9DF80900801EC1B2DD
:1050A000012000F0FFFA9DF80900401EC1B2022065
:1050B00000F0F8FA9DF80910032000F0F3FA03213C
:1050C000504600F0ADFA01E0012C04D0FDF7ACF938
:1050D00001280AD032E0487A401EC0B2487209283E
:1050E000B8D9092088F8090094E6414981F8009070
:1050F000C8F838B08DB13946504600F091FA9DF8A5
:105100000800401EC0B28DF808000F2802D90F20F9
:105110008DF80800C0B282460CE0641E14F0FF0453
:1051200029D0022C7FF46BAF23A201218020FCF751
:10513000D0FC01253946504600F072FAFDF7D0F94F
:1051400001287FF4B5AE2B4981F80090C8F838B03B
:105150009DB13946504600F063FA9DF80800401CA6
:10516000C0B28DF808000F2802D900208DF8080081
:10517000C0B282460FE0042468E6641CE4B2042C4A
:1051800001D9012462E6032CF6D100219DF8040028
:1051900000F0D4F901253946504600F041FA87E67F
:1051A00067010020200000209401002098010020C9
:1051B0009C010020A401002020534156450000001E
:1051C0003E53415645000000204558495400000018
:1051D000680100203E45584954000000E43F00208B
:1051E000A8010020A00100204A0100204D0100205C
:1051F0004E010020510100200421DCE52DE9F84F8B
:105200000026012534463746B3463F23BE222721D8
:1052100028460096FCF748FBDFF8E8924FF47A7ACC
:10522000012089F80A001020FCF73AFDB6A22721D8
:105230000120FCF74EFCB7A22F210120FCF749FC0E
:10524000B7A237210120FCF744FC304600F080FB78
:10525000204600F0F9F9384600F0E8FB1F2000EB8B
:10526000C5008046C1B23E220120FCF79BFA08F03F
:10527000FF013C225020FCF795FA08F0FF013E2286
:105280009220FCF78FFAC9F838A099F80D00012890
:1052900007D189F80DB001F017F99A481A3000F0DB
:1052A00091FCFDF76FF9012808D0FDF785F801287A
:1052B0001ED0FDF7B9F8012834D052E008F0FF0104
:1052C00020220120C9F838A0FCF76CFA08F0FF0191
:1052D00020225020FCF766FA08F0FF0120229220DD
:1052E000FCF760FA6D1E15F0FF05B7D10325B5E791
:1052F00008F0FF0120220120C9F838A0FCF752FA7B
:1053000008F0FF0120225020FCF74CFA08F0FF01C2
:1053100020229220FCF746FA6D1CEDB2032D9DD998
:1053200001259BE7C9F838A0012D04D0022D09D032
:10533000032D16D10FE0A6B1761EF6B2304600F06E
:1053400007FB0EE06CB1641EE4B289F80940204608
:1053500000F07AF905E027B17F1EFFB2384600F071
:1053600065FBFDF7BDF8012821D1C9F838A0012D52
:1053700004D0022D0AD0032D19D111E0092E16D226
:10538000761CF6B2304600F0E3FA10E0132C0ED291
:10539000641CE4B289F80940204600F055F906E0A3
:1053A000022F04D27F1CFFB2384600F03FFBFDF70E
:1053B00075F8012811D0D9F83800002812D0FDF76F
:1053C00078F801287FF461AFC9F838A0012D0BD01F
:1053D000022D0FD0032D1AD112E05449C9F838A07C
:1053E00081F800B0BDE8F88F89F80AB03046FFF7C1
:1053F0002BFB08E089F80AB02046FFF763F902E0CA
:105400003846FFF7D1FCD9F838000028EAD0FCF77D
:105410002DFA4FF0010800213F23BF220846CDF8A6
:105420000080FCF737FB0021132341220846CDF80A
:105430000080FCF72FFB1323B32219460020CDF880
:105440000080FCF759FA2523BF2219460020CDF829
:105450000080FCF751FA1423BF220021B320CDF8BD
:105460000080FCF717FB0A23BF221946B320CDF8B2
:105470000080FCF741FA00F0FBFA4FF008084346C1
:105480002B4A0121B520CDF8008000F083FA0823D3
:10549000284A0B21B520CDF8008000F07BFA0120CE
:1054A00000F0A4FAC84699F80E0000F06BFB98F8DB
:1054B0000E004FF4005101281F481FD0FCF7ABFC31
:1054C00010481A3000F07EFBD8F8200000F076F982
:1054D00098F8070000F0CAF998F8080000F028FBD7
:1054E000B8F8120000F0E2F9B8F81400C0B200F009
:1054F000CBFA98F8060000F0FBFA91E6FCF78DFC79
:10550000DEE7000020000020205053204E616D6532
:1055100020203A002041726561204E616D653A009D
:1055200020524453204D6F6465203A0067010020EB
:10553000C4860008BC860008000C014038B5114A3A
:105540000C4658B1012804D0022804D0032805D104
:1055500003E00D4A02E00D4A00E00D4A0820034630
:1055600000900121492000F015FA002C08D001B06C
:105570000823BDE83040502201214920FCF729BA18
:1055800038BD0000E4860008DC860008D4860008E8
:10559000CC86000870B50C46054601215B22084602
:1055A000FCF700F90A22B5FBF2F0014602FB1156A6
:1055B0003030C2B230364FF001014FF007003CB13D
:1055C000FCF720F9324601210D20FCF71BF906E01B
:1055D000FCF7E8F8324601210D20FCF7E3F85D22E4
:1055E00001211320FCF7DEF80C49C5EBC5000024AF
:1055F0004518192604EB440006EB40002A5DC0B2B2
:105600000121FCF7CFF8641CE4B2072CF2D3BDE80B
:1056100070403A2201214320FCF7C4B8AC000020BE
:1056200000EB8000102202EB400001EB410202EB94
:10563000C1011231C9B201F10A02C0B2D3B2C21D16
:10564000D2B2FCF7C6B9000070B50A26B0FBF6F47A
:10565000054604F13000C2B22F215620FCF7A2F813
:1056600006FB145230322F215C20FCF79BF82D22D0
:105670002F216220FCF796F80949C5EBC5000024EC
:105680004518682604EB440006EB40002A5DC0B2D2
:105690002F21FCF787F8641CE4B2072CF2D370BD0D
:1056A000AC000020F8B506460D4600EB460000EBC6
:1056B000C60113A00A2200680090B5FBF2F09DF825
:1056C00000301431034402FB10508DF800309DF877
:1056D0000120C9B210448DF801006A460120FCF790
:1056E000F8F90848002400EB051531462A5D2046EC
:1056F00000F00AF8641CE4B2102CF6D3F8BD0000E8
:1057000030300000E43F002008B5130000EB8000BB
:105710004FF0100202EB400001EB410202EBC1012D
:1057200001F112010A4AC0B2C9B206D0012B0AD057
:10573000022B0AD0032B05D1064A0B230093082322
:1057400000F028F908BD044AF7E7044AF5E700002D
:1057500015870008F48600080A870008FF860008FD
:1057600038B50024112504EB840004F1300105EB69
:105770004000CAB2C0B20A21FCF714F8641CE4B2BB
:105780000A2CF0D30CE004EB840004F1370105EBA4
:105790004000CAB2C0B20A21FCF704F8641CE4B2AB
:1057A0000F2CF0D3082003460090034A0A21A720BB
:1057B00000F0F0F838BD0000EC8600080EB520A11E
:1057C000D1E9002389680092CDE901311F499DF894
:1057D0000330B0FBF1F201FB12021D49B2FBF1F202
:1057E0001A448DF80320B0FBF1F201FB120242F2E1
:1057F0001071B2FBF1F29DF804301A448DF80420C8
:10580000B0FBF1F201FB12024FF47A71B2FBF1F23C
:105810009DF805301A448DF80520B0FBF1F201FB2C
:1058200012006421B0FBF1F09DF807106A460844AD
:105830008DF8070015210120FCF74BF90EBD000083
:10584000464D3A3030302E304D487A0040420F00FD
:10585000A086010008B5182000904023024A2721A5
:10586000782000F097F808BDFC8500081CB50DA154
:105870000A23D1E90021CDE90021B0FBF3F19DF825
:10588000022003FB11000A448DF802209DF803104A
:105890006A4608448DF8030015215420FCF719F9D5
:1058A0001CBD0000493A3030410000001CB51DA16C
:1058B000D1E90021CDE9002142F21071B0FBF1F2F3
:1058C00001FB12024FF47A71B2FBF1F29DF8023043
:1058D0001A448DF80220B0FBF1F201FB12026421A0
:1058E000B2FBF1F29DF803301A448DF80320B0FBAF
:1058F000F1F201FB12020A21B2FBF1F29DF8043031
:105900001A448DF80420B0FBF1F201FB12009DF85F
:1059100005106A4608448DF805001D210720FCF794
:10592000D8F81CBD503A303030305700322804D0FF
:1059300003A227213820FCF7CCB803A2F9E7000026
:1059400050453A373575730050453A353075730018
:1059500070B505463030C2B227215620FBF722FF32
:105960002D2227215C20FBF71DFF0948002400EBB6
:10597000C505622604EB440006EB40002A5DC0B278
:105980002721FBF70FFF641CE4B2082CF2D370BD93
:105990005C0000202DE9FF5F82460E981746084400
:1059A000884683461EE0039854465044814613E0DF
:1059B00017F8016B0025F007204604F10104E4B25A
:1059C00001D0012200E000224146FCF741F86D1CA5
:1059D0007608EDB2082DEED3A145E9D808F1010013
:1059E000C0B28046C345DED8BDE8FF9F3EB50CA1DE
:1059F0000446D1E90021CDE9012101AA022142207A
:105A0000FCF767F80820034600900CB1064A01E055
:105A1000054A083202215A20FFF7BCFF3EBD0000B4
:105A20005244533A000000005485000840B1012858
:105A300008D0022808D105A237215620FCF749B822
:105A400005A2F9E707A2F7E770470000322D414CA5
:105A50004C20534554200000302D414C4C204F46E3
:105A600046200000312D414C4C204F4E202000009C
:105A700008B51220012100904023024A0846FFF792
:105A800089FF08BD648500081CB517A1D1E9002174
:105A9000CDE900214FF47A71B0FBF1F201FB120263
:105AA0006421B2FBF1F29DF803301A448DF8032013
:105AB000B0FBF1F201FB12020A21B2FBF1F29DF8F8
:105AC00004301A448DF80420B0FBF1F201FB1200FF
:105AD0009DF805106A4608448DF805001D214E20EA
