:020000040800F2
:1000000000530020290300085F280008011D000894
:100010005D280008E110000861660008000000008B
:100020000000000000000000000000004102000885
:100030000F15000800000000D10200081D03000891
:100040004303000843030008430300085137000836
:100050004303000843030008430300084303000868
:100060004303000843030008430300084303000858
:100070004303000843030008430300084303000848
:100080004303000843030008430300084303000838
:100090004303000843030008430300084303000828
:1000A0004303000843030008430300084303000818
:1000B000430300087160000843030008430300087D
:1000C00043030008430300084303000843030008F8
:1000D0004303000811630008FD63000843030008A0
:1000E00043030008430300084303000800F002F83C
:1000F00000F065F80AA090E8000C82448344AAF15D
:100100000107DA4501D100F05AF8AFF2090EBAE85A
:100110000F0013F0010F18BFFB1A43F0010318473B
:10012000BC9F0000DC9F00000A444FF0000C10F858
:10013000013B13F0070408BF10F8014B1D1108BF65
:1001400010F8015B641E05D010F8016B641E01F805
:10015000016BF9D113F0080F1EBF10F8014BAD1C55
:100160000C1B09D16D1E58BF01F801CBFAD505E073
:1001700014F8016B01F8016B6D1EF9D59142D6D3CD
:10018000704700000023002400250026103A28BFF5
:1001900078C1FBD8520728BF30C148BF0B607047F9
:1001A0001FB508F0ACFF00F075FC04000020002132
:1001B00008F062FA401C60601FBD10B510BD00F071
:1001C00035FC1146FFF7ECFF06F076FD00F05CFC15
:1001D00003B4FFF7F2FF03BC00F0A6FC80F309882C
:1001E0007047684680F3098804480078C00714BF48
:1001F0000220032080F31488704700005493000805
:10020000DFF818C0EFF305831B0618BF6047EFF354
:100210001483DB0708BF604700DF7047257A0008BA
:10022000DFF818C0EFF305831B0618BF6047EFF334
:100230001483DB0708BF604700DF7047AD7C000810
:10024000EFF30980816931F8021C31F47F4128D134
:1002500090E80F10E047EFF3098C1A4B93E8060083
:10026000914219D00CB44FF0010300291FBF81F84F
:1002700021302CE9F00FC1F824C007F07FFF0CBC3F
:100280001A60D2F824C0BCE8F00F92F821308CF349
:1002900009881BB192F82000CCF800006FF0020E24
:1002A000704710B5084A1268914209D8074C54F8B3
:1002B000214090E80F10A047EFF3098C8CE80F0065
:1002C00010BD000004020020380B0008380B0008A5
:1002D00007F05EFE134B93E8060091421BD00CB46E
:1002E0004FF0000381F82130EFF3098C2CE9F00F77
:1002F000C1F824C007F042FF0CBC1A60D2F824C039
:10030000BCE8F00F8CF3098892F821301BB192F809
:100310002030CCF800306FF0020E704707F0D8FFA5
:10032000D8E7000004020020094880470948004738
:10033000FEE7FEE7FEE7FEE7FEE7FEE7FEE7FEE795
:10034000FEE7FEE704480549054A064B70470000F2
:10035000995F0008ED000008004D002000530020C8
:10036000004F0020004F0020004870479C4C0020A8
:100370000FB400B58DB010A9099000910B904FF00B
:10038000FF300A9000200C900648784406900648FA
:1003900078446A4607900F9909A800F015F90DB046
:1003A0005DF814FB5F020000770200002DE9FF5F9B
:1003B0001446994600273E4650689169DDF838A0FA
:1003C00083469068804601988847054659EA0A00A6
:1003D00005D009E0A1690198761C88470546216A85
:1003E000284688470028F5D1681C03D05FEACB7007
:1003F00005D016E04FF0FF3004B0BDE8F09F206854
:10040000011D216007680CE05FEACB7001D107F89D
:10041000015BA169A8F10100761C8046019888471C
:100420000546B8F1000F1ADD681C18D0B9F1000FAD
:100430000DD0E81705EBD060421120F01F0059F8ED
:1004400022102A1A012090400142DDD107E0BAF1C2
:10045000000FD9D12846216A88470028D4D0E16905
:10046000019888470BF0010050EA0A0000D138706B
:10047000A2686FF001004245BEDDBAF1000F02D064
:10048000B8F1000FB8D13046B6E7032A40F2308009
:1004900010F0030C00F0158011F8013BBCF1020FC5
:1004A000624498BF11F801CB00F8013B38BF11F846
:1004B000013BA2F1040298BF00F801CB38BF00F85D
:1004C000013B11F0030300F0B180083AC0F008804E
:1004D00051F8043B083A51F804CBA0E80810F5E7BE
:1004E000121D5CBF51F8043B40F8043BAFF30080A1
:1004F000D20724BF11F8013B11F801CB48BF11F816
:10050000012B24BF00F8013B00F801CB48BF00F8E5
:10051000012B704702F0FF0343EA032242EA024242
:1005200000F002B84FF000020429C0F0128010F071
:10053000030C00F01B80CCF1040CBCF1020F18BFBF
:1005400000F8012BA8BF20F8022BA1EB0C0100F052
:100550000DB85FEAC17C24BF00F8012B00F8012B25
:1005600048BF00F8012B70474FF0000200B513465A
:1005700094469646203922BFA0E80C50A0E80C50C3
:10058000B1F12001BFF4F7AF090728BFA0E80C5074
:1005900048BF0CC05DF804EB890028BF40F8042B6D
:1005A00008BF704748BF20F8022B11F0804F18BFDA
:1005B00000F8012B7047704770477047026811447C
:1005C00013780160184670470B461146054A7A4475
:1005D0004A61054A7A440A620022C1E9033200F006
:1005E00061B80000EBFFFFFFB9000000426842B1B4
:1005F000016811F8013B23B1521EC0E900121846F0
:1006000070470121C160881E7047416859B1C368B5
:10061000026843B98368934205D0521E491CC0E961
:100620000021002070474FF0FF30704710B5203A8E
:10063000C0F00B80B1E81850203AA0E81850B1E89B
:100640001850A0E81850BFF4F5AF5FEA027C24BF51
:10065000B1E81850A0E8185044BF18C918C0BDE848
:1006600010405FEA827C24BF51F8043B40F8043B11
:1006700008BF7047D20728BF31F8023B48BF11F8C6
:10068000012B28BF20F8023B48BF00F8012B704720
:1006900010B5044600F0F0F90068005D00F00100BC
:1006A00010BD00002DE9F34F0C4600208FB08246AC
:1006B0000120834600260D9001F10C000B90626929
:1006C0000B980121904705002DD0252D2CD0216AB3
:1006D0008847C0B162690B9801219047216A884719
:1006E0000028F7D16269411E0B98904700E0761C04
:1006F000A1690F988847216A88470028F7D1E169E6
:100700000F988847DBE7A1690F988847A8420746FA
:1007100001D1761CD3E7E1690F9888477F1C02D18D
:10072000BAF1000F72D04AE162690B9800273D468A
:10073000394690472A2804D162690B9801219047D5
:100740000125DFF8E48262690B9801219047A0F14E
:1007500030010A290DD2BBF1000F0AD04745E2DC77
:1007600007EB870100EB4107303FDCD445F0100573
:10077000E9E7E90601D46FF000476C280AD04C285D
:1007800014D0682815D06A280DD074281CD07A2877
:100790001AD01DE062690B98012190476C2802D0A5
:1007A00045F0040514E045F002050DE045F0200594
:1007B0000AE062690B9801219047682802D045F051
:1007C000080505E045F4006562690B980121904732
:1007D000C4E90157652842D019DC58287ED00CDCCA
:1007E00045283CD004DC252826D0412831D136E0EC
:1007F000462834D047282CD131E05B287BD06128B3
:100800002DD0632877D0642823D15EE022E06F28C2
:100810004CD008DC662822D0672820D0692826D052
:100820006E2816D12CE0702849D073286CD075281A
:100830004BD078280DD151E0A1690F988847252821
:1008400005463FF466AFE1690F9888476D1C3FF499
:1008500067AFB4E04FF0FF3011B0BDE8F08F0F99F3
:1008600023466A466FF00100AFF30080C8E045F010
:10087000400023464FF000026060A80735D43DE0F9
:10088000206800F1040121600068290501D5067087
:1008900015E7290701D5068011E7A90704D54FEA16
:1008A000E671C0E900610AE7066008E745F040002C
:1008B00023464FF008026060A80716D41EE040F6F9
:1008C0000E0125EA0100606016E045F04000234675
:1008D0004FF00A026060A80707D40FE045F040001F
:1008E0006060A80708D5234610220F996FF0010019
:1008F000AFF3008084E007E0102223460F996FF0E9
:100900000100AFF300807BE00021632889460F4699
:1009100088460B460C9102D05B2806D030E0E806F2
:1009200001D4C4F808B001272AE062690B980121BC
:1009300090475E2805D162690120814601460B98E7
:100940009047216981B3E168891E0C9168B32169E0
:1009500061B308F10100804662690B98012190475C
:100960005D28F3D1B9F1000F09D0002003A951F897
:100970002020D24341F82020401C0828F7DB03AB9D
:100980002069002860684FEA40702AD02246CDF8DE
:100990000080CDE901970C9B0F9900286FF00100B2
:1009A0002CDAAFF300802BE001E008E009E000233F
:1009B00003AA42F82130491C0829FADBC6E7504651
:1009C0004AE7C11700EBD16303A95A1123F01F03B3
:1009D00001EB8201C31A0A680BFA03F002430A60B2
:1009E000BAE7009722460F9900286FF0010002DA5B
:1009F000AFF3008004E0FFF7D9FC01E0AFF3008023
:100A0000002808DA4FF0FF31401C01D10D9800B9E1
:100A10005146084620E7E90702D10AF101018A465A
:100A2000064400200D904AE6CCCCCC0C7546FFF76E
:100A30009BFCAE4605006946534620F007008546FC
:100A400018B020B5FFF77EFCBDE820404FF000064F
:100A50004FF000074FF000084FF0000B21F00701A6
:100A6000AC46ACE8C009ACE8C009ACE8C009ACE8E9
:100A7000C0098D467047000010B500F00BF8001D4E
:100A800010BD00BFF57B00000446AFF30080204698
:100A9000FFF79EFB10B5FFF767FC203010BD10B5C7
:100AA00005F028FE001D10BD4FF0013C50F8042B4E
:100AB00051F8043B9A4221D1A2EB0C03934313EA71
:100AC000CC1317D150F8042B51F8043B9A4215D19E
:100AD000A2EB0C03934313EACC130BD150F8042B75
:100AE00051F8043B9A4209D1A2EB0C03934313EA59
:100AF000CC13DBD04FF00000704700BFD01A01BA12
:100B0000B1FA81F101F0180122FA01F0CB40C1F1F4
:100B10002001DBB2C0B2C01A2CFA01F3D11A914302
:100B200011EAC311E6D1704701491820ABBEFEE7B8
:100B300026000200704700000000000000298168C4
:100B400002D041F0010101E021F001018160704714
:100B50000029816802D041F4807101E021F48071A4
:100B60008160704708B57320ADF8000000208DF853
:100B700003006946014800F0B9FF08BD00080140C4
:100B8000014600208968490700D5012070470146C9
:100B900000208968090700D50120704710B5426818
:100BA0000E4B0C791A400B6842EA0422134343604F
:100BB00082680B4B1A40D1E9024323434C7942EA45
:100BC000440213438360C26A097C22F47002491E06
:100BD000C9B242EA0151C16210BD0000FFFEF0FF40
:100BE000FDF7F1FF70B5072609290AD9C568A1F1FB
:100BF0000A0404EB4404A640B543A3401D43C5606A
:100C000007E0056901EB4104A640B543A3401D433D
:100C100005611F23072A09D2446B521E02EB820290
:100C200093409C4391400C43446370BD0D2A09D20C
:100C3000046BD21F02EB820293409C4391400C4311
:100C4000046370BDC46A0D3A02EB820293409C4378
:100C500091400C43C46270BD816841F0080181601D
:100C600070470029816802D041F4A00101E021F41D
:100C7000A00181607047816841F004018160704784
:100C80001B4C4FF6FF750120DFF868C0A16D00DF37
:100C9000012229461046DFF860C000DF00231A4613
:100CA0000A211648DFF858C000DF002307461A461D
:100CB0000B211448DFF848C000DF06460220DFF8A9
:100CC00034C0A16D00DF012229460220DFF828C0D0
:100CD00000DF31460120DFF830C000DF3946012057
:100CE000DFF824C000DF3220DFF820C000DFCAE7D1
:100CF00018000020917B0008697C00081528000876
:100D00004D83000851100008057C0008897B00080D
:100D10000EB50FA0D0E9001280680091CDE9012046
:100D20000E4A002069460B5C1354401CC0B20928CF
:100D3000F9D30B490920012208700A4900200870E4
:100D40000949087040F22771084805F0F2FB0EBD12
:100D5000A20700FF0105000000000000D6430020AC
:100D6000720100207301002067010020003801405B
:100D7000F0B589B0114F00246D460020C4EBC401CA
:100D8000CB1904F001011A5C00EB0116401CC0B243
:100D9000AA550728F7D3E0070AD060084001C03001
:100DA0002022694600F008FE0520DFF814C000DFAD
:100DB000641CE4B2142CE0D309B0F0BDD8000020CC
:100DC000897B000870B58AB0114E00246D46E0079B
:100DD0000AD160084001C0302022694600F096FD2B
:100DE0000520DFF830C000DFC4EBC401002004F0B0
:100DF0000103314400EB0312AA5C0A54401CC0B248
:100E00000728F7D3641CE4B2142CE0D30AB070BDF9
:100E1000D8000020897B00084A4D40F27A3800262D
:100E2000688E298D884203D1A96C286D88427CD0B8
:100E3000687B002879D1687F00287DD1A87F0028B1
:100E40007AD1E87F002877D195F82000002873D167
:100E500095F8210000286FD1287B01286CD1A87A51
:100E6000002869D100242746A88C00F051FAA87BFD
:100E7000012804D1AC8C0AE0A87B012807D0688D3A
:100E8000298D884220D90A2C09D90A3C03E0688DB3
:100E9000E98CF6E70A34A4B2204600F039FA0A20B9
:100EA000DFF8A4C000DF7F1CFFB2B7F5967F07D83C
:100EB000288D698D401A801C042801D9687B30B1C7
:100EC000687B012832D014E04445E3D3E7E7687F2C
:100ED00078B9A87F68B9E87F58B995F8200040B97B
:100EE00095F8210028B9287B012802D1A87A00288A
:100EF000C2D0288D6886A86C2865AE73AC84687FE4
:100F0000012816D0A87F012813D0E87F012810D02F
:100F100095F8200001280CD095F82100012808D070
:100F2000287B30B1A87A012803D005E06E862E65B3
:100F3000E4E7002000F0ECF90520DFF80CC000DF4A
:100F40006EE7000018000020897B00080024DFF80D
:100F5000ECA0DFF8EC90DFF8EC802746264625462B
:100F60009AF8000008B1042416E02021364800F069
:100F70000BFE08B103240FE04FF48061484600F0F7
:100F800003FE30B14FF40061484600F0FDFD10B1A2
:100F900002E0022400E00124A6424BD0D8F84C0025
:100FA00008B96D1CADB2142D39D9A64212D2012C4C
:100FB00006D0022C07D0032C16D0042C07D116E043
:100FC0000021022001E00021042001F049FE002759
:100FD00026463D46A64222D9A7420BD0274640F6D8
:100FE000B831C8F84C101AE000210120EDE70021CB
:100FF0000320EAE7D8F84C0088B9012C06D0022C6F
:1010000007D0032C10D0042C07D110E000210220BF
:1010100001E00021042001F023FE264600250520E2
:10102000DFF828C000DF9BE700210120F3E7002163
:101030000320F0E700252946D3E70000A2010020A5
:101040000010014018000020000C0140897B0008BE
:10105000144C0421204600F09EFD0A20DFF848C011
:1010600000DF0421204600F098FD0A20DFF838C098
:1010700000DF0421204600F08EFD0A20DFF828C0A2
:1010800000DF0421204600F088FD01223C211046AB
:10109000DFF818C000DF0228DBD10020DFF810C025
:1010A00000DFD6E700140140897B0008697C000856
:1010B000DD83000810B5012001F066FFBDE8104097
:1010C000002001F061BF00000149085A704700008C
:1010D000006C0040014A115070470000006C004055
:1010E000FEE700002DE9F84F0121042001F034FF54
:1010F0000121480401F018FF0820ADF80000032684
:10110000DFF8D4B08DF8026004258DF803506946ED
:10111000584600F0EBFCADF8005018278DF803702E
:101120006946584600F0E2FC2C484FF41651002462
:1011300001608480C480048184814FF00C08DFF852
:10114000A090A0F80A800146484605F00BFA40F24C
:10115000255A01225146484605F0EBF9012240F29A
:101160002771484605F0E5F90121484605F0B8F930
:101170000121880301F0F0FE2802ADF800008DF88F
:1011800002608DF803506946584600F0AFFCE80154
:10119000ADF800008DF803706946584600F0A6FCD3
:1011A0000E484FF4E131503801608480C4800481DE
:1011B00084810C4CA0F80A800146204605F0D2F943
:1011C00001225146204605F0B4F90121204605F0E0
:1011D00087F9BDE8F88F000000080140DC400020DE
:1011E000004400400038014010B5072001F008FE1F
:1011F0000649487300F00800C8720A7B904202D08A
:101200000873012010BD002010BD00009C010020CB
:1012100010B500F0C5FC07F063FE05F0A7FB07F072
:101220003FFE0349C885BDE81040C0B204F094BB3E
:101230001800002010B500F0DFFC03494885BDE828
:10124000104004F0BDBB00001800002010B500F0F5
:1012500015FD03498885BDE81040C0B204F0C8BC44
:10126000180000200D4810B50188428811440288FA
:101270004088101A91FBF0F0002800DA404280B25A
:1012800005F04CFC0649C0B26328C87101D963203F
:10129000C871BDE81040C0B204F0DEBC304C002084
:1012A0001800002010B500F089FC07F019FE05F0C9
:1012B00073FC07F0F5FD0349C0B20872BDE81040A9
:1012C00004F0EABC18000020094810B5C08840F2BC
:1012D000253148434FF47A71B0FBF1F080B207F04A
:1012E000FFFD05F0A1FC07F0DBFD0249088610BDFB
:1012F000304C00201800002010B504460022104693
:1013000003E0A35C5840521CD2B28A42F9D310BD0C
:1013100070B51F4E04460821304600F03CFC4FEAF1
:1013200084504FEA1045002428044FF00201304653
:1013300002D500F032FC01E000F02DFC0421304623
:1013400000F02BFC00F040F86804050C0421304646
:1013500000F021FC00F038F8641CE4B20A2CE3D35E
:1013600000240421304600F018FC00F02DF8042180
:10137000304600F010FC00F027F8641CE4B2022CA8
:10138000EFD33046BDE87040082100F006BC0000F5
:101390000010014038B50121102001F0DDFD0E20C4
:1013A000ADF8000003208DF802001020054C8DF8E8
:1013B00003006946204600F099FB0421204600F016
:1013C000EAFB38BD001001400A20401EFDD27047E4
:1013D0000029016802D041F0010102E04FF6FE72DF
:1013E000114001607047000001684FF6FE72114025
:1013F00001600021016041608160C1603349334A6E
:101400000839904203D1486840F00F0006E02F4AA7
:101410001432904204D1486840F0F00048607047B0
:101420002A4A2832904203D1486840F47060F5E7B8
:10143000264A3C32904203D1486840F47040EDE7C0
:10144000224A5032904203D1486840F47020E5E7C8
:101450001E4A6432904203D1486840F47000DDE7D0
:101460001A4A7832904203D1486840F07060D5E75C
:10147000174A904204D1D1F8040440F00F0007E06D
:10148000134A1432904206D1D1F8040440F0F0001F
:10149000C1F8040470470E4A2832904204D1D1F8B2
:1014A000040440F47060F3E7094A3C32904204D1EE
:1014B000D1F8040440F47040EAE7054A5032904203
:1014C000E8D1D1F8040440F47020E1E708000240BC
:1014D0000804024030B5036847F6F07293430C6A83
:1014E0008A682243D1E904452C4322438C69224374
:1014F000CC6922434C6A22438C6A22431A4302601D
:10150000CA6842600A6882604968C16030BD70473D
:101510004FF47A7202E01146491EFDD1401EFAD204
:10152000704700002DE9F0478246A2F120000F46E7
:101530005B2800D37B22203AD0B2114900EB400057
:1015400001EB4000002580460AEB050018F8056015
:1015500000248146F00707EB040101D0012200E0DE
:101560000022484600F034F9641C7608E4B2082CE6
:10157000F0D36D1CEDB2062DE6D3BDE8F087000078
:10158000C49900082DE9F0478246A2F120000F46D9
:101590005B2800D37B22203AD0B2134900EB4000F5
:1015A00001EB4000002580460AEB050018F80560B5
:1015B00000248146F00707EB040101D0012200E07E
:1015C0000022484600F004F9641C7608E4B2072CB7
:1015D000F0D30122F91D484600F0FAF86D1CEDB277
:1015E000062DE1D3BDE8F087C499000810B500F0DE
:1015F00005F8BDE8104000F03DB9000010B500212D
:10160000084C0A4601EB4103002004EB83131A54F3
:10161000401CC0B2C028FAD3491CC9B20829F1D372
:1016200010BD0000F64300202DE9F04106460C46AF
:1016300017461D46DDF8188007E043463A46214626
:10164000304600F02FF9641CA4B2AC42F5D3BDE8DB
:10165000F0810000CA08074B02EB420203EB821242
:10166000105C01F0070201219140084000D00120E8
:1016700070470000F64300202DE9FE4F14468946CE
:1016800080460025A3EB09011A46A4EB080000B22E
:101690006B1E2E4609B2002803DD4FF001020092B6
:1016A00009E007D10C9B03B049464046BDE8F04F26
:1016B00000F00EB90093002903DD4FF00102019202
:1016C0000AE008D10C9B03B0224649464046BDE8DB
:1016D000F04F00F0E7B80193002800DA404200B272
:1016E0008346002900DA494208B282465946D3456A
:1016F00001DD0C4600E00446494640460C9A00F0E5
:1017000067F80027601C02901FE0494640460C9A8B
:1017100000F05EF805EB0B0005B206EB0A0006B21E
:10172000A54206DD281B009905B208EB010080B236
:101730008046A64206DD301B019906B209EB010086
:1017400080B281467F1C02983FB28742DDDDBDE852
:10175000FE8F2DE9F041174688461E46B84219D83B
:10176000B04517D8054613E044460DE0214628460B
:10177000FFF770FF08B1002200E001222146284651
:1017800000F026F8641CE4B2B442EFD96D1CEDB24F
:10179000BD42E9D9BDE8F08130B40B490B4C0022C1
:1017A00002EB4203002004EB831311F8015B1D548C
:1017B000401CC0B2C028F8D3521CD2B2042AEFD3C6
:1017C00030BC00F057B80000EC9B0008F643002046
:1017D00030B4C02819D2402917D2CC080C4D04EBE4
:1017E000440305EB831301F0070501210344A940DD
:1017F000002A1A7801D00A4300E08A431A70E1B245
:1018000030BCD2B2C0B200F065BF30BC704700003F
:10181000F64300202DE9F0411C46DDF8188006460D
:101820000F461546434600F03DF843462A462146FA
:10183000304600F037F8434622463946304600F03D
:1018400047F84346224639462846BDE8F04100F0B5
:101850003FB870B505460E46144606E0641C314696
:101860002846FFF75FFEAD1DEDB22278002AF5D1C4
:1018700070BD000070B50A4E0025002404EB440042
:1018800006EB80102146425D284600F023FF641CD1
:10189000E4B2082CF2D36D1CEDB2C02DEDD370BDB7
:1018A000F64300202DE9F041154604460F461E463A
:1018B000A84209D92546144606E032463946204654
:1018C000FFF786FF641CA4B2AC42F6D9BDE8F081F4
:1018D0002DE9F041154607461E460C46A94209D996
:1018E0000D46144606E0324621463846FFF770FFA3
:1018F000641CA4B2AC42F6D9BDE8F08102480121D3
:101900000170417081707047B60100202DE9F041EF
:101910000E461546040AC7B200F068FBA02000F08E
:101920001BFC00F04FFADFF8888088F80000C0BB8D
:10193000204600F011FC00F045FA444688F800000B
:1019400078BB384600F008FC00F03CFA207040BB41
:1019500000F04CFBA12000F0FFFB00F033FA2070F8
:10196000F8B90024134F6D1E14E000F099FA3055B9
:101970008021384600F00FF94021384600F00DF97B
:1019800004F077FE4021384600F005F904F071FEBE
:10199000641CA4B2AC42E8DB00F082FA305500F0DF
:1019A000CFFA00F06FFB98F80000BDE8F08100006E
:1019B00098010020000C01402DE9F041040AC0B25A
:1019C0000E461746804600F011FBA02000F0C4FB35
:1019D00000F0F8F9114D2870D0B9204600F0BCFB9A
:1019E00000F0F0F9287098B9404600F0B5FB00F01F
:1019F000E9F9287060B9002408E0305D00F0ACFB24
:101A000000F0E0F9287018B9641CA4B2BC42F4D309
:101A100000F038FB2878BDE8F08100009801002034
:101A2000014908607047000014040140034A014660
:101A3000002012680A4200D00120704714040140BF
:101A400030B51F4A8179036899B311460C6824EABE
:101A500003040C604B68046823EA04034B600479B8
:101A600004EB02031C68056844EA05041C608B68EB
:101A7000046823EA04038B60CB68046823EA040348
:101A8000CB604379A1F58061102B05D099180A68C5
:101A9000006802430A6030BD01F581610A6803688D
:101AA00042EA03020A604A68006842EA00024A60A9
:101AB00030BDFFE700791044016899430160F7E702
:101AC0000004014010B58A0721F003040649120FF3
:101AD00021440F238C6893409C438C608B6890401A
:101AE00003438B6010BD000000000140F0B5CC78CE
:101AF000002204F00F03E40601D58C7823430C8800
:101B00004FF00F0C14F0FF0F4FF0010E1AD00568C4
:101B10000E880EFA02F42640A6420FD196000CFA67
:101B200006F7BD4303FA06F63543CE78282E02D0D9
:101B3000482E02D002E0446100E00461521C082AF1
:101B4000E6D305600A88FF2A1DD94568002202F104
:101B500008060EFA06F40E882640A6420FD196001B
:101B60000CFA06F725EA070703FA06F5CE783D4397
:101B7000282E00D14461CE78482E00D10461521C39
:101B8000082AE4D34560F0BD0246002092680A426C
:101B900000D001207047416170470161704700002B
:101BA0000548008940F22531484347F23051B0FBE7
:101BB000F1F080B270470000304C00200D48808862
:101BC00040F2253148434FF47A71B0FBF1F040F216
:101BD000DC51884201D363207047B0F5FA7F07D308
:101BE000A0F5FA700A21B0FBF1F0C0B26428F3D37B
:101BF00000207047304C002070B51C48008840F22F
:101C0000253148434FF47A71B0FBF1F007F068F9E1
:101C100004F0F4FE07F044F9154D2864404306F043
:101C2000F8FE144C0022234606F06EFD00222346E7
:101C300006F06AFD06F036FD0446A86C41F28831D4
:101C4000B0FBF1F00C4901EB40000A2130F81C0C0C
:101C5000B0FBF1F007F044F9214607F089F90221C1
:101C600007F031FB07F01CF980B270BD304C00204A
:101C70001800002000408F406C93000870B51C488D
:101C8000408840F2253148434FF47A71B0FBF1F0BF
:101C900007F026F904F0FAFE07F002F9154D686422
:101CA000404306F0B6FE144C0022234606F02CFDFD
:101CB0000022234606F028FD06F0F4FC0446A86C3A
:101CC00041F28831B0FBF1F00C4901EB40000A21F0
:101CD00030F81C0CB0FBF1F007F002F9214607F0D8
:101CE00047F9022107F0EFFA07F0DAF880B270BD89
:101CF000304C00201800002000408F406C930008FA
:101D0000FEE70000F8B501246602ADF80060482047
:101D1000134D8DF8030069462846FFF7E7FE2702BA
:101D200039462846FFF739FF04F09BFC3146284628
:101D3000FFF72AFF00B9002439462846FFF72BFF9A
:101D400004F08FFCADF8006010208DF80300032034
:101D50008DF8020069462846FFF7C8FE2046F8BD08
:101D6000000C0140F8B50124E602ADF800604820FF
:101D7000134D8DF8030069462846FFF7B7FEA7020A
:101D800039462846FFF709FF04F06FFC3146284624
:101D9000FFF7FAFE00B9002439462846FFF7FBFE9C
:101DA00004F063FCADF8006010208DF80300032000
:101DB0008DF8020069462846FFF798FE2046F8BDD8
:101DC000000C0140F8B58026ADF800604820144DA5
:101DD0008DF80300012469462846FFF787FE40215D
:101DE0002846FFF7DAFE04F044FC80212846FFF77E
:101DF000CBFE00B9002440212846FFF7CCFE04F0BA
:101E000038FCADF8006010208DF8030003208DF839
:101E1000020069462846FFF769FE2046F8BD00002B
:101E2000000C01402DE9F8434FF40066ADF8006066
:101E300048201A4F8DF80300002469463846FFF702
:101E400055FEB04600253E463F156006040E394655
:101E50003046FFF7A2FE04F008FC41463046FFF78B
:101E600093FE012801D144F0010439463046FFF7C2
:101E700092FE04F0FAFB6D1CEDB2082DE5D3ADF82F
:101E8000008010208DF8030003208DF802006946C1
:101E90003046FFF72BFE2046BDE8F883000C0140DA
:101EA000F8B58027ADF800704820184E8DF8030073
:101EB000002469463046FFF719FE00256006040E2F
:101EC00040213046FFF769FE04F0D3FB8021304605
:101ED000FFF75AFE012801D144F0010440213046A9
:101EE000FFF759FE04F0C5FB6D1CEDB2082DE5D3DC
:101EF000ADF8007010208DF8030003208DF802006B
:101F000069463046FFF7F2FD2046F8BD000C01405F
:101F100070B50A4C4FF400612046FFF73EFE2515D0
:101F200029462046FFF739FE04F09FFB294620464C
:101F3000FFF731FEBDE8704004F097BB000C014094
:101F400010B5094C80212046FFF727FE402120468E
:101F5000FFF723FE04F08DFB40212046FFF71BFE18
:101F6000BDE8104004F085BB000C014070B50E4D7B
:101F70004FF4007421462846FFF70FFE66103146E5
:101F80002846FFF70AFE04F06CFB21462846FFF7BF
:101F900002FE04F066FB31462846FFF7FCFDBDE873
:101FA000704004F05EBB0000000C014070B50E4DA7
:101FB0004FF4006421462846FFF7EFFD66103146D6
:101FC0002846FFF7EAFD04F050FB21462846FFF7BC
:101FD000E2FD04F04AFB31462846FFF7DCFDBDE890
:101FE000704004F042BB0000000C014010B50C4CE6
:101FF00080212046FFF7D1FD40212046FFF7CDFD8F
:1020000004F037FB80212046FFF7C5FD04F031FBCB
:1020100040212046FFF7BFFDBDE8104004F029BB7A
:10202000000C014070B50A4D4FF40074214628465B
:10203000FFF7B1FD61102846FFF7AFFD04F011FB7B
:1020400021462846FFF7A9FDBDE8704004F009BB12
:10205000000C014070B50A4D4FF40064214628463B
:10206000FFF799FD61102846FFF797FD04F0FDFA90
:1020700021462846FFF791FDBDE8704004F0F5BA0F
:10208000000C014010B5094C80212046FFF783FD6C
:1020900040212046FFF781FD04F0EBFA8021204625
:1020A000FFF77BFDBDE8104004F0E3BA000C0140EF
:1020B0002DE9F0410824124F05464FF400786601DF
:1020C00028064146384602D5FFF767FD01E0FFF7D5
:1020D00062FD04F0C6FA31463846FFF75EFD04F0B3
:1020E000C0FA6806050E31463846FFF754FD04F085
:1020F000B8FA641E14F0FF04E2D1BDE8F0810000DC
:10210000000C01402DE9F0410824124F05464FF420
:102110000068E60128064146384602D5FFF73DFD36
:1021200001E0FFF738FD04F0A0FA31463846FFF72A
:1021300034FD04F09AFA6806050E31463846FFF77A
:102140002AFD04F092FA641E14F0FF04E2D1BDE807
:10215000F0810000000C014070B5114E05460824C6
:1021600028064FF08001304602D5FFF716FD01E04A
:10217000FFF711FD04F07DFA40213046FFF70DFD19
:1021800004F077FA6806050E40213046FFF703FD9C
:1021900004F06FFA641E14F0FF04E1D170BD00007A
:1021A000000C01400023064A06490748DFF81CC01E
:1021B00000DF0749DFF81CC04865002000DF000091
:1021C000603D002001200300316D00084D830008B0
:1021D00018000020DD83000810B50120FFF726FC61
:1021E000054CA178084305D00120FFF719FC002019
:1021F000A070012010BD00008001002010B5104C1F
:10220000E078012808D101210E48FFF7BDFC00212C
:1022100018B1A181E181E17010BDA089502801D2DF
:10222000401CA08180B25028F6D1E089401C80B2C9
:10223000E0811428F0D1E1810120A07010BD0000E0
:1022400080010020000C014070B54FF480552846F5
:10225000FFF7ECFB054C6179084305D02846FFF7F2
:10226000DFFB00206071012070BD000080010020B4
:1022700010B5104C2079012808D101030E48FFF752
:1022800083FC002118B121826182217110BD208A56
:10229000502801D2401C208280B25028F6D1608A9A
:1022A000401C80B260821428F0D1618201206071EC
:1022B00010BD000080010020000C014010B510206E
:1022C000FFF7B4FB002803D01020FFF7A9FB012083
:1022D00010BD10B50220FFF7A9FB002803D0022093
:1022E000FFF79EFB012010BD10B58020FFF79EFB7D
:1022F000002803D08020FFF793FB012010BD0000D1
:1023000010B52020FFF792FB054CA179084305D0BA
:102310002020FFF785FB0020A071012010BD0000E8
:102320008001002010B5104CE079012808D120214F
:102330000E48FFF729FC002118B1A182E182E1716A
:1023400010BDA08A502801D2401CA08280B2502823
:10235000F6D1E08A401C80B2E0821428F0D1E182FC
:102360000120A07110BD000080010020001001407C
:1023700010B50420FFF754FB0120FFF751FB4FF489
:102380008050FFF74DFB2020FFF74AFB0220FFF7AC
:1023900047FB1020FFF744FBBDE810408020FFF70B
:1023A0003FBB000010B50420FFF740FB054C6178EF
:1023B000084305D00420FFF733FB002060700120A4
:1023C00010BD00008001002010B5104C20780128BD
:1023D00008D104210E48FFF7D7FB002118B1218155
:1023E0006181217010BD2089502801D2401C2081BC
:1023F00080B25028F6D16089401C80B260811428D8
:10240000F0D161810120607010BD000080010020CA
:10241000000C0140FEB501213D2000F09DFD482447
:102420008DF8034041F227003A4DADF800006946AF
:102430002846FFF75BFB8DF8034041F63040364EEF
:10244000ADF8000069463046FFF750FB8020ADF83C
:10245000000069463148FFF749FB07210020FFF7DC
:1024600031FB00210120FFF72DFB01210846FFF77A
:1024700029FB02210120FFF725FB0C210120FFF79A
:1024800021FB04210220FFF71DFB05210220FFF79D
:1024900019FB00208DF808000C208DF809000120A0
:1024A0008DF80A0041F2B700019001A8FFF7C8FAC1
:1024B0004FF4C044ADF8004010208DF80300032015
:1024C0008DF8020069462846FFF710FB2146284692
:1024D000FFF761FB42F20100ADF8000069463046AB
:1024E000FFF704FB69143046FFF755FB0121304626
:1024F000FFF753FB0420ADF800001420084C8DF8C2
:10250000030069462046FFF7F1FA04212046FFF751
:1025100044FBFEBD000C01400010014000080140DA
:10252000001401404FF480510148FFF734BB000014
:102530000008014070B500250024002229462046ED
:1025400000F0C8F8641CE4B2C02CF6D36D1CEDB2E8
:10255000082DF1D370BD00002DE9F0410746064675
:102560001248884600EB0214A4F50074002514F804
:10257000012B4146304600F0ADF8761C6D1CEDB2E3
:10258000F6B2082DF3D308F10100C6B2002514F805
:10259000012B3146384600F09DF87F1C6D1CEDB2D2
:1025A000FFB2082DF3D3BDE8F0810000D4930008FA
:1025B00010B54FF400710C48FFF7EFFA0B4C4FF4D5
:1025C00080712046FFF7E9FAE1142046FFF7E5FAAB
:1025D0003E2004F053F83E2004F064F8BDE81040BB
:1025E0003E2004F073B800000010014000080140D4
:1025F00010B54FF400710C48FFF7CFFA0B4C4FF4B5
:1026000080712046FFF7C9FAE1142046FFF7C5FAAA
:102610003F2004F033F83F2004F044F8BDE81040B8
:102620003F2004F053B800000010014000080140B2
:1026300070B505460E46144606E0641C3146284631
:10264000FFF78AFF0835EDB22278002AF5D170BD78
:1026500038B501211C2000F07FFC4FF47070ADF8FC
:10266000000010208DF8030003248DF80240694615
:102670001548FFF73BFA4FF41060144DADF8000019
:1026800069462846FFF732FA4FF40041ADF80010D2
:1026900069460F48FFF72AFAA814ADF80000142085
:1026A0008DF803008DF8024069462846FFF71EFAB0
:1026B000FFF77EFFFFF73EFFFFF79AFFBDE83840C8
:1026C000002000F063B80000001001400008014045
:1026D000000C01402DE9F04706460D4692460729B9
:1026E0004CD8274C274FB0094FF400714FF4807835
:1026F0004FF400692ED0012834D002283ED138464C
:10270000FFF74BFA41462046FFF747FA4946204675
:10271000FFF741FA06F03F00403000F05DF8B835B1
:10272000E8B200F059F8544672B64FF4004116482A
:10273000FFF733FA204601F0D5FE40213846FFF777
:102740002CFA40213846FFF726FA62B6BDE8F0477A
:1027500004F008B93846FFF71EFA41462046FFF755
:102760001CFA06E03846FFF718FA41462046FFF704
:1027700012FA49462046FFF710FACBE7BDE8F0878A
:102780000008014000100140000C014070B50446F3
:1027900040281BD24FF400710D48FFF7FEF90D4D94
:1027A0004FF480712846FFF7F8F9E9142846FFF73F
:1027B000F4F9C034E0B2044603F060FF204603F0B1
:1027C00071FF2046BDE8704003F080BF70BD00007F
:1027D000001001400008014010B5044672B64FF4E5
:1027E00000410A48FFF7D7F9204601F07BFE084C6C
:1027F00040212046FFF7D1F940212046FFF7CBF9D1
:1028000062B6BDE8104004F0ADB80000000C014015
:10281000001001400D4D4FF4804421462846FFF73B
:10282000BCF90A20DFF828C000DF21462846FFF760
:10283000B2F901220A211046DFF818C000DF022891
:10284000EBD10020DFF810C000DFE6E7000C01400C
:10285000897B0008697C0008DD830008FEE770477B
:10286000F8B54FF4E06000F061F826208DF8000024
:1028700004208DF8020001248DF80340684600F022
:1028800027F825208DF8000000258DF802508DF8DE
:1028900001408DF80340684600F01AF803208DF8D7
:1028A00000008DF8015002268DF802608DF803407B
:1028B000684600F00DF81D208DF800008DF80150DD
:1028C0008DF802608DF80340684600F001F8F8BD0D
:1028D00070B50F24C27801784FF0E0230126E2B1F1
:1028E000D3F80C2D194402F4E062C2F5E062120A3A
:1028F000C2F10405D4404278AA40857825401543AA
:102900002A0181F80024007800F01F018E40400960
:1029100003EB8000C0F8006170BD01F01F0086402D
:10292000480903EB8000C0F8806170BD024908438C
:1029300002490860704700000000FA050CED00E055
:102940000EB500200124DFF8E480394E01904FF6E7
:10295000FF770825029098F80B100029FBD198F812
:102960001200002846D0012439463248DFF8C8C09A
:1029700000DFFEF77FFF30784FF00803009510B1BD
:102980002E4A012101E02E4A0A21B52003F0A6F8C3
:102990002848DFF8B0C000DF3220DFF8ACC000DF2D
:1029A00039462448DFF890C000DFFEF763FF307837
:1029B0004FF0080301AA009540B10121B52003F0B2
:1029C0008DF808231E4A0A21009507E00B21B52047
:1029D00003F084F80823194A01210095B52003F07B
:1029E0007DF81448DFF85CC000DF3220DFF858C003
:1029F00000DFB0E7002CAED039460E48DFF838C013
:102A000000DF002408230E4A0A21B520009503F0B8
:102A100065F80823094A0121B520009503F05EF806
:102A20000448DFF820C000DF95E700001800002010
:102A3000A201002080400020297F000864A0000837
:102A40005CA000087D7E0008897B00082DE9F0412C
:102A5000244A61277326537C947C002102F15C0593
:102A600006281FD2DFE800F01E030C1533362F7046
:102A70006E70D06B0078A870106C0078E8702EE053
:102A8000672028706E70AB70EC70D07C2871697113
:102A900008E0742028706E70AB70EC70107D2871A7
:102AA000507D68710F48A9715C3000F0F5FAE8714B
:102AB000002404F10800295DC0B200F0C9F9641CCB
:102AC000E4B2082CF5D3BDE8F04105F097BD2F70B6
:102AD0006F2001E02F7063206870A970E970297180
:102AE000D5E700009C010020F0B589B0104F00240C
:102AF0006D46002007EBC40304F001011A5C00EBF3
:102B00000116401CC0B2AA550828F7D3E00709D027
:102B10006008400120226946FEF74EFF0520DFF8DD
:102B200014C000DF641CE4B20A2CE2D309B0F0BD8B
:102B300088000020897B000870B58AB0104E002400
:102B40006D46E00709D16008400120226946FEF782
:102B5000DDFE0520DFF82CC000DF002004F00103BB
:102B600006EBC40100EB0312AA5C0A54401CC0B27D
:102B70000828F7D3641CE4B20A2CE2D30AB070BD73
:102B800088000020897B00083EB511A0D0E9001024
:102B9000CDE901100121082000F0DEF94FF4407466
:102BA000ADF8004003208DF8020010200A4D8DF88A
:102BB000030069462846FEF799FF21462846FEF79E
:102BC000ECFF062101A800F00BF8044908703EBD97
:102BD0005CC0E0006F7F0000000C01407C01002021
:102BE0002DE9F04106460F46FFF7C0F98820FFF7B0
:102BF0005FFAFFF787F805000CD1002408E0305D8C
:102C0000FFF756FAFFF77EF8050003D1641CE4B223
:102C1000BC42F4D3FFF706FA2846BDE8F08170B550
:102C20000546FFF7A3F98820FFF742FAFFF76AF895
:102C3000040005D12846FFF73BFAFFF763F8044686
:102C4000FFF7F0F9204670BD10B500F00F0040F01E
:102C50006000FFF7E4FF0149087010BD7C0100200F
:102C600010B5402251B1012909D0022902D003290F
:102C700007D101E0482202E0502200E05C22042853
:102C800001D9012010BD401E0243D0B2FFF7C7FF9B
:102C90000149087010BD00007C01002010B500F053
:102CA0000F0040F07000FFF7BAFF0149087010BD37
:102CB0007C01002010B5202801D9012010BDC0F1F1
:102CC0002000C0B2FFF7ABFF0149087010BD000043
:102CD0007C010020014908627047000000000E429C
:102CE0002DE9F047DFF844A080468946002505EB32
:102CF000450000EBC5000AEB400605EB450000244B
:102D000009EB800704EB440308EB4300325DF9B2A2
:102D1000C0B2FEF707FC641CE4B2162CF2D36D1CA3
:102D2000EDB2042DE3D3BDE8F08700007C930008EA
:102D300000224EF66023002101E0491C89B2814245
:102D4000FBD3521C92B29A42F5D3704738B5012199
:102D5000082000F001F94FF44C60ADF80000142099
:102D60008DF803000320254C8DF8020069462046AB
:102D7000FEF7BCFEC0212046FEF70FFF8121002098
:102D800000F066F86420FFF7D3FF3F21032000F036
:102D90005FF85121042000F05BF84022114600202A
:102DA00000F0A0F800214022084600F09BF86420C3
:102DB000FFF7BEFFE421182000F04AF8F0211B20A5
:102DC00000F046F8C821112000F042F840211F20F1
:102DD00000F03EF8012000F07AF8B921022000F05E
:102DE00037F82221002000F033F8002000F066F8C8
:102DF000BDE838406420FFF79BBF0000000C014095
:102E000070B506460025FFF7D1F85820FFF77AF98C
:102E1000FEF7A8FF0D4C2070A0B93046FFF772F9FD
:102E2000FEF7A0FF207068B9FFF7C0F85920FFF740
:102E300069F9FEF797FF207020B9FEF7F3FF05460A
:102E4000FFF766F8FFF706F9284670BD7D01002000
:102E500070B506460D46FFF7A9F85820FFF752F95E
:102E6000FEF780FF094C207060B93046FFF74AF941
:102E7000FEF778FF207028B92846FFF743F9FEF7E0
:102E800071FF2070BDE87040FFF7E4B87D010020BD
:102E900070B50546010A074C07480322A17001706E
:102EA000002000F01FF8E9B2A170BDE870400120D9
:102EB000FFF7CEBF7D010020000200204FF010027E
:102EC00008B1102100E00021002000F00BB818B17B
:102ED000A0211220FFF7BCBF80220021122000F0A9
:102EE00001B8000070B50E4614460546FFF788FF8E
:102EF000E143C9B20840054A06EA040101435170A2
:102F00002846BDE87040FFF7A3BF00007D01002008
:102F1000044A0029516901D0014300E08143516115
:102F20007047000000100240044A0029D16901D016
:102F3000014300E08143D16170470000001002406E
:102F4000044A0029116901D0014300E08143116165
:102F50007047000000100240044A0029916901D026
:102F6000014300E08143916170470000001002407E
:102F7000044A0029D16801D0014300E08143D160B7
:102F800070470000001002400149086070470000CF
:102F900040044242214A10B55168214B11F00C0106
:102FA00003D0042901D0082901D0036012E0516840
:102FB000536801F470114FF0020413F4803F04EBE6
:102FC000914102D053689B0301D5164B00E0144B8E
:102FD000594301605168144B01F0F00109095C5C30
:102FE0000168E1404160546804F4E064240A1C5D17
:102FF00021FA04F48460546804F46054E40A1B5D0C
:10300000D940C1605268084B02F44042920B1B1F2A
:103010009A5CB1FBF2F1016110BD000000100240AA
:1030200000127A0000093D00040000200346002041
:103030005909094A01290AD002290AD0516A03F024
:103040001F02012393400B4200D0012070471168FA
:10305000F5E7116AF3E7000000100240064900227C
:103060000A7001F82029012802D0042802D1052085
:1030700081F82000704700002010024001490860DC
:10308000704700003C04424202490A6A02430A6255
:103090007047000000100240024600210846535CC1
:1030A000491C5840C9B20729F9D370472DE9F041AE
:1030B0008AB0DFF8548000246D4600EB4006002003
:1030C00008EB041304F001011A5C00EB0117401C2B
:1030D000C0B2EA551028F7D3E0070ED060084001CF
:1030E00000EBC61000F5087080B220226946FEF79A
:1030F00063FC0520DFF814C000DF641CE4B2182C68
:10310000DDD30AB0BDE8F081EC400020897B0008E7
:10311000F0B589B0144F002400EB40066D46E0077F
:103120000ED16008400100EBC61000F5087080B2B7
:1031300020226946FEF7EAFB0520DFF830C000DFF9
:10314000002004F0010307EB041100EB0312AA5C5A
:103150000A54401CC0B21028F7D3641CE4B2182CE7
:10316000DDD309B0F0BD0000EC400020897B0008F1
:10317000FEF7C4FB05F064FA03F0F2FAFFF7DCFC9B
:10318000FDF720FE04F030FC13480078FFF7C0FF85
:10319000134C1248DFF84CC06065A0F5E27000DF08
:1031A00000231A4601211048DFF840C000DF002349
:1031B00060631A4601210E48DFF830C000DF0023AB
:1031C000A0631A4601210B48DFF820C000DF20630E
:1031D0000020DFF824C000DF28000020E04B0020A2
:1031E0009C0100206D7E0008FD3100084D83000821
:1031F0006133000875360008DD8300081849002097
:10320000184C0860207A10B1012820D022E0E07824
:1032100006281FD2DFE800F0030F11131517FDF782
:10322000E3FF012816D1607910B100F01FF811E01A
:1032300000F042F90EE0012006E0022004E0032045
:1032400002E0042000E0052000F0AEF802E0207962
:10325000FFF7FCFB0220DFF810C000DFD2E7000020
:10326000780100209C010020897B000870B50E4D7C
:10327000002028706870A870E87028716871A871C3
:103280002846FFF709FFE871002404F10800295DD2
:10329000C0B2FFF7DDFD641CE4B2082CF5D3BDE835
:1032A000704005F0ABB90000F80100202DE9FC41A9
:1032B0000027009774208DF80000274E0120019709
:1032C0008DF8010096F8220096F82010234D08444E
:1032D0008DF80200A86A0178D1B1696A11F8012B52
:1032E0008DF803206962027892B111F8012B8DF8F4
:1032F0000420696202785AB111F8012B8DF805207B
:103300006962007820B111F8010B8DF8060069623E
:103310006846FFF7C1FE8DF807000024E84604F177
:10332000080018F80410C0B2FFF792FD641CE4B264
:10333000082CF4D305F062F916F8200F401CC0B237
:103340003070F178A6F12006884202D16E6286F8CC
:103350002070BDE8FC810000F84900209C0100209D
:103360000F4D002468790028FCD1641CE4B2012CC4
:1033700007D0022C0CD000240220DFF828C000DF88
:10338000F0E7FDF731FF0128F6D100F069F8F3E727
:10339000FDF72AFF0128EFD1FFF788FFECE70000D7
:1033A0009C010020897B000870B50446FDF71CFFD6
:1033B000002851D0294A61237320002102F15C05C5
:1033C000062C2AD2DFE804F029030C1A3E412B70A8
:1033D0006870D06B0078A870106C0078E87039E0E5
:1033E00067232B706870D06B0078A870506C0078E1
:1033F000E870906C0078287169710EE074232B706E
:103400006870D06B0078A870506C0078E870D06C51
:1034100000782871106D007868711048A9715C30CF
:10342000FFF73AFEE871002404F10800295DC0B2FC
:10343000FFF70EFD641CE4B2082CF5D3BDE8704024
:1034400005F0DCB82B706F2001E02B7063206870F2
:10345000A970E9702971CFE770BD00009C010020C0
:103460007CB50020009070218DF80010114901906A
:1034700009788DF801108DF804008DF802008DF8A0
:1034800005008DF803008DF806006846FFF704FE7E
:103490008DF8070000246D4604F10800295DC0B2D4
:1034A000FFF7D6FC641CE4B2082CF5D305F0A6F8AF
:1034B0007CBD0000270000202DE9F047404B002193
:1034C0008AB09A7A08460A2A00D998723C4A8246FB
:1034D00058323C4C107050709070D0709E7A002022
:1034E000994604EB06176D4601F00108062300EB30
:1034F0000814395C295503280AD8C0F1000C03EBE5
:103500004C0492F800C001FA04F444EA0C0414706C
:10351000041F032C0AD8C0F1040C03EB4C0492F8EE
:1035200001C001FA04F444EA0C045470A0F1080448
:10353000032C0AD8C0F1080C03EB4C0492F802C02B
:1035400001FA04F444EA0C049470A0F10C04032C76
:1035500007D8C0F10C0403EB4404A140D478214304
:10356000D170401CC0B21028C1D3154C53205C341C
:103570004D462070144800786070A6701078E07096
:103580005078207190786071D078A0712046FFF754
:1035900083FDE071002606F10800A15DC0B2FFF7CF
:1035A00057FC761CF6B2082EF5D305F027F807492C
:1035B000C1F800A0A87A401CA8720AB0BDE8F08744
:1035C0009C010020EC400020280000207801002011
:1035D0002DE9FC410026009677208DF80000234D50
:1035E000012001968DF80100E87BA97808448DF848
:1035F0000200A86A0178A9B18DF80310401CA862E6
:10360000017879B18DF80410401CA862017849B1A5
:103610008DF80510401CA862017819B18DF80610CC
:10362000401CA8626846FFF737FD8DF807000024AC
:103630006F4604F10800395DC0B2FFF709FC641C55
:10364000E4B2082CF5D304F0D9FFA878401CC0B22E
:10365000A870297C884207D1687808B1044801E045
:1036600003482038A862AE70BDE8FC819C010020B0
:10367000484A0020064C607928B9FDF7B5FD0128BD
:1036800001D1FFF7A5FF0220DFF808C000DFF2E755
:103690009C010020897B000802490A8822EA000276
:1036A0000A8070470428004010B501214FF0C05037
:1036B000FFF73AFC0120FFF70DFBFDF7FBFC0120B3
:1036C000FFF7CCFC4120FFF7B1FC0028FAD04FF403
:1036D0008070FFF7D9FC0120FFF7D0FC00F0B0F8B4
:1036E00000F0A6F80121084600F076F800F0A0F8F6
:1036F00047F6FF7000F08CF8BDE8104000F098B875
:103700000248018841F01001018070470428004000
:103710000248018821F01001018070470428004010
:1037200002498888098840EA01407047182800400B
:10373000064A9188128801EA0001C9B2024202D009
:1037400009B10120704700207047000000280040A8
:1037500010B50120FFF7ECFF00B30120FFF79CFF3D
:1037600000F066F8FFF7DCFF1549884204D300201B
:1037700000F040F800F05CF812490120087012498E
:103780000888401C80B20880782807D9002008806B
:103790000E4908700E4908700E4908700220FFF7A4
:1037A000C7FF10B10220FFF777FF0420FFF7C0FF2B
:1037B000002804D0BDE810400420FFF76DBF10BD05
:1037C00080510100330000206A0100202A000020FF
:1037D000A0010020A4010020054A0029B2F8001829
:1037E00001D0014300E08143A2F8001870470000B7
:1037F0000020004000B50246FFF782FF0348110C8D
:10380000018082805DF804EBFFF782BF182800403A
:1038100000B50246FFF774FF0448C2F3034101807C
:1038200082805DF804EBFFF773BF000008280040BA
:103830000248B0F804188906FBD570470020004004
:103840000548B0F8041821F00801A0F80418B0F8F1
:1038500004180907FBD570470020004070B51249D5
:10386000124E134D8879707200EBC00202EB00100B
:10387000002428441922C91DFCF707FE707A0E287F
:1038800010D10C4E0021002006EB01122B5D1354C9
:10389000641C401CC0B2A4B20F28F7D3491CC9B2A3
:1038A0001829F0D370BD00009C4000209C0100202E
:1038B000684A0020EC40002010B50F4C2021206AFF
:1038C000FCF730FE0D4801780F2901D90F21017056
:1038D000CAB2D21F0A49206AFCF7D7FD206A082124
:1038E00080F82110002100F120000222C2704FF068
:1038F00020028270017010BD9C0100206E0100202A
:10390000A140002070B520210D48FCF72DFE0D4C84
:103910000D490B4822781546D21FFCF7B6FD0B4A1D
:10392000ED1FE8B2907300212170810700D00121C2
:1039300001EB900010740001D0730120507070BD35
:10394000484A00206E010020A14000209C01002078
:103950002DE9FC5F002001248146834602F064FECD
:10396000F94881788DF8061041788DF805100078B7
:103970008DF80400FEF7FCFC00253F23BE22272122
:1039800001200095FDF750FEF0A227210120FDF750
:1039900060FFF3A22F211420FDF75BFFF5A2372172
:1039A0001420FDF756FFDFF8E0A30A27E64E4FF498
:1039B0007A70383E2F21F0663220B0867078B0FBE6
:1039C000F7F03030C2B22C20FDF7ACFD7078B0FBC0
:1039D000F7F107FB110230322F213220FDF7A2FD53
:1039E000307932287ED037222F214A20FDF79AFDE8
:1039F00035222F215020FDF795FDD3483838C67861
:103A0000072E02D9C6F11700C6B2B6FBF7F0804602
:103A10003030C2B22F217420FDF784FD07FB1862FD
:103A200030322F217A20FDF77DFDC748383886785F
:103A3000072E02D9C6F11700C6B2B6FBF7F08046D2
:103A40003030C2B237217420FDF76CFD07FB1862DD
:103A5000303237217A20FDF765FD9DF804003721CB
:103A6000B0FBF7F03030C2B23220FDF75BFD9DF8BD
:103A70000400B0FBF7F107FB110230323721382088
:103A8000FDF750FD9DF805003721B0FBF7F0303011
:103A9000C2B24420FDF746FD9DF80500B0FBF7F1EA
:103AA00007FB1102303237214A20FDF73BFD9DF81C
:103AB00006003721B0FBF7F03030C2B25620FDF7D8
:103AC00031FD9DF80600B0FBF7F107FB1102303223
:103AD00037215C20FDF726FD082C17D0ABA237213B
:103AE000A02000E00BE0FDF7B4FEDFF85C82A8F157
:103AF0003808464698F81B00012809D00EE0352208
:103B00002F214A20FDF70EFD302272E7A1A2E6E741
:103B1000F57602F089FD8C4802F008F9FEF794FB77
:103B2000012818D0FEF7ECFB01281BD0FEF73AFC69
:103B300001281DD0FEF750FB01285CD0FEF7C9FB21
:103B4000012872D0FEF7BAFB01286FD0B08EB046C4
:103B500000286CD0C8E1641E14F0FF047FF426AF87
:103B6000082423E7641CE4B2082CFAD901241DE7D9
:103B70008A490120082C0870F3D2DFE804F004051C
:103B8000591517222D3A11E798F8010046462028CA
:103B900043D2401C40E04B2100E0322188F8041061
:103BA000DAF80000417301E7012147E09DF80400C5
:103BB000401CC0B28DF80400172817D98DF80450A6
:103BC00014E09DF80500401CC0B28DF805003B28AC
:103BD0000CD98DF8055009E09DF80600401CC0B2D4
:103BE0008DF806003B2801D98DF806500120834648
:103BF000DCE6012155E06A490120082C0870B0D2AA
:103C0000DFE804F00405161B2A36424ECEE698F88B
:103C10000100464608B1401E7070C0B2FFF74AF876
:103C2000DAF8000071784171C0E648E061E154E0E3
:103C300098F804103229B0D1ADE700214248353858
:103C400002F0D2F9464698F80300FFF727F8DAF8B1
:103C50000000F178C171A9E69DF80400401EC0B2D1
:103C60008DF8040018288ED917208DF804009DE6E1
:103C70009DF80500401EC0B28DF805003C2892D981
:103C80003B208DF8050091E69DF80600401EC0B26D
:103C90008DF806003C2886D93B208DF8060085E685
:103CA00000212948363802F09FF9464698F802006C
:103CB000FEF7CAFFDAF80000B178017276E600F08C
:103CC00097FBBBF1010F02D101A800F009FDFEF73F
:103CD00000FB0128FBD0BDE8FC9F32204646A8F837
:103CE0003400B9F1000F63D000208146082C12D2B5
:103CF000DFE804F0FA040A12171D2358362337228E
:103D00002F212C20009504E0362355222F214A2014
:103D10000095FDF789FCE7E036237F222F210095EF
:103D200044E03F233D22372132200095F1E73F2335
:103D30004F22372144200095EBE73F2361223721B2
:103D400056200095E5E70000500000205345542020
:103D5000417564696F20414E442054696D650000CF
:103D6000564F4C3A2D2D50453A2D2D757320483A1B
:103D70002D2D000054696D65202D2D3A2D2D3A2DE5
:103D80002D20423A2D2D0000F001002020457869B9
:103D9000740000003E457869740000008001002036
:103DA000830100203F237F22372100957420B0E754
:103DB00001208146082C7ED2DFE804F09604162A02
:103DC000576B814070782F21B0FBF7F03030C2B2D2
:103DD0002C20FDF7A7FB7078B0FBF7F107FB110271
:103DE00030322F2132207DE098F80400322808D0AC
:103DF00037222F214A20FDF795FB35222F21502015
:103E000070E035222F214A20FDF78CFB3022F5E7A8
:103E100098F80360072E02D9C6F11700C6B2B6FBA8
:103E2000F7F000903030C2B22F217420FDF77AFBFA
:103E3000009807FB106230322F2114E098F80260DE
:103E4000072E02D9C6F11700C6B2B6FBF7F00090F4
:103E50003030C2B237217420FDF764FB009807FBB5
:103E60001062303237217A203CE09DF8040037217F
:103E7000B0FBF7F03030C2B23220FDF753FB9DF8B3
:103E80000400B0FBF7F107FB110230323721382074
:103E900028E09DF805003721B0FBF7F03030C2B2C2
:103EA0004420FDF73FFB9DF80500B0FBF7F107FB51
:103EB0001102303200E017E037214A2012E09DF86D
:103EC00006003721B0FBF7F03030C2B25620FDF7C4
:103ED00029FB9DF80600B0FBF7F107FB1102303219
:103EE00037215C20FDF71EFBD8F86C0000287FF41A
:103EF00000AE00F07DFAEEE62DE9F84F0025012432
:103F00002E46FEF735FA002000903F23BE222721DF
:103F10000120FDF789FB70A227210120FDF799FC04
:103F200072A22F211420FDF794FC76A237211420D1
:103F3000FDF78FFCDFF8DC91DFF8DCA1774FA346BB
:103F40004FF032084FF47A70F866A7F83480B86CF6
:103F500000F048FB388D00F08BFB022C07D02022AC
:103F60002F218C20FDF7DEFA042C0ED004E03E2237
:103F70002F218C20FDF7D6FA69A23721A020FDF76A
:103F800068FCF87E012802D009E067A2F5E700206E
:103F9000F87602F049FB6148383001F0C7FEFEF7C1
:103FA00053F9012814D0FEF7ABF9012816D0FEF71B
:103FB000F9F9012818D0FEF70FF901282BD0FEF7E8
:103FC0007DF9012856D0FEF784F9012843D046E058
:103FD000641E14F0FF04B5D10424B3E7641CE4B2FA
:103FE000042CAFD90124ADE75149012C81F800B070
:103FF00008D0022CA6D0032CA4D1388D9628A1D2AB
:10400000401C14E0B86C4B4A64303946B8649042A6
:104010001BD9494818E08AF800B0012C0CD0022CBA
:1040200090D0032C8ED1388D00288BD0401E38853F
:10403000D9F80010087185E7B86C3F4A64383946F2
:10404000B864904201D23B4888640146D9F8000028
:104050000125016076E700F0CBF9042C04D0F86E5E
:1040600040B1B88E50B125E0FEF733F90128FBD0FE
:10407000BDE8F88FBDE8F84F00F0BAB9A7F8348072
:104080005EB10026012C02D0032C13D102E000F017
:1040900095FA0FE000F09CFA0CE00126012C02D00A
:1040A000032C07D103E0B86C00F09CFA02E0388DD5
:1040B00000F0DEFA012D7FF464AF9AF800000028CA
:1040C000F9D11D49B86C49420144B1FBF8F0002513
:1040D00080B2FEF7DDFE54E753455420464D2041A3
:1040E0004E4420524620504F57455200464D3A20EC
:1040F000202020204D487A204175746F5365743A12
:1041000020000000524620504F5745523A202020B0
:1041100020570000F001002083010020180000203B
:1041200020457869740000003E45786974000000FD
:1041300080010020E0A50100E02801002DE9F84FF2
:1041400001240025FEF714F94FF000093F23BE2299
:1041500027210120CDF80090FDF766FA90A22721D3
:104160000120FDF776FB93A22F211420FDF771FBB0
:10417000082003460090924A2F215C2001F0AEFCFB
:1041800090A237211420FDF764FBDFF844A2DFF88A
:1041900044824FF0320B0A274FF47A70C8F86C0053
:1041A000A8F834B098F805004646B0FBF7F0303078
:1041B000C2B22F215020FDF7B5F97079B0FBF7F1AD
:1041C00007FB110230322F215620FDF7ABF9B079F1
:1041D0003721B0FBF7F03030C2B24A20FDF7A2F928
:1041E0002E2237215020FDF79DF9B079B0FBF7F171
:1041F00007FB1102303237215620FDF793F9032CCB
:1042000008D075A23721A020FDF723FBF07E0128FE
:1042100002D009E072A2F5E786F81B9002F004FADA
:104220006C48383001F082FDFEF70EF8012810D0FE
:10423000FEF766F8012812D0FEF7B4F8012814D072
:10424000FDF7CAFF012827D0FEF743F8012844D024
:1042500047E0641E14F0FF049ED103249CE7641C15
:10426000E4B2032C98D9012496E75F490120012C80
:10427000087009D0022C8FD1B079401CC0B2B07147
:104280001E2818D9142015E07079401CC0B2707136
:1042900050281DD93C201AE054490120012C0870F7
:1042A0000ED0022CDAD1B079401EC0B2B071142801
:1042B00001D21E20B071C1B2DAF8000081726BE742
:1042C0007079401EC0B270713C2801D250207071CC
:1042D000C1B2DAF8000041725EE700F089F8032C01
:1042E00006D0FDF7EBFF012855D0B08E30B14EE07F
:1042F000FDF7EFFF0128FBD0BDE8F88FA6F834B03A
:10430000012D05D00125012C18D0022C3FD126E02B
:104310000025012C02D0022C39D106E036235B2285
:104320002F215020CDF8009005E03F235B2237215C
:104330004A20CDF80090FDF777F928E070792F2119
:10434000B0FBF7F03030C2B25020FDF7EBF87079D7
:10435000B0FBF7F107FB110230322F2114E0B079E6
:104360003721B0FBF7F03030C2B24A20FDF7DAF85F
:104370002E2237215020FDF7D5F8B079B0FBF7F1A8
:1043800007FB1102303237215620FDF7CBF8F06ED3
:1043900000287FF43BAFBDE8F84F00F029B80000DB
:1043A0005345542054656D7020414E44205357525C
:1043B00000000000484947482054454D503A00004D
:1043C000EC9E000848494748205357523A000000E5
:1043D000F0010020180000202045786974000000DA
:1043E0003E457869740000008001002083010020B0
:1043F0000F2202494FF40070FDF7DEBAE04B0020B7
:1044000010B50F2229494FF40070FDF77FFA2749B4
:10441000274A284B086810601844B0F5FA4F01D9B4
:1044200025481060254A48791070202801D920209D
:104430001070234BC879072218700F2800D91A7002
:10444000204B087A18700F2800D91A701E4A087974
:104450001080962801D9962010801C4A487A107046
:104460003C38152801D33C201070194A887A107006
:104470001E2801D91E20107016484A7B3222027075
:10448000154AC87A1070092801D909201070134AFA
:10449000087B1070132801D913201070887B1049F5
:1044A0000228087001D90220087010BDE04B0020DE
:1044B0006000002020D7FEFFC05701001900002037
:1044C0001B0000201A000020400000201D000020DA
:1044D0001E0000201C0000202700002028000020D3
:1044E000290000202DE9F0410E4E054600244FF42E
:1044F000807728063946304602D5FDF74EFB01E0AD
:10450000FDF749FB80213046FDF747FB6806050EA5
:1045100080213046FDF73FFB641CE4B2082CE8D351
:10452000BDE8F08100100140224900200A6842F4F1
:1045300080320A604FF4A0630A6800F1010012F4AF
:10454000003F01D19842F7D10868800330D51A485E
:10455000026842F010020260026822F00302026068
:10456000026842F002020260486848604868486099
:10457000486840F480604860486820F47C104860D7
:10458000486840F4E8104860086840F080700860AF
:1045900008688001FCD5486820F00300486048683E
:1045A00040F0020048604868C0F381000228FAD158
:1045B00070470000001002400020024008B50020B3
:1045C0000090362343222F212620FDF72DF808BD29
:1045D00008B5002000903F23612237214A20FDF7D3
:1045E00023F808BD204970B5B0FBF1F201FB1202BF
:1045F0001E49B2FBF1F2B0FBF1F301FB130342F2EF
:104600001071B3FBF1F33033DCB2B0FBF1F301FB1B
:1046100013034FF47A71B3FBF1F33033DDB2B0FB27
:10462000F1F301FB13006421B0FBF1F030303032C4
:10463000C6B2D2B22F212620FCF774FF22462F21CA
:104640002C20FCF76FFF2A462F213220FCF76AFF4F
:104650002E222F213820FCF765FF3246BDE870403E
:104660002F213E20FCF75EBF40420F00A0860100D4
:1046700042F21071B0FBF1F201FB12024FF47A71B9
:10468000B2FBF1F2B0FBF1F301FB13036421B3FBC6
:10469000F1F370B53033DCB2B0FBF1F301FB13037F
:1046A0000A21B3FBF1F5B0FBF1F301FB1306303245
:1046B000D2B23035303637214A20FCF733FF22465C
:1046C00037215020FCF72EFF2A4637215620FCF7D1
:1046D00029FF3246BDE8704037215C20FCF722BF3D
:1046E00010B502784FF461614A4341788078C1EB9C
:1046F000011102EB81010C18FFF79AF82046FFF731
:1047000079F8BDE81040FFF793B800002DE9FF5F8E
:1047100007460025C0EBC701CF4802950844039522
:104720000190016802918188ADF80C1080792C46C7
:104730002E468DF80E00FCF759FF1020FDF770F99A
:104740004FF0010800213F23BF220846CDF800802A
:10475000FDF760F83D2396220C210220CDF8008061
:10476000FDF758F80E210820FEF7BAFA5B22022165
:104770000120FCF7D7FE4FF00A09B7FBF9F080469D
:104780003030C2B202210720FCF7CCFE09FB1872C0
:10479000303202210D20FCF7C5FE5D2202211320DC
:1047A000FCF7C0FEDFF8B0824FF47A7BA8F1C008B6
:1047B0004FF016094FF0080AC8F86CB0002702A89D
:1047C00007EB4701C25D4FF0190000EB4100AF421B
:1047D000C0B24FF0020102D1FCF7D4FE01E0FCF7B9
:1047E000A1FE7F1CFFB2072FE9D3072D07D09BA2A4
:1047F00002215020FDF72DF8082D0FD004E099A2DA
:1048000002215020FDF725F898A202217420FDF71F
:1048100020F8FDF75EFD012802D037E095A2F4E70D
:10482000C8F86CB016B3072D30D2E0B2009000EBA0
:1048300040000E2101EB4002C4F3072707EB4703BA
:1048400009EB83010AEB40000023FDF72BF807EB8F
:1048500047018A4A01EBC701009802EB410100269B
:10486000415C02A841556D1CEDB2A7E7072D12D09F
:10487000082D1BD0002060F30704012660F30F24ED
:104880000E22494650463346FDF70CF8FDF78AFDE7
:1048900001280DD03AE0DDE901010160BDF80C10FE
:1048A00081809DF80E108171FCF762FABDE8FF9FD0
:1048B000734901200870C8F86CB03EB304EB4401A2
:1048C0000AEB4100C7B2C4F3072000EB400100909F
:1048D00009EB8100C1B20023BA1D3846FCF7E2FFA4
:1048E0000098401EC0B260F30F24032802D90320B1
:1048F00060F30F24C4F3072000EB400109EB8100B3
:10490000C1B20123BA1D3846FCF7CCFFFDF764FCA9
:1049100001282CD15B490870C8F86CB03EB304EB99
:1049200044010AEB4100C7B2C4F3072000EB400189
:10493000009009EB8100C1B20023BA1D3846FCF794
:10494000B1FF0098401CC0B260F30F24032802D9C5
:10495000002060F30F24C4F3072000EB400109EBB3
:104960008100C1B20123BA1D3846FCF79BFFFDF759
:104970006BFC012828D144490870C8F86CB046B3D4
:1049800004EB44010AEB4100C4F3072101EB4102AF
:1049900009EB8201C0B2CFB20023821D3946FCF779
:1049A00081FF601EC0B260F30704152802D91520EC
:1049B00060F3070404EB44010AEB4100C0B2012399
:1049C000821D3946FCF76EFFFDF79AFC012807D0DF
:1049D00030E06D1EEDB2082D7FF647AF0825EDE6FD
:1049E0002A4901200870C8F86CB076B304EB440182
:1049F0000AEB4100C4F3072101EB410209EB8201FC
:104A0000C0B2CFB20023821D3946FCF74BFF601CB9
:104A1000C0B260F30704152802D9002060F3070430
:104A200004EB44010AEB4100C0B20123821D394668
:104A3000FCF738FFFDF742FC01283FF437AFD8F808
:104A40006C0000287FF4E5AE30E76D1CEDB2082D58
:104A5000C5D90025B2E60000D800002020534156F9
:104A6000450000003E53415645000000204558498E
:104A7000540000003E455849540000007C93000853
:104A80008001002083010020840100208701002094
:104A90002DE9FF5F0746C948002500EBC7000190DC
:104AA000D0E90010CDE902102C462E46FCF79EFD01
:104AB0001020FCF7B5FF4FF0010800213F23BF2273
:104AC0000846CDF80080FCF7A5FE3D2396220C2178
:104AD0000220CDF80080FCF79DFE0E210820FEF795
:104AE000FFF85B2202210120FCF71CFD3037FAB2EF
:104AF00002210720FCF716FD5D2202210D20FCF7A4
:104B000011FDAE494FF47A7B70394FF016094FF022
:104B1000080AC1F86CB000274FF0130802A807EB91
:104B20004701C25D08EB4100AF42C0B24FF0020145
:104B300002D1FCF727FD01E0FCF7F4FC7F1CFFB27B
:104B4000082FEBD3082D07D09DA202215020FCF79F
:104B500080FE092D11D004E09BA202215020FCF719
:104B600078FE9BA202217420FCF773FE934F703FE6
:104B7000FDF7AFFB012802D037E097A2F2E7C7F8B4
:104B80006CB016B3082D30D2E0B2804600EB48007E
:104B90000E2101EB4002C4F3072707EB470309EBA3
:104BA00083010AEB40000023FCF77CFE07EB470182
:104BB0008B4A01EBC70102EB410102A818F8011072
:104BC000002641556D1CEDB2A5E7082D12D0092D28
:104BD00018D0002060F30704012660F30F240E2292
:104BE000494650463346FCF75DFEFDF7DBFB0128E6
:104BF0000AD039E001AB07CBC0E90012FDF774FF22
:104C000002F0F2FEBDE8FF9F764901200870C7F868
:104C10006CB04EB304EB44010AEB4100C2B2C4F3E2
:104C2000072000EB40010090904609EB8100C1B2E3
:104C30000023921D4046FCF735FE0098401EC0B28E
:104C400060F30F24032802D9032060F30F24C4F378
:104C5000072000EB400109EB8100C1B2012308F1FC
:104C600006024046FCF71EFEFDF7B6FA01282ED1DB
:104C70005D490870C7F86CB04EB304EB44010AEB11
:104C80004100C2B2C4F3072000EB400100909046FF
:104C900009EB8100C1B20023921D4046FCF702FEE1
:104CA0000098401CC0B260F30F24032802D90020F2
:104CB00060F30F24C4F3072000EB400109EB8100EF
:104CC000C1B2012308F106024046FCF7EBFDFDF7F7
:104CD000BBFA012828D145490870C7F86CB046B323
:104CE00004EB44010AEB4100C4F3072101EB41024C
:104CF00009EB8201C0B2C9B288460023821DFCF7CD
:104D0000D1FD601EC0B260F30704152802D915203A
:104D100060F3070404EB44010AEB4100C0B2012335
:104D2000821D4146FCF7BEFDFDF7EAFA012807D0D7
:104D300030E06D1EEDB2092D7FF646AF0925EAE69B
:104D40002B4901200870C7F86CB066B304EB44012E
:104D50000AEB4100C4F3072101EB410209EB820198
:104D6000C0B2C9B288460023821DFCF79BFD601CBF
:104D7000C0B260F30704152802D9002060F30704CD
:104D800004EB44010AEB4100C0B20123821D4146FD
:104D9000FCF788FDFDF792FA01280AD0F86E00288A
:104DA0007FF4E6AE2EE76D1CEDB2092DC7D90025C4
:104DB000B1E602497039C1F86CB023E788000020E1
:104DC00020534156450000003E5341564500000027
:104DD00020455849540000003E4558495400000001
:104DE0007C930008800100208301002084010020C2
:104DF000870100202DE9FE4F022806D001287ED031
:104E00000521F8480170BDE8FE8F0025F64E8DF8AB
:104E1000045002950124B574FCF7E8FB012700213A
:104E20003F23BF2208460097FCF7F4FC0923BF226A
:104E3000194600200097FCF71FFC00F007FDEB4926
:104E400006F11000B9460860E94901A8B0460860BB
:104E5000E849401D4FF47A7B0860E74902A80860E2
:104E60000021084600F094FC0121084600F090FC67
:104E70000221084600F08CFC0321084600F088FC63
:104E800000278DF80970BA468DF80870012C07D0FC
:104E9000002198F8100000F0F3FB022C0DD004E084
:104EA000012198F8100000F0EBFB00219DF80400B0
:104EB00000F0BAFB032C0DD004E001219DF80400A2
:104EC00000F0B2FBCDA201218020FCF7C2FC042C33
:104ED0001BD004E0CBA201218020FCF7BAFCCBA2BE
:104EE0000121A020FCF7B5FCCA4981F80090D8F850
:104EF0006C0060B1FDF7E2F9012808D000E09DE107
:104F0000FDF7E7F9012804D073E0C3A2E8E7002029
:104F100077E0C8F86CB0B5B39DF80920C0499DF89A
:104F2000080001EB021286183078401CC0B23070C5
:104F3000032801D9002030709DF8080032780F282E
:104F40000DD03946504600F055FC3946504600F029
:104F5000DDFBB44803210660A248017049E09DF8DA
:104F60000900009001EB00100F21FBF7D3FA38463F
:104F7000009900F00DFC3946504600F0C7FBAA48E6
:104F800002210660E8E7FFE7022C04D0032C2CD0B6
:104F9000042C33D02DE09DF80400401CC0B28DF8E5
:104FA0000400032802D900208DF804000121C0B2BA
:104FB00000F03AFB9DF804204FF4C0719848FBF7CD
:104FC000A9FA0321084600F0E3FB0221084600F09D
:104FD000DFFB0121084600F0DBFB0021084600F062
:104FE000D7FB804981F8009003E098F81000FEF7A5
:104FF0005DF8FDF7D7F9012806D042E07949002095
:10500000087084490870FEE6884981F8009041469E
:10501000C8F86CB095B39DF8090060B1401EC0B2ED
:105020008DF809006FB13946504600F06FFB7F1EC6
:10503000FFB239461EE00021504600F067FB002514
:1050400024E7C01CC1B2032000F0A2FB9DF80900B8
:10505000801CC1B2022000F09BFB9DF80900401C9F
:10506000C1B2012000F094FB9DF80910002000F06F
:105070008FFB0021504600F049FB02E0FFE7012CC6
:1050800004D0FDF7A9F8012808D03FE0087C401CB7
:10509000C0B20874092846D9002043E0644981F869
:1050A00000904146C8F86CB075B39DF80900172808
:1050B0002CD2401CC0B28DF80900032F07D239460C
:1050C000504600F023FB7F1CFFB2394618E0C01E9B
:1050D000C1B2002000F05CFB9DF80900801EC1B247
:1050E000012000F055FB9DF80900401EC1B20220CE
:1050F00000F04EFB9DF80910032000F049FB03214E
:10510000504600F003FB01E0012C04D0FDF79CF8B1
:1051100001280CD034E0087C401EC0B20874092875
:1051200001D909200874C0B2FDF7F2FF98E64149A1
:1051300081F80090C8F86CB08DB13946504600F047
:10514000E5FA9DF80800401EC0B28DF808000F284F
:1051500002D90F208DF80800C0B282460CE0641E10
:1051600014F0FF0429D0022C7FF46AAF23A201219E
:105170008020FCF76EFB01253946504600F0C6FA48
:10518000FDF7BEF801287FF4B2AE2B4981F80090FC
:10519000C8F86CB09DB13946504600F0B7FA9DF89A
:1051A0000800401CC0B28DF808000F2802D900206A
:1051B0008DF80800C0B282460FE0042466E6641C45
:1051C000E4B2042C01D9012460E6032CF6D10021BD
:1051D0009DF8040000F028FA01253946504600F0F9
:1051E00095FA84E69F01002018000020D8010020D5
:1051F000DC010020E0010020E8010020205341569E
:10520000450000003E5341564500000020455849E6
:1052100054000000A10100203E4558495400000000
:10522000EC400020EC010020E4010020800100207F
:105230008301002084010020870100200421E0E593
:105240002DE9F84FE84C00200127667C00903F23B1
:10525000BE2227213846FCF7E7F9DFF890A34FF488
:105260007A7BA146102099F80F4099F81050FCF76E
:10527000D7FBDFA227210120FCF7EBFADFA22F21C9
:105280000120FCF7E6FAE0A237210120FCF7E1FA61
:10529000204600F001FC284600F04CFA304600F0B1
:1052A00079FC1F2000EBC7008046C1B23E220120DE
:1052B000FCF738F908F0FF013C225020FCF732F9E6
:1052C00008F0FF013E229220FCF72CF9C9F86CB0DF
:1052D00099F81B00012808D1002089F81B0001F073
:1052E000A3F9C148383000F021FDFDF75BF8012833
:1052F00008D0FCF771FF01281ED0FCF7A5FF01289C
:1053000034D06BE008F0FF0120220120C9F86CB016
:10531000FCF708F908F0FF0120225020FCF702F901
:1053200008F0FF0120229220FCF7FCF87F1E17F006
:10533000FF07B6D10327B4E708F0FF0120220120C0
:10534000C9F86CB0FCF7EEF808F0FF0120225020FD
:10535000FCF7E8F808F0FF0120229220FCF7E2F8C1
:105360007F1CFFB2032F9CD901279AE7C9F86CB0C4
:10537000012F04D0022F12D0032F2FD121E0FCB136
:10538000641EE4B289F80F40DAF80000C472FFF737
:105390002FF8204600F080FB02F026FB1EE07DB1D6
:1053A0006D1EEDB289F81050DAF800000573FFF7B2
:1053B0001FF899F81000FDF7ABFE284600F0BAF987
:1053C0000CE05EB1761EF6B289F81160DAF80000E2
:1053D0008673FFF70DF8304600F0DCFBFCF790FF1A
:1053E00001283AD1C9F86CB0012F04D0022F13D094
:1053F000032F32D123E0092C2FD2641CE4B289F8A8
:105400000F40DAF80000C472FEF7F2FF204600F009
:1054100043FB02F0E9FA20E0132D1ED26D1CEDB221
:1054200089F81050DAF800000573FEF7E1FF99F8EB
:105430001000FDF76DFE284600F07CF90DE0022E0D
:105440000BD2761CF6B289F81160DAF80000867388
:10545000FEF7CEFF304600F09DFBFCF72FFF012842
:1054600004D0FCF741FF01280FD011E00A20DFF83B
:10547000A4C1C9F86CB000DFFCF720FF0128FBD005
:10548000654900200870BDE8F88F8020FCF7C8FA55
:10549000D9F86C000028F6D0FCF71BFF01287FF438
:1054A00017AFC8464846C9F86CB0012F04D0022F88
:1054B00010D0032F28D11BE0002088F81200012013
:1054C00088F80B003220DFF84CC100DF2046FFF7E0
:1054D000DFFA19E0002088F81200012088F80B009C
:1054E0003220DFF830C100DF2846FFF70FF90BE06C
:1054F00000218174012188F80B103220DFF814C1DB
:1055000000DF3046FFF776FC002088F80B00D8F863
:105510006C0044460028B6D0FCF768F8012500214D
:105520003F23BF2208460095FCF774F9002113239E
:10553000412208460095FCF76DF91323B322194662
:1055400000200095FCF798F82523BF22194600207B
:105550000095FCF791F81423BF220021B320009599
:10556000FCF758F90A23BF221946B3200095FCF72F
:1055700083F800F031FB08252B46284A0121B5208D
:10558000009500F0ABFA0823254A0A21B5200095C2
:1055900000F0A4FA607C00F0CDFA207F00F0A6FBBA
:1055A000207F4FF4005101281E481AD0FCF7F3FA6F
:1055B0000D48383000F0BAFBA06C00F075F9E08DB2
:1055C000C0B200F0C9F9207A00F066FB608D00F0EF
:1055D000F7F9A08DC0B200F00BFBE07900F03CFBC6
:1055E00040E6FCF7DAFAE3E718000020F0010020BB
:1055F000205053204E616D6520203A002041726595
:1056000061204E616D653A0020524453204D6F6415
:1056100065203A00897B00089F01002064A00008F3
:105620005CA00008000C014038B5114A0C4658B186
:10563000012804D0022804D0032805D103E00D4A34
:1056400002E00D4A00E00D4A0820034600900121C7
:10565000492000F043FA002C08D001B00823BDE82F
:105660003040502201214920FCF773B838BD0000BA
:1056700084A000087CA0000874A000086CA00008AA
:1056800070B50C46054601215B220846FBF74AFF30
:105690000A22B5FBF2F0014602FB11563030C2B2CD
:1056A00030364FF001014FF007003CB1FBF76AFFC5
:1056B000324601210D20FBF765FF06E0FBF732FFC4
:1056C000324601210D20FBF72DFF5D220121132021
:1056D000FBF728FF0C49C5EBC50000244518192627
:1056E00004EB440006EB40002A5DC0B20121FBF749
:1056F00019FF641CE4B2072CF2D3BDE870403A22D3
:1057000001214320FBF70EBFD800002000EB8000F2
:10571000102202EB400001EB410202EBC101123109
:10572000C9B201F10A02C0B2D3B2C21DD2B2FCF7B3
:1057300010B8000070B50A26B0FBF6F4054604F177
:105740003000C2B22F215620FBF7ECFE06FB1452AC
:1057500030322F215C20FBF7E5FE2D222F21622025
:10576000FBF7E0FE0949C5EBC50000244518682693
:1057700004EB440006EB40002A5DC0B22F21FBF78A
:10578000D1FE641CE4B2072CF2D370BDD800002017
:10579000F8B506460D4600EB460000EBC60113A027
:1057A0000A2200680090B5FBF2F09DF80030143139
:1057B000034402FB10508DF800309DF80120C9B25F
:1057C00010448DF801006A460120FCF742F80848B1
:1057D000002400EB051531462A5D204600F00AF84A
:1057E000641CE4B2102CF6D3F8BD00003030000089
:1057F000EC40002008B5130000EB80004FF01002D1
:1058000002EB400001EB410202EBC10101F1120188
:105810000A4AC0B2C9B206D0012B0AD0022B0AD064
:10582000032B05D1064A0B230093082300F056F9F9
:1058300008BD044AF7E7044AF5E70000B5A00008F0
:1058400094A00008AAA000089FA0000838B5002472
:10585000112504EB840004F1300105EB4000CAB2CD
:10586000C0B20A21FBF75EFE641CE4B20A2CF0D33E
:105870000CE004EB840004F1370105EB4000CAB2F0
:10588000C0B20A21FBF74EFE641CE4B20F2CF0D329
:10589000082003460090034A0A21A72000F01EF9C1
:1058A00038BD00008CA000080EB520A1D1E900236E
:1058B00089680092CDE901311F499DF80330B0FBA2
:1058C000F1F201FB12021D49B2FBF1F21A448DF80C
:1058D0000320B0FBF1F201FB120242F21071B2FBA5
:1058E000F1F29DF804301A448DF80420B0FBF1F277
:1058F00001FB12024FF47A71B2FBF1F29DF8053010
:105900001A448DF80520B0FBF1F201FB120064216E
:10591000B0FBF1F09DF807106A4608448DF80700C7
:1059200015210120FBF795FF0EBD0000464D3A30D2
:1059300030302E304D487A0040420F00A0860100E2
:1059400008B5182000904023024A2721782000F053
:10595000C5F808BD9C9F00081CB517A1D1E900211E
:10596000CDE900214FF47A71B0FBF1F201FB120294
:105970006421B2FBF1F29DF802301A448DF8022046
:10598000B0FBF1F201FB12020A21B2FBF1F29DF829
:1059900003301A448DF80320B0FBF1F201FB120032
:1059A0009DF805106A4608448DF80500152154201D
:1059B000FBF74FFF1CBD0000493A30302E3041004C
:1059C0001CB51DA1D1E90021CDE9002142F21071E1
:1059D000B0FBF1F201FB12024FF47A71B2FBF1F26B
:1059E0009DF802301A448DF80220B0FBF1F201FB61
:1059F00012026421B2FBF1F29DF803301A448DF8D3
:105A00000320B0FBF1F201FB12020A21B2FBF1F21A
:105A10009DF804301A448DF80420B0FBF1F201FB2C
:105A200012009DF805106A4608448DF805001D21F6
:105A30000720FBF70EFF1CBD503A303030305700C6
:105A400010B504460AA227213820FBF702FF322CAA
:105A500003D04B2C03D0642C03D008A202E009A28F
:105A600000E00AA22721BDE810403820FBF7F1BE74
:105A700020202020202020200000000050453A3522
:105A80003075730050453A373575730050453A31DB
:105A9000303075730000000070B505463030C2B27A
:105AA00027215620FBF73EFD2D2227215C20FBF706
:105AB00039FD0948002400EBC505622604EB4400CB
:105AC00006EB40002A5DC0B22721FBF72BFD641CCA
:105AD000E4B2082CF2D370BD880000202DE9FF5FEE
