:020000040800F2
:1000000000530020290300088F2A0008311F000830
:100010008D2A0008ED1000088D680008000000001F
:100020000000000000000000000000004102000885
:100030008716000800000000D10200081D03000818
:100040004303000843030008430300087D39000808
:100050004303000843030008430300084303000868
:100060004303000843030008430300084303000858
:100070004303000843030008430300084303000848
:100080004303000843030008430300084303000838
:100090004303000843030008430300084303000828
:1000A0004303000843030008430300084303000818
:1000B000430300089D62000843030008430300084F
:1000C00043030008430300084303000843030008F8
:1000D000430300083D650008296600084303000843
:1000E00043030008430300084303000800F002F83C
:1000F00000F065F80AA090E8000C82448344AAF15D
:100100000107DA4501D100F05AF8AFF2090EBAE85A
:100110000F0013F0010F18BFFB1A43F0010318473B
:10012000F8A1000018A200000A444FF0000C10F8DB
:10013000013B13F0070408BF10F8014B1D1108BF65
:1001400010F8015B641E05D010F8016B641E01F805
:10015000016BF9D113F0080F1EBF10F8014BAD1C55
:100160000C1B09D16D1E58BF01F801CBFAD505E073
:1001700014F8016B01F8016B6D1EF9D59142D6D3CD
:10018000704700000023002400250026103A28BFF5
:1001900078C1FBD8520728BF30C148BF0B607047F9
:1001A0001FB509F0CAF800F075FC0400002000211A
:1001B00008F080FB401C60601FBD10B510BD00F052
:1001C00035FC1146FFF7ECFF06F08CFE00F05CFCFE
:1001D00003B4FFF7F2FF03BC00F0A6FC80F309882C
:1001E0007047684680F3098804480078C00714BF48
:1001F0000220032080F314887047000090950008C7
:10020000DFF818C0EFF305831B0618BF6047EFF354
:100210001483DB0708BF604700DF7047617C00087C
:10022000DFF818C0EFF305831B0618BF6047EFF334
:100230001483DB0708BF604700DF7047E97E0008D2
:10024000EFF30980816931F8021C31F47F4128D134
:1002500090E80F10E047EFF3098C1A4B93E8060083
:10026000914219D00CB44FF0010300291FBF81F84F
:1002700021302CE9F00FC1F824C008F09DF80CBC27
:100280001A60D2F824C0BCE8F00F92F821308CF349
:1002900009881BB192F82000CCF800006FF0020E24
:1002A000704710B5084A1268914209D8074C54F8B3
:1002B000214090E80F10A047EFF3098C8CE80F0065
:1002C00010BD000004020020380B0008380B0008A5
:1002D00007F07CFF134B93E8060091421BD00CB44F
:1002E0004FF0000381F82130EFF3098C2CE9F00F77
:1002F000C1F824C008F060F80CBC1A60D2F824C021
:10030000BCE8F00F8CF3098892F821301BB192F809
:100310002030CCF800306FF0020E704708F0F6F88D
:10032000D8E7000004020020094880470948004738
:10033000FEE7FEE7FEE7FEE7FEE7FEE7FEE7FEE795
:10034000FEE7FEE704480549054A064B70470000F2
:10035000C5610008ED000008004D0020005300209A
:10036000004F0020004F0020004870479C4C0020A8
:100370000FB400B58DB010A9099000910B904FF00B
:10038000FF300A9000200C900648784406900648FA
:1003900078446A4607900F9909A800F015F90DB046
:1003A0005DF814FB5F020000770200002DE9FF5F9B
:1003B0001446994600273E4650689169DDF838A0FA
:1003C00083469068804601988847054659EA0A00A6
:1003D00005D009E0A1690198761C88470546216A85
:1003E000284688470028F5D1681C03D05FEACB7007
:1003F00005D016E04FF0FF3004B0BDE8F09F206854
:10040000011D216007680CE05FEACB7001D107F89D
:10041000015BA169A8F10100761C8046019888471C
:100420000546B8F1000F1ADD681C18D0B9F1000FAD
:100430000DD0E81705EBD060421120F01F0059F8ED
:1004400022102A1A012090400142DDD107E0BAF1C2
:10045000000FD9D12846216A88470028D4D0E16905
:10046000019888470BF0010050EA0A0000D138706B
:10047000A2686FF001004245BEDDBAF1000F02D064
:10048000B8F1000FB8D13046B6E7032A40F2308009
:1004900010F0030C00F0158011F8013BBCF1020FC5
:1004A000624498BF11F801CB00F8013B38BF11F846
:1004B000013BA2F1040298BF00F801CB38BF00F85D
:1004C000013B11F0030300F0B180083AC0F008804E
:1004D00051F8043B083A51F804CBA0E80810F5E7BE
:1004E000121D5CBF51F8043B40F8043BAFF30080A1
:1004F000D20724BF11F8013B11F801CB48BF11F816
:10050000012B24BF00F8013B00F801CB48BF00F8E5
:10051000012B704702F0FF0343EA032242EA024242
:1005200000F002B84FF000020429C0F0128010F071
:10053000030C00F01B80CCF1040CBCF1020F18BFBF
:1005400000F8012BA8BF20F8022BA1EB0C0100F052
:100550000DB85FEAC17C24BF00F8012B00F8012B25
:1005600048BF00F8012B70474FF0000200B513465A
:1005700094469646203922BFA0E80C50A0E80C50C3
:10058000B1F12001BFF4F7AF090728BFA0E80C5074
:1005900048BF0CC05DF804EB890028BF40F8042B6D
:1005A00008BF704748BF20F8022B11F0804F18BFDA
:1005B00000F8012B7047704770477047026811447C
:1005C00013780160184670470B461146054A7A4475
:1005D0004A61054A7A440A620022C1E9033200F006
:1005E00061B80000EBFFFFFFB9000000426842B1B4
:1005F000016811F8013B23B1521EC0E900121846F0
:1006000070470121C160881E7047416859B1C368B5
:10061000026843B98368934205D0521E491CC0E961
:100620000021002070474FF0FF30704710B5203A8E
:10063000C0F00B80B1E81850203AA0E81850B1E89B
:100640001850A0E81850BFF4F5AF5FEA027C24BF51
:10065000B1E81850A0E8185044BF18C918C0BDE848
:1006600010405FEA827C24BF51F8043B40F8043B11
:1006700008BF7047D20728BF31F8023B48BF11F8C6
:10068000012B28BF20F8023B48BF00F8012B704720
:1006900010B5044600F0F0F90068005D00F00100BC
:1006A00010BD00002DE9F34F0C4600208FB08246AC
:1006B0000120834600260D9001F10C000B90626929
:1006C0000B980121904705002DD0252D2CD0216AB3
:1006D0008847C0B162690B9801219047216A884719
:1006E0000028F7D16269411E0B98904700E0761C04
:1006F000A1690F988847216A88470028F7D1E169E6
:100700000F988847DBE7A1690F988847A8420746FA
:1007100001D1761CD3E7E1690F9888477F1C02D18D
:10072000BAF1000F72D04AE162690B9800273D468A
:10073000394690472A2804D162690B9801219047D5
:100740000125DFF8E48262690B9801219047A0F14E
:1007500030010A290DD2BBF1000F0AD04745E2DC77
:1007600007EB870100EB4107303FDCD445F0100573
:10077000E9E7E90601D46FF000476C280AD04C285D
:1007800014D0682815D06A280DD074281CD07A2877
:100790001AD01DE062690B98012190476C2802D0A5
:1007A00045F0040514E045F002050DE045F0200594
:1007B0000AE062690B9801219047682802D045F051
:1007C000080505E045F4006562690B980121904732
:1007D000C4E90157652842D019DC58287ED00CDCCA
:1007E00045283CD004DC252826D0412831D136E0EC
:1007F000462834D047282CD131E05B287BD06128B3
:100800002DD0632877D0642823D15EE022E06F28C2
:100810004CD008DC662822D0672820D0692826D052
:100820006E2816D12CE0702849D073286CD075281A
:100830004BD078280DD151E0A1690F988847252821
:1008400005463FF466AFE1690F9888476D1C3FF499
:1008500067AFB4E04FF0FF3011B0BDE8F08F0F99F3
:1008600023466A466FF00100AFF30080C8E045F010
:10087000400023464FF000026060A80735D43DE0F9
:10088000206800F1040121600068290501D5067087
:1008900015E7290701D5068011E7A90704D54FEA16
:1008A000E671C0E900610AE7066008E745F040002C
:1008B00023464FF008026060A80716D41EE040F6F9
:1008C0000E0125EA0100606016E045F04000234675
:1008D0004FF00A026060A80707D40FE045F040001F
:1008E0006060A80708D5234610220F996FF0010019
:1008F000AFF3008084E007E0102223460F996FF0E9
:100900000100AFF300807BE00021632889460F4699
:1009100088460B460C9102D05B2806D030E0E806F2
:1009200001D4C4F808B001272AE062690B980121BC
:1009300090475E2805D162690120814601460B98E7
:100940009047216981B3E168891E0C9168B32169E0
:1009500061B308F10100804662690B98012190475C
:100960005D28F3D1B9F1000F09D0002003A951F897
:100970002020D24341F82020401C0828F7DB03AB9D
:100980002069002860684FEA40702AD02246CDF8DE
:100990000080CDE901970C9B0F9900286FF00100B2
:1009A0002CDAAFF300802BE001E008E009E000233F
:1009B00003AA42F82130491C0829FADBC6E7504651
:1009C0004AE7C11700EBD16303A95A1123F01F03B3
:1009D00001EB8201C31A0A680BFA03F002430A60B2
:1009E000BAE7009722460F9900286FF0010002DA5B
:1009F000AFF3008004E0FFF7D9FC01E0AFF3008023
:100A0000002808DA4FF0FF31401C01D10D9800B9E1
:100A10005146084620E7E90702D10AF101018A465A
:100A2000064400200D904AE6CCCCCC0C7546FFF76E
:100A30009BFCAE4605006946534620F007008546FC
:100A400018B020B5FFF77EFCBDE820404FF000064F
:100A50004FF000074FF000084FF0000B21F00701A6
:100A6000AC46ACE8C009ACE8C009ACE8C009ACE8E9
:100A7000C0098D467047000010B500F00BF8001D4E
:100A800010BD00BF317E00000446AFF30080204659
:100A9000FFF79EFB10B5FFF767FC203010BD10B5C7
:100AA00005F03EFF001D10BD4FF0013C50F8042B37
:100AB00051F8043B9A4221D1A2EB0C03934313EA71
:100AC000CC1317D150F8042B51F8043B9A4215D19E
:100AD000A2EB0C03934313EACC130BD150F8042B75
:100AE00051F8043B9A4209D1A2EB0C03934313EA59
:100AF000CC13DBD04FF00000704700BFD01A01BA12
:100B0000B1FA81F101F0180122FA01F0CB40C1F1F4
:100B10002001DBB2C0B2C01A2CFA01F3D11A914302
:100B200011EAC311E6D1704701491820ABBEFEE7B8
:100B300026000200704700000000000000298168C4
:100B400002D041F0010101E021F001018160704714
:100B50000029816802D041F4807101E021F48071A4
:100B60008160704708B57320ADF8000000208DF853
:100B700003006946014801F0D1F808BD00080140B2
:100B8000014600208968490700D5012070470146C9
:100B900000208968090700D50120704710B5426818
:100BA0000E4B0C791A400B6842EA0422134343604F
:100BB00082680B4B1A40D1E9024323434C7942EA45
:100BC000440213438360C26A097C22F47002491E06
:100BD000C9B242EA0151C16210BD0000FFFEF0FF40
:100BE000FDF7F1FF70B5072609290AD9C568A1F1FB
:100BF0000A0404EB4404A640B543A3401D43C5606A
:100C000007E0056901EB4104A640B543A3401D433D
:100C100005611F23072A09D2446B521E02EB820290
:100C200093409C4391400C43446370BD0D2A09D20C
:100C3000046BD21F02EB820293409C4391400C4311
:100C4000046370BDC46A0D3A02EB820293409C4378
:100C500091400C43C46270BD816841F0080181601D
:100C600070470029816802D041F4A00101E021F41D
:100C7000A00181607047816841F004018160704784
:100C80001B4C4FF6FF750120DFF868C0A16D00DF37
:100C9000012229461046DFF860C000DF00231A4613
:100CA0000A211648DFF858C000DF002307461A461D
:100CB0000B211448DFF848C000DF06460220DFF8A9
:100CC00034C0A16D00DF012229460220DFF828C0D0
:100CD00000DF31460120DFF830C000DF3946012057
:100CE000DFF824C000DF3220DFF820C000DFCAE7D1
:100CF00018000020CD7D0008A57E0008452A0008C8
:100D0000898500085D100008417E0008C57D000847
:100D10000EB50FA0D0E9001280680091CDE9012046
:100D20000E4A002069460B5C1354401CC0B20928CF
:100D3000F9D30B490920012208700A4900200870E4
:100D40000949087040F22771084805F008FD0EBDFA
:100D5000A20700FF0105000000000000D6430020AC
:100D6000720100207301002067010020003801405B
:100D70002DE9F0418AB0134F00246D464FF0C008B2
:100D80000020C4EBC401CB1904F001011A5C00EB94
:100D90000116401CC0B2AA550728F7D3E0070AD0B5
:100DA000610808EB41102022694600F01DFF052074
:100DB000DFF814C000DF641CE4B2142CE0D30AB0E6
:100DC000BDE8F081D8000020C57D0008F0B589B0ED
:100DD0000024124EC0276D46E0070AD1600807EBD9
:100DE00040102022694600F07FFE0520DFF830C069
:100DF00000DFC4EBC401002004F00103314400EB28
:100E00000312AA5C0A54401CC0B20728F7D3641C22
:100E1000E4B2142CE0D309B0F0BD0000D8000020EB
:100E2000C57D00084A4D40F27A380026688E298D2B
:100E3000884203D1A96C286D88427CD0687B002849
:100E400079D1687F00287DD1A87F00287AD1E87FFA
:100E5000002877D195F82000002873D195F821005B
:100E600000286FD1287B01286CD1A87A002869D18D
:100E700000242746A88C00F007FBA87B012804D19A
:100E8000AC8C0AE0A87B012807D0688D298D8842A8
:100E900020D90A2C09D90A3C03E0688DE98CF6E7D1
:100EA0000A34A4B2204600F0EFFA0A20DFF8A4C00A
:100EB00000DF7F1CFFB2B7F5967F07D8288D698DBC
:100EC000401A801C042801D9687B30B1687B012856
:100ED00032D014E04445E3D3E7E7687F78B9A87FD0
:100EE00068B9E87F58B995F8200040B995F8210015
:100EF00028B9287B012802D1A87A0028C2D0288DE1
:100F00006886A86C2865AE73AC84687F012816D00B
:100F1000A87F012813D0E87F012810D095F8200081
:100F200001280CD095F82100012808D0287B30B189
:100F3000A87A012803D005E06E862E65E4E700203C
:100F400000F0A2FA0520DFF80CC000DF6EE7000019
:100F500018000020C57D00080024DFF8ECA0DFF8B1
:100F6000EC90DFF8EC802746264625469AF80000EC
:100F700008B1042416E02021364800F01DFF08B116
:100F800003240FE04FF48061484600F015FF30B1B4
:100F90004FF40061484600F00FFF10B102E0022458
:100FA00000E00124A6424BD0D8F84C0008B96D1CD3
:100FB000ADB2142D39D9A64212D2012C06D0022C82
:100FC00007D0032C16D0042C07D116E000210220F4
:100FD00001E00021042001F063FF002726463D4682
:100FE000A64222D9A7420BD0274640F6B831C8F80E
:100FF0004C101AE000210120EDE700210320EAE770
:10100000D8F84C0088B9012C06D0022C07D0032C4C
:1010100010D0042C07D110E00021022001E00021B3
:10102000042001F03DFF264600250520DFF828C0FA
:1010300000DF9BE700210120F3E700210320F0E718
:1010400000252946D3E70000A2010020001001403E
:1010500018000020000C0140C57D0008144C04213C
:10106000204600F0B0FE0A20DFF848C000DF04216F
:10107000204600F0AAFE0A20DFF838C000DF042175
:10108000204600F0A0FE0A20DFF828C000DF04217F
:10109000204600F09AFE01223C211046DFF818C0DD
:1010A00000DF0228DBD10020DFF810C000DFD6E728
:1010B00000140140C57D0008A57E000819860008BF
:1010C00010B5012002F080F8BDE81040002002F0C9
:1010D0007BB800000149085A70470000006C0040CE
:1010E000014A115070470000006C0040FEE700000C
:1010F0002DE9F84F0121042002F04EF801214804A7
:1011000002F032F80820ADF800000326DFF8D4B072
:101110008DF8026004258DF803506946584600F0AA
:10112000FDFDADF8005018278DF80370694658464C
:1011300000F0F4FD2C484FF4165100240160848027
:10114000C480048184814FF00C08DFF8A090A0F8DF
:101150000A800146484605F01BFB40F2255A012251
:101160005146484605F0FBFA012240F227714846F5
:1011700005F0F5FA0121484605F0C8FA0121880377
:1011800002F00AF82802ADF800008DF802608DF830
:1011900003506946584600F0C1FDE801ADF8000073
:1011A0008DF803706946584600F0B8FD0E484FF4BC
:1011B000E131503801608480C480048184810C4C0A
:1011C000A0F80A800146204605F0E2FA01225146C5
:1011D000204605F0C4FA0121204605F097FABDE843
:1011E000F88F000000080140DC400020004400406F
:1011F00000380140F0B589B0002000F043FCC0B2D7
:10120000A5287ED0A521002000F0C4FC4549444813
:10121000464A08600146444801602021117041712E
:10122000434907220A704349C2710A700272424A56
:1012300096211180414A01713C211170404A41724E
:101240001E2111703F4A8172322111703E4A417352
:10125000012111703D4AC17211703D4A0173022192
:101260001170817303F0DAF9002005466C462554AD
:10127000401CC0B22128FAD3364F0021002007EBD2
:10128000C10201F0010600EB0613E35C1354401C9D
:10129000C0B20828F7D3491CC9B20A29EED301F01D
:1012A0003BFD2D4F0021C1EBC10200203A4401F06B
:1012B000010600EB0613E35C1354401CC0B2072880
:1012C000F7D3491CC9B21429EDD3FFF751FD002013
:1012D0002554401CC0B22128FAD3204E0021002002
:1012E00001F0010506EB011200EB0513E35C13545A
:1012F000401CC0B21028F7D3491CC9B21829EED33C
:1013000000E00AE00024204601F0F0FF641CE4B293
:10131000182CF8D3012009B0F0BD0020FBE7000035
:10132000C057010060000020E04B002019000020A1
:101330001B0000201A000020400000201D0000209B
:101340001E0000201C000020270000202800002094
:101350002900002088000020D8000020EC40002058
:1013600010B5072001F06CFE0649487300F0080034
:10137000C8720A7B904202D00873012010BD002081
:1013800010BD00009C01002010B500F021FD07F009
:10139000C5FE05F001FC07F0A1FE0349C885BDE8C4
:1013A0001040C0B204F0EEBB1800002010B500F0F1
:1013B0003BFD03494885BDE8104004F017BC000020
:1013C0001800002010B500F071FD03498885BDE8C4
:1013D0001040C0B204F022BD180000200D4810B526
:1013E00001884288114402884088101A91FBF0F06D
:1013F000002800DA404280B205F0A6FC0649C0B2DF
:101400006328C87101D96320C871BDE81040C0B21B
:1014100004F038BD304C00201800002010B500F05A
:10142000E5FC07F07BFE05F0CDFC07F057FE034915
:10143000C0B20872BDE8104004F044BD180000209E
:10144000094810B5C08840F2253148434FF47A71FD
:10145000B0FBF1F080B207F061FE05F0FBFC07F095
:101460003DFE0249088610BD304C002018000020C7
:1014700010B504460022104603E0A35C5840521CFD
:10148000D2B28A42F9D310BD70B51F4E044608216E
:10149000304600F098FC4FEA84504FEA1045002493
:1014A00028044FF00201304602D500F08EFC01E026
:1014B00000F089FC0421304600F087FC00F040F881
:1014C0006804050C0421304600F07DFC00F038F87B
:1014D000641CE4B20A2CE3D300240421304600F05B
:1014E00074FC00F02DF80421304600F06CFC00F094
:1014F00027F8641CE4B2022CEFD33046BDE87040FC
:10150000082100F062BC00000010014038B5012144
:10151000102001F041FE0E20ADF8000003208DF8F0
:1015200002001020054C8DF803006946204600F0AB
:10153000F5FB0421204600F046FC38BD00100140B8
:101540000A20401EFDD270470029016802D041F0F8
:10155000010102E04FF6FE72114001607047000089
:1015600001684FF6FE721140016000210160416088
:101570008160C1603349334A0839904203D14868D9
:1015800040F00F0006E02F4A1432904204D1486820
:1015900040F0F000486070472A4A2832904203D158
:1015A000486840F47060F5E7264A3C32904203D127
:1015B000486840F47040EDE7224A5032904203D12F
:1015C000486840F47020E5E71E4A6432904203D137
:1015D000486840F47000DDE71A4A7832904203D13F
:1015E000486840F07060D5E7174A904204D1D1F8BE
:1015F000040440F00F0007E0134A1432904206D171
:10160000D1F8040440F0F000C1F8040470470E4A19
:101610002832904204D1D1F8040440F47060F3E71A
:10162000094A3C32904204D1D1F8040440F470409D
:10163000EAE7054A50329042E8D1D1F8040440F478
:101640007020E1E7080002400804024030B503685A
:1016500047F6F07293430C6A8A682243D1E9044545
:101660002C4322438C692243CC6922434C6A224397
:101670008C6A22431A430260CA6842600A68826028
:101680004968C16030BD70474FF47A7202E011467C
:10169000491EFDD1401EFAD2704700002DE9F047E7
:1016A0008246A2F120000F465B2800D37B22203A1D
:1016B000D0B2114900EB400001EB4000002580460C
:1016C0000AEB050018F8056000248146F00707EBD7
:1016D000040101D0012200E00022484600F034F964
:1016E000641C7608E4B2082CF0D36D1CEDB2062D14
:1016F000E6D3BDE8F0870000009C00082DE9F04724
:101700008246A2F120000F465B2800D37B22203ABC
:10171000D0B2134900EB400001EB400000258046A9
:101720000AEB050018F8056000248146F00707EB76
:10173000040101D0012200E00022484600F004F933
:10174000641C7608E4B2072CF0D30122F91D484648
:1017500000F0FAF86D1CEDB2062DE1D3BDE8F0877C
:10176000009C000810B500F005F8BDE8104000F03E
:101770003DB9000010B50021084C0A4601EB4103B9
:10178000002004EB83131A54401CC0B2C028FAD3C3
:10179000491CC9B20829F1D310BD0000F64300204E
:1017A0002DE9F04106460C4617461D46DDF8188027
:1017B00007E043463A462146304600F02FF9641CC4
:1017C000A4B2AC42F5D3BDE8F0810000CA08074BD3
:1017D00002EB420203EB8212105C01F007020121CE
:1017E0009140084000D0012070470000F6430020DF
:1017F0002DE9FE4F1446894680460025A3EB0901DA
:101800001A46A4EB080000B26B1E2E4609B200284F
:1018100003DD4FF00102009209E007D10C9B03B0F9
:1018200049464046BDE8F04F00F00EB9009300294C
:1018300003DD4FF0010201920AE008D10C9B03B0D6
:10184000224649464046BDE8F04F00F0E7B8019314
:10185000002800DA404200B28346002900DA4942FB
:1018600008B282465946D34501DD0C4600E00446E5
:10187000494640460C9A00F067F80027601C029029
:101880001FE0494640460C9A00F05EF805EB0B005D
:1018900005B206EB0A0006B2A54206DD281B009938
:1018A00005B208EB010080B28046A64206DD301B7F
:1018B000019906B209EB010080B281467F1C0298B3
:1018C0003FB28742DDDDBDE8FE8F2DE9F0411746CE
:1018D00088461E46B84219D8B04517D8054613E0C9
:1018E00044460DE021462846FFF770FF08B100226C
:1018F00000E001222146284600F026F8641CE4B2EC
:10190000B442EFD96D1CEDB2BD42E9D9BDE8F0811A
:1019100030B40B490B4C002202EB4203002004EBD5
:10192000831311F8015B1D54401CC0B2C028F8D3CA
:10193000521CD2B2042AEFD330BC00F057B80000DA
:10194000289E0008F643002030B4C02819D2402950
:1019500017D2CC080C4D04EB440305EB831301F0C4
:10196000070501210344A940002A1A7801D00A433F
:1019700000E08A431A70E1B230BCD2B2C0B200F0CB
:10198000C1BF30BC70470000F64300202DE9F04194
:101990001C46DDF8188006460F461546434600F003
:1019A0003DF843462A462146304600F037F8434684
:1019B00022463946304600F047F84346224639462B
:1019C0002846BDE8F04100F03FB870B505460E4628
:1019D000144606E0641C31462846FFF75FFEAD1D45
:1019E000EDB22278002AF5D170BD000070B50A4E24
:1019F0000025002404EB440006EB80102146425DE4
:101A0000284600F07FFF641CE4B2082CF2D36D1C62
:101A1000EDB2C02DEDD370BDF64300202DE9F041AD
:101A2000154604460F461E46A84209D925461446C7
:101A300006E0324639462046FFF786FF641CA4B212
:101A4000AC42F6D9BDE8F0812DE9F04115460746D4
:101A50001E460C46A94209D90D46144606E03246F8
:101A600021463846FFF770FF641CA4B2AC42F6D999
:101A7000BDE8F0810248012101704170817070471A
:101A8000B60100202DE9F041060AC7B2002500F09A
:101A9000C5FBA02000F078FC00F0ACFA114C2070DF
:101AA000D8B9304600F070FC00F0A4FA2070A0B95C
:101AB000384600F069FC00F09DFA207068B900F02B
:101AC000ADFBA12000F060FC00F094FA207020B97A
:101AD00000F0FEFA054600F04BFB00F0EBFB284659
:101AE000BDE8F081980100202DE9F0410E46154631
:101AF000040AC7B200F092FBA02000F045FC00F001
:101B000079FADFF8888088F80000C0BB204600F032
:101B10003BFC00F06FFA444688F8000078BB38467A
:101B200000F032FC00F066FA207040BB00F076FB5B
:101B3000A12000F029FC00F05DFA2070F8B9002423
:101B4000134F6D1E14E000F0C3FA30558021384663
:101B500000F039F94021384600F037F904F09FFED3
:101B60004021384600F02FF904F099FE641CA4B21D
:101B7000AC42E8DB00F0ACFA305500F0F9FA00F0C6
:101B800099FB98F80000BDE8F08100009801002062
:101B9000000C01402DE9F0410F46050AC6B200F0E5
:101BA0003DFBA02000F0F0FB00F024FA0D4C20706B
:101BB00098B9284600F0E8FB00F01CFA207060B9E4
:101BC000304600F0E1FB00F015FA207028B93846E5
:101BD00000F0DAFB00F00EFA2070BDE8F04100F0F2
:101BE00069BB0000980100202DE9F041040AC0B251
:101BF0000E461746804600F011FBA02000F0C4FB03
:101C000000F0F8F9114D2870D0B9204600F0BCFB67
:101C100000F0F0F9287098B9404600F0B5FB00F0EC
:101C2000E9F9287060B9002408E0305D00F0ACFBF1
:101C300000F0E0F9287018B9641CA4B2BC42F4D3D7
:101C400000F038FB2878BDE8F08100009801002002
:101C5000014908607047000014040140034A01462E
:101C6000002012680A4200D001207047140401408D
:101C700030B51F4A8179036899B311460C6824EA8C
:101C800003040C604B68046823EA04034B60047986
:101C900004EB02031C68056844EA05041C608B68B9
:101CA000046823EA04038B60CB68046823EA040316
:101CB000CB604379A1F58061102B05D099180A6893
:101CC000006802430A6030BD01F581610A6803685B
:101CD00042EA03020A604A68006842EA00024A6077
:101CE00030BDFFE700791044016899430160F7E7D0
:101CF0000004014010B58A0721F003040649120FC1
:101D000021440F238C6893409C438C608B689040E7
:101D100003438B6010BD000000000140F0B5CC789B
:101D2000002204F00F03E40601D58C7823430C88CD
:101D30004FF00F0C14F0FF0F4FF0010E1AD0056892
:101D40000E880EFA02F42640A6420FD196000CFA35
:101D500006F7BD4303FA06F63543CE78282E02D0A7
:101D6000482E02D002E0446100E00461521C082ABF
:101D7000E6D305600A88FF2A1DD94568002202F1D2
:101D800008060EFA06F40E882640A6420FD19600E9
:101D90000CFA06F725EA070703FA06F5CE783D4365
:101DA000282E00D14461CE78482E00D10461521C07
:101DB000082AE4D34560F0BD0246002092680A423A
:101DC00000D00120704741617047016170470000F9
:101DD0000548008940F22531484347F23051B0FBB5
:101DE000F1F080B270470000304C00200D48808830
:101DF00040F2253148434FF47A71B0FBF1F040F2E4
:101E0000DC51884201D363207047B0F5FA7F07D3D5
:101E1000A0F5FA700A21B0FBF1F0C0B26428F3D348
:101E200000207047304C002070B51C48008840F2FC
:101E3000253148434FF47A71B0FBF1F007F06EF9A9
:101E400004F0F2FE07F04AF9154D2864404306F00D
:101E5000FEFE144C0022234606F074FD00222346A9
:101E600006F070FD06F03CFD0446A86C41F2883196
:101E7000B0FBF1F00C4901EB40000A2130F81C0CDA
:101E8000B0FBF1F007F04AF9214607F08FF9022183
:101E900007F037FB07F022F980B270BD304C00200C
:101EA0001800002000408F40A895000870B51C481D
:101EB000408840F2253148434FF47A71B0FBF1F08D
:101EC00007F02CF904F0F8FE07F008F9154D6864E6
:101ED000404306F0BCFE144C0022234606F032FDBF
:101EE0000022234606F02EFD06F0FAFC0446A86CFC
:101EF00041F28831B0FBF1F00C4901EB40000A21BE
:101F000030F81C0CB0FBF1F007F008F9214607F09F
:101F10004DF9022107F0F5FA07F0E0F880B270BD44
:101F2000304C00201800002000408F40A895000889
:101F3000FEE70000F8B501246602ADF80060482015
:101F4000134D8DF8030069462846FFF7E7FE270288
:101F500039462846FFF739FF04F099FC31462846F8
:101F6000FFF72AFF00B9002439462846FFF72BFF68
:101F700004F08DFCADF8006010208DF80300032004
:101F80008DF8020069462846FFF7C8FE2046F8BDD6
:101F9000000C0140F8B50124E602ADF800604820CD
:101FA000134D8DF8030069462846FFF7B7FEA702D8
:101FB00039462846FFF709FF04F06DFC31462846F4
:101FC000FFF7FAFE00B9002439462846FFF7FBFE6A
:101FD00004F061FCADF8006010208DF803000320D0
:101FE0008DF8020069462846FFF798FE2046F8BDA6
:101FF000000C0140F8B58026ADF800604820144D73
:102000008DF80300012469462846FFF787FE40212A
:102010002846FFF7DAFE04F042FC80212846FFF74D
:10202000CBFE00B9002440212846FFF7CCFE04F087
:1020300036FCADF8006010208DF8030003208DF809
:10204000020069462846FFF769FE2046F8BD0000F9
:10205000000C01402DE9F8434FF40066ADF8006034
:1020600048201A4F8DF80300002469463846FFF7D0
:1020700055FEB04600253E463F156006040E394623
:102080003046FFF7A2FE04F006FC41463046FFF75B
:1020900093FE012801D144F0010439463046FFF790
:1020A00092FE04F0F8FB6D1CEDB2082DE5D3ADF8FF
:1020B000008010208DF8030003208DF8020069468F
:1020C0003046FFF72BFE2046BDE8F883000C0140A8
:1020D000F8B58027ADF800704820184E8DF8030041
:1020E000002469463046FFF719FE00256006040EFD
:1020F00040213046FFF769FE04F0D1FB80213046D5
:10210000FFF75AFE012801D144F001044021304676
:10211000FFF759FE04F0C3FB6D1CEDB2082DE5D3AB
:10212000ADF8007010208DF8030003208DF8020038
:1021300069463046FFF7F2FD2046F8BD000C01402D
:1021400070B50A4C4FF400612046FFF73EFE25159E
:1021500029462046FFF739FE04F09DFB294620461C
:10216000FFF731FEBDE8704004F095BB000C014064
:1021700010B5094C80212046FFF727FE402120465C
:10218000FFF723FE04F08BFB40212046FFF71BFEE8
:10219000BDE8104004F083BB000C014070B50E4D4B
:1021A0004FF4007421462846FFF70FFE66103146B3
:1021B0002846FFF70AFE04F06AFB21462846FFF78F
:1021C00002FE04F064FB31462846FFF7FCFDBDE843
:1021D000704004F05CBB0000000C014070B50E4D77
:1021E0004FF4006421462846FFF7EFFD66103146A4
:1021F0002846FFF7EAFD04F04EFB21462846FFF78C
:10220000E2FD04F048FB31462846FFF7DCFDBDE85F
:10221000704004F040BB0000000C014010B50C4CB5
:1022200080212046FFF7D1FD40212046FFF7CDFD5C
:1022300004F035FB80212046FFF7C5FD04F02FFB9D
:1022400040212046FFF7BFFDBDE8104004F027BB4A
:10225000000C014070B50A4D4FF400742146284629
:10226000FFF7B1FD61102846FFF7AFFD04F00FFB4B
:1022700021462846FFF7A9FDBDE8704004F007BBE2
:10228000000C014070B50A4D4FF400642146284609
:10229000FFF799FD61102846FFF797FD04F0FBFA60
:1022A00021462846FFF791FDBDE8704004F0F3BADF
:1022B000000C014010B5094C80212046FFF783FD3A
:1022C00040212046FFF781FD04F0E9FA80212046F5
:1022D000FFF77BFDBDE8104004F0E1BA000C0140BF
:1022E0002DE9F0410824124F05464FF400786601AD
:1022F00028064146384602D5FFF767FD01E0FFF7A3
:1023000062FD04F0C4FA31463846FFF75EFD04F082
:10231000BEFA6806050E31463846FFF754FD04F054
:10232000B6FA641E14F0FF04E2D1BDE8F0810000AB
:10233000000C01402DE9F0410824124F05464FF4EE
:102340000068E60128064146384602D5FFF73DFD04
:1023500001E0FFF738FD04F09EFA31463846FFF7FA
:1023600034FD04F098FA6806050E31463846FFF74A
:102370002AFD04F090FA641E14F0FF04E2D1BDE8D7
:10238000F0810000000C014070B5114E0546082494
:1023900028064FF08001304602D5FFF716FD01E018
:1023A000FFF711FD04F07BFA40213046FFF70DFDE9
:1023B00004F075FA6806050E40213046FFF703FD6C
:1023C00004F06DFA641E14F0FF04E1D170BD00004A
:1023D000000C01400023064A06490748DFF81CC0EC
:1023E00000DF0749DFF81CC04865002000DF00005F
:1023F000603D0020012003005D6F00088985000812
:10240000180000201986000810B50120FFF726FCEF
:10241000054CA178084305D00120FFF719FC0020E6
:10242000A070012010BD00008001002010B5104CEC
:10243000E078012808D101210E48FFF7BDFC0021FA
:1024400018B1A181E181E17010BDA089502801D2AD
:10245000401CA08180B25028F6D1E089401C80B297
:10246000E0811428F0D1E1810120A07010BD0000AE
:1024700080010020000C014070B54FF480552846C3
:10248000FFF7ECFB054C6179084305D02846FFF7C0
:10249000DFFB00206071012070BD00008001002082
:1024A00010B5104C2079012808D101030E48FFF720
:1024B00083FC002118B121826182217110BD208A24
:1024C000502801D2401C208280B25028F6D1608A68
:1024D000401C80B260821428F0D1618201206071BA
:1024E00010BD000080010020000C014010B510203C
:1024F000FFF7B4FB002803D01020FFF7A9FB012051
:1025000010BD10B50220FFF7A9FB002803D0022060
:10251000FFF79EFB012010BD10B58020FFF79EFB4A
:10252000002803D08020FFF793FB012010BD00009E
:1025300010B52020FFF792FB054CA179084305D088
:102540002020FFF785FB0020A071012010BD0000B6
:102550008001002010B5104CE079012808D120211D
:102560000E48FFF729FC002118B1A182E182E17138
:1025700010BDA08A502801D2401CA08280B25028F1
:10258000F6D1E08A401C80B2E0821428F0D1E182CA
:102590000120A07110BD000080010020001001404A
:1025A00010B50420FFF754FB0120FFF751FB4FF457
:1025B0008050FFF74DFB2020FFF74AFB0220FFF77A
:1025C00047FB1020FFF744FBBDE810408020FFF7D9
:1025D0003FBB000010B50420FFF740FB054C6178BD
:1025E000084305D00420FFF733FB00206070012072
:1025F00010BD00008001002010B5104C207801288B
:1026000008D104210E48FFF7D7FB002118B1218122
:102610006181217010BD2089502801D2401C208189
:1026200080B25028F6D16089401C80B260811428A5
:10263000F0D161810120607010BD00008001002098
:10264000000C0140FEB501213D2000F0A5FD48240D
:102650008DF8034041F227003A4DADF8000069467D
:102660002846FFF75BFB8DF8034041F63040364EBD
:10267000ADF8000069463046FFF750FB8020ADF80A
:10268000000069463148FFF749FB07210020FFF7AA
:1026900031FB00210120FFF72DFB01210846FFF748
:1026A00029FB02210120FFF725FB0C210120FFF768
:1026B00021FB04210220FFF71DFB05210220FFF76B
:1026C00019FB00208DF808000C208DF8090001206E
:1026D0008DF80A0041F2B700019001A8FFF7C8FA8F
:1026E0004FF4C044ADF8004010208DF803000320E3
:1026F0008DF8020069462846FFF710FB2146284660
:10270000FFF761FB42F20100ADF800006946304678
:10271000FFF704FB69143046FFF755FB01213046F3
:10272000FFF753FB0420ADF800001420084C8DF88F
:10273000030069462046FFF7F1FA04212046FFF71F
:1027400044FBFEBD000C01400010014000080140A8
:10275000001401404FF480510148FFF734BB0000E2
:102760000008014070B500250024002229462046BB
:1027700000F0C8F8641CE4B2C02CF6D36D1CEDB2B6
:10278000082DF1D370BD00002DE9F0410746064643
:102790001248884600EB0214A4F50074002514F8D2
:1027A000012B4146304600F0ADF8761C6D1CEDB2B1
:1027B000F6B2082DF3D308F10100C6B2002514F8D3
:1027C000012B3146384600F09DF87F1C6D1CEDB2A0
:1027D000FFB2082DF3D3BDE8F08100001096000889
:1027E00010B54FF400710C48FFF7EFFA0B4C4FF4A3
:1027F00080712046FFF7E9FAE1142046FFF7E5FA79
:102800003E2004F051F83E2004F062F8BDE810408C
:102810003E2004F071B800000010014000080140A3
:1028200010B54FF400710C48FFF7CFFA0B4C4FF482
:1028300080712046FFF7C9FAE1142046FFF7C5FA78
:102840003F2004F031F83F2004F042F8BDE810408A
:102850003F2004F051B80000001001400008014082
:1028600070B505460E46144606E0641C31462846FF
:10287000FFF78AFF0835EDB22278002AF5D170BD46
:1028800038B501211C2000F087FC4FF47070ADF8C2
:10289000000010208DF8030003248DF802406946E3
:1028A0001548FFF73BFA4FF41060144DADF80000E7
:1028B00069462846FFF732FA4FF40041ADF80010A0
:1028C00069460F48FFF72AFAA814ADF80000142053
:1028D0008DF803008DF8024069462846FFF71EFA7E
:1028E000FFF77EFFFFF73EFFFFF79AFFBDE8384096
:1028F000002000F063B80000001001400008014013
:10290000000C01402DE9F04706460D469246072986
:102910004CD8274C274FB0094FF400714FF4807802
:102920004FF400692ED0012834D002283ED1384619
:10293000FFF74BFA41462046FFF747FA4946204643
:10294000FFF741FA06F03F00403000F05DF8B8357F
:10295000E8B200F059F8544672B64FF400411648F8
:10296000FFF733FA204601F0D3FE40213846FFF747
:102970002CFA40213846FFF726FA62B6BDE8F04748
:1029800004F006B93846FFF71EFA41462046FFF725
:102990001CFA06E03846FFF718FA41462046FFF7D2
:1029A00012FA49462046FFF710FACBE7BDE8F08758
:1029B0000008014000100140000C014070B50446C1
:1029C00040281BD24FF400710D48FFF7FEF90D4D62
:1029D0004FF480712846FFF7F8F9E9142846FFF70D
:1029E000F4F9C034E0B2044603F05EFF204603F081
:1029F0006FFF2046BDE8704003F07EBF70BD000051
:102A0000001001400008014010B5044672B64FF4B2
:102A100000410A48FFF7D7F9204601F079FE084C3B
:102A200040212046FFF7D1F940212046FFF7CBF99E
:102A300062B6BDE8104004F0ABB80000000C0140E5
:102A4000001001400D4D4FF4804421462846FFF709
:102A5000BCF90A20DFF828C000DF21462846FFF72E
:102A6000B2F901220A211046DFF818C000DF02285F
:102A7000EBD10020DFF810C000DFE6E7000C0140DA
:102A8000C57D0008A57E000819860008FEE770478E
:102A9000F8B54FF4E06000F061F826208DF80000F2
:102AA00004208DF8020001248DF80340684600F0F0
:102AB00027F825208DF8000000258DF802508DF8AC
:102AC00001408DF80340684600F01AF803208DF8A5
:102AD00000008DF8015002268DF802608DF8034049
:102AE000684600F00DF81D208DF800008DF80150AB
:102AF0008DF802608DF80340684600F001F8F8BDDB
:102B000070B50F24C27801784FF0E0230126E2B1BE
:102B1000D3F80C2D194402F4E062C2F5E062120A07
:102B2000C2F10405D4404278AA4085782540154377
:102B30002A0181F80024007800F01F018E4040092E
:102B400003EB8000C0F8006170BD01F01F008640FB
:102B5000480903EB8000C0F8806170BD024908435A
:102B600002490860704700000000FA050CED00E023
:102B70000EB500200124DFF8E480394E01904FF6B5
:102B8000FF770825029098F80B100029FBD198F8E0
:102B90001200002846D0012439463248DFF8C8C068
:102BA00000DFFEF723FF30784FF00803009510B1E7
:102BB0002E4A012101E02E4A0A21B52003F0A4F893
:102BC0002848DFF8B0C000DF3220DFF8ACC000DFFB
:102BD00039462448DFF890C000DFFEF707FF307861
:102BE0004FF0080301AA009540B10121B52003F080
:102BF0008BF808231E4A0A21009507E00B21B52017
:102C000003F082F80823194A01210095B52003F04A
:102C10007BF81448DFF85CC000DF3220DFF858C0D2
:102C200000DFB0E7002CAED039460E48DFF838C0E0
:102C300000DF002408230E4A0A21B520009503F086
:102C400063F80823094A0121B520009503F05CF8D8
:102C50000448DFF820C000DF95E7000018000020DE
:102C6000A20100208040002065810008A0A2000889
:102C700098A20008B9800008C57D00082DE9F04140
:102C8000244A61277326537C947C002102F15C0561
:102C900006281FD2DFE800F01E030C1533362F7014
:102CA0006E70D06B0078A870106C0078E8702EE021
:102CB000672028706E70AB70EC70D07C28716971E1
:102CC00008E0742028706E70AB70EC70107D287175
:102CD000507D68710F48A9715C3000F0FDFAE87111
:102CE000002404F10800295DC0B200F0D1F9641C91
:102CF000E4B2082CF5D3BDE8F04105F09DBD2F707E
:102D00006F2001E02F7063206870A970E97029714D
:102D1000D5E700009C0100202DE9F0418AB0134F57
:102D200000246D464FF02008002007EBC40304F098
:102D300001011A5C00EB0116401CC0B2AA5508281C
:102D4000F7D3E0070AD0610808EB4110202269465A
:102D5000FEF74AFF0520DFF818C000DF641CE4B26C
:102D60000A2CE1D30AB0BDE8F08100008800002001
:102D7000C57D0008F0B589B00024114E20276D46AE
:102D8000E0070AD1600807EB401020226946FEF7F1
:102D9000ABFE0520DFF82CC000DF002004F00103AB
:102DA00006EBC40100EB0312AA5C0A54401CC0B23B
:102DB0000828F7D3641CE4B20A2CE1D309B0F0BDB3
:102DC00088000020C57D00083EB511A0D0E90010A4
:102DD000CDE901100121082000F0DEF94FF4407424
:102DE000ADF8004003208DF8020010200A4D8DF848
:102DF000030069462846FEF791FF21462846FEF764
:102E0000E4FF062101A800F00BF8044908703EBD5C
:102E10005CC0E0006F7F0000000C01407C010020DE
:102E20002DE9F04106460F46FFF7B8F98820FFF775
:102E300057FAFFF77FF805000CD1002408E0305D59
:102E4000FFF74EFAFFF776F8050003D1641CE4B2F1
:102E5000BC42F4D3FFF7FEF92846BDE8F08170B517
:102E60000546FFF79BF98820FFF73AFAFFF762F86B
:102E7000040005D12846FFF733FAFFF75BF8044654
:102E8000FFF7E8F9204670BD10B500F00F0040F0E4
:102E90006000FFF7E4FF0149087010BD7C010020CD
:102EA00010B5402251B1012909D0022902D00329CD
:102EB00007D101E0482202E0502200E05C22042811
:102EC00001D9012010BD401E0243D0B2FFF7C7FF59
:102ED0000149087010BD00007C01002010B500F011
:102EE0000F0040F07000FFF7BAFF0149087010BDF5
:102EF0007C01002010B5202801D9012010BDC0F1AF
:102F00002000C0B2FFF7ABFF0149087010BD000000
:102F10007C010020014908627047000000000E4259
:102F20002DE9F047DFF844A080468946002505EBEF
:102F3000450000EBC5000AEB400605EB4500002408
:102F400009EB800704EB440308EB4300325DF9B260
:102F5000C0B2FEF7A3FB641CE4B2162CF2D36D1CC6
:102F6000EDB2042DE3D3BDE8F0870000B89500086A
:102F700000224EF66023002101E0491C89B2814203
:102F8000FBD3521C92B29A42F5D3704738B5012157
:102F9000082000F001F94FF44C60ADF80000142057
:102FA0008DF803000320254C8DF802006946204669
:102FB000FEF7B4FEC0212046FEF707FF8121002066
:102FC00000F066F86420FFF7D3FF3F21032000F0F4
:102FD0005FF85121042000F05BF8402211460020E8
:102FE00000F0A0F800214022084600F09BF8642081
:102FF000FFF7BEFFE421182000F04AF8F0211B2063
:1030000000F046F8C821112000F042F840211F20AE
:1030100000F03EF8012000F07AF8B921022000F01B
:1030200037F82221002000F033F8002000F066F885
:10303000BDE838406420FFF79BBF0000000C014052
:1030400070B506460025FFF7C9F85820FFF772F95A
:10305000FEF7A0FF0D4C2070A0B93046FFF76AF9CB
:10306000FEF798FF207068B9FFF7B8F85920FFF70E
:1030700061F9FEF78FFF207020B9FEF7EBFF0546E0
:10308000FFF75EF8FFF7FEF8284670BD7D010020CF
:1030900070B506460D46FFF7A1F85820FFF74AF92C
:1030A000FEF778FF094C207060B93046FFF742F90F
:1030B000FEF770FF207028B92846FFF73BF9FEF7AE
:1030C00069FF2070BDE87040FFF7DCB87D0100208B
:1030D00070B50546010A074C07480322A17001702C
:1030E000002000F01FF8E9B2A170BDE87040012097
:1030F000FFF7CEBF7D010020000200204FF010023C
:1031000008B1102100E00021002000F00BB818B138
:10311000A0211220FFF7BCBF80220021122000F066
:1031200001B8000070B50E4614460546FFF788FF4B
:10313000E143C9B20840054A06EA0401014351705F
:103140002846BDE87040FFF7A3BF00007D010020C6
:10315000044A0029516901D0014300E081435161D3
:103160007047000000100240044A0029D16901D0D4
:10317000014300E08143D16170470000001002402C
:10318000044A0029116901D0014300E08143116123
:103190007047000000100240044A0029916901D0E4
:1031A000014300E08143916170470000001002403C
:1031B000044A0029D16801D0014300E08143D16075
:1031C000704700000010024001490860704700008D
:1031D00040044242214A10B55168214B11F00C01C4
:1031E00003D0042901D0082901D0036012E05168FE
:1031F000536801F470114FF0020413F4803F04EBA4
:10320000914102D053689B0301D5164B00E0144B4B
:10321000594301605168144B01F0F00109095C5CED
:103220000168E1404160546804F4E064240A1C5DD4
:1032300021FA04F48460546804F46054E40A1B5DC9
:10324000D940C1605268084B02F44042920B1B1FE8
:103250009A5CB1FBF2F1016110BD00000010024068
:1032600000127A0000093D000400002003460020FF
:103270005909094A01290AD002290AD0516A03F0E2
:103280001F02012393400B4200D0012070471168B8
:10329000F5E7116AF3E7000000100240064900223A
:1032A0000A7001F82029012802D0042802D1052043
:1032B00081F820007047000020100240014908609A
:1032C000704700003C04424202490A6A02430A6213
:1032D0007047000000100240024600210846535C7F
:1032E000491C5840C9B20729F9D370472DE9F0416C
:1032F0008AB0DFF8548000246D4600EB40060020C1
:1033000008EB041304F001011A5C00EB0117401CE8
:10331000C0B2EA551028F7D3E0070ED0600840018C
:1033200000EBC61000F5087080B220226946FEF757
:103330005BFC0520DFF814C000DF641CE4B2182C2D
:10334000DDD30AB0BDE8F081EC400020C57D000867
:10335000F0B589B0144F002400EB40066D46E0073D
:103360000ED16008400100EBC61000F5087080B275
:1033700020226946FEF7B8FB0520DFF830C000DFE9
:10338000002004F0010307EB041100EB0312AA5C18
:103390000A54401CC0B21028F7D3641CE4B2182CA5
:1033A000DDD309B0F0BD0000EC400020C57D000871
:1033B000FEF760FB05F062FA03F0E8FA04F032FC75
:1033C000124C1148DFF848C06065A0F5E27000DFDC
:1033D00000231A4601210F48DFF83CC000DF00231C
:1033E00060631A4601210D48DFF82CC000DF00237E
:1033F000A0631A4601210A48DFF81CC000DF2063E1
:103400000020DFF820C000DFE04B00209C010020FE
:10341000A980000829340008898500088D35000836
:10342000A13800081986000818490020184C0860C7
:10343000207A10B1012820D022E0E07806281FD29F
:10344000DFE800F0030F11131517FDF789FF0128BE
:1034500016D1607910B100F01FF811E000F042F9C8
:103460000EE0012006E0022004E0032002E0042038
:1034700000E0052000F0AEF802E02079FFF7FEFB47
:103480000220DFF810C000DFD2E700007801002042
:103490009C010020C57D000870B50E4D00202870ED
:1034A0006870A870E87028716871A8712846FFF7E5
:1034B00013FFE871002404F10800295DC0B2FFF792
:1034C000E7FD641CE4B2082CF5D3BDE8704005F0BC
:1034D000B3B90000F80100202DE9FC410027009756
:1034E00074208DF80000274E012001978DF801000F
:1034F00096F8220096F82010234D08448DF802001B
:10350000A86A0178D1B1696A11F8012B8DF80320FE
:103510006962027892B111F8012B8DF8042069627A
:1035200002785AB111F8012B8DF8052069620078F4
:1035300020B111F8010B8DF8060069626846FFF7AB
:10354000CBFE8DF807000024E84604F1080018F8C7
:103550000410C0B2FFF79CFD641CE4B2082CF4D345
:1035600005F06AF916F8200F401CC0B23070F178EF
:10357000A6F12006884202D16E6286F82070BDE86E
:10358000FC810000F84900209C0100200F4D002420
:1035900068790028FCD1641CE4B2012C07D0022C0D
:1035A0000CD000240220DFF828C000DFF0E7FDF790
:1035B000D7FE0128F6D100F069F8F3E7FDF7D0FE59
:1035C0000128EFD1FFF788FFECE700009C01002005
:1035D000C57D000870B50446FDF7C2FE002851D035
:1035E000294A61237320002102F15C05062C2AD2AE
:1035F000DFE804F029030C1A3E412B706870D06B91
:103600000078A870106C0078E87039E067232B70A0
:103610006870D06B0078A870506C0078E870906C7F
:103620000078287169710EE074232B706870D06B7C
:103630000078A870506C0078E870D06C0078287121
:10364000106D007868711048A9715C30FFF744FE76
:10365000E871002404F10800295DC0B2FFF718FDED
:10366000641CE4B2082CF5D3BDE8704005F0E4B862
:103670002B706F2001E02B7063206870A970E970D7
:103680002971CFE770BD00009C0100207CB50020AF
:10369000009070218DF800101149019009788DF883
:1036A00001108DF804008DF802008DF805008DF8EA
:1036B00003008DF806006846FFF70EFE8DF8070040
:1036C00000246D4604F10800295DC0B2FFF7E0FC5C
:1036D000641CE4B2082CF5D305F0AEF87CBD000004
:1036E000270000202DE9F047404B00218AB09A7A4C
:1036F00008460A2A00D998723C4A824658323C4C05
:10370000107050709070D0709E7A0020994604EB33
:1037100006176D4601F00108062300EB0814395C1A
:10372000295503280AD8C0F1000C03EB4C0492F889
:1037300000C001FA04F444EA0C041470041F032CC2
:103740000AD8C0F1040C03EB4C0492F801C001FA52
:1037500004F444EA0C045470A0F10804032C0AD8C1
:10376000C0F1080C03EB4C0492F802C001FA04F417
:1037700044EA0C049470A0F10C04032C07D8C0F1A7
:103780000C0403EB4404A140D4782143D170401CC5
:10379000C0B21028C1D3154C53205C344D46207064
:1037A000144800786070A6701078E070507820712E
:1037B00090786071D078A0712046FFF78DFDE071A0
:1037C000002606F10800A15DC0B2FFF761FC761C7F
:1037D000F6B2082EF5D305F02FF80749C1F800A07E
:1037E000A87A401CA8720AB0BDE8F0879C010020AE
:1037F000EC40002028000020780100202DE9FC4149
:103800000026009677208DF80000234D01200196B8
:103810008DF80100E87BA97808448DF80200A86AB9
:103820000178A9B18DF80310401CA862017879B124
:103830008DF80410401CA862017849B18DF805107C
:10384000401CA862017819B18DF80610401CA862CE
:103850006846FFF741FD8DF8070000246F4604F12C
:103860000800395DC0B2FFF713FC641CE4B2082CF9
:10387000F5D304F0E1FFA878401CC0B2A870297C01
:10388000884207D1687808B1044801E0034820382D
:10389000A862AE70BDE8FC819C010020484A00206F
:1038A000064C607928B9FDF75BFD012801D1FFF7CF
:1038B000A5FF0220DFF808C000DFF2E79C0100202E
:1038C000C57D000802490A8822EA00020A80704782
:1038D0000428004010B501214FF0C050FFF744FC10
:1038E0000120FFF717FBFDF7EBFB0120FFF7D6FCEC
:1038F0004120FFF7BBFC0028FAD04FF48070FFF79F
:10390000E3FC0120FFF7DAFC00F0B0F800F0A6F8C5
:103910000121084600F076F800F0A0F847F6FF70A5
:1039200000F08CF8BDE8104000F098B8024801881B
:1039300041F01001018070470428004002480188CE
:1039400021F0100101807047042800400249888856
:10395000098840EA0140704718280040064A9188CB
:10396000128801EA0001C9B2024202D009B1012065
:1039700070470020704700000028004010B501206B
:10398000FFF7ECFF00B30120FFF79CFF00F066F8A3
:10399000FFF7DCFF1549884204D3002000F040F80F
:1039A00000F05CF812490120087012490888401C98
:1039B00080B20880782807D9002008800E49087056
:1039C0000E4908700E4908700220FFF7C7FF10B1BA
:1039D0000220FFF777FF0420FFF7C0FF002804D084
:1039E000BDE810400420FFF76DBF10BD80510100FD
:1039F000330000206A0100202A000020A0010020DE
:103A0000A4010020054A0029B2F8001801D00143A2
:103A100000E08143A2F80018704700000020004039
:103A200000B50246FFF782FF0348110C0180828037
:103A30005DF804EBFFF782BF1828004000B502468E
:103A4000FFF774FF0448C2F30341018082805DF8F0
:103A500004EBFFF773BF0000082800400248B0F8ED
:103A600004188906FBD57047002000400548B0F8CF
:103A7000041821F00801A0F80418B0F80418090788
:103A8000FBD570470020004070B51249124E134D0F
:103A90008879707200EBC00202EB00100024284409
:103AA0001922C91DFCF7F1FC707A0E2810D10C4EBA
:103AB0000021002006EB01122B5D1354641C401CF6
:103AC000C0B2A4B20F28F7D3491CC9B21829F0D349
:103AD00070BD00009C4000209C010020684A00202E
:103AE000EC40002010B50F4C2021206AFCF71AFD95
:103AF0000D4801780F2901D90F210170CAB2D21FD8
:103B00000A49206AFCF7C1FC206A082180F82110CC
:103B1000002100F120000222C2704FF020028270CA
:103B2000017010BD9C0100206E010020A14000200A
:103B300070B520210D48FCF717FD0D4C0D490B48C1
:103B400022781546D21FFCF7A0FC0B4AED1FE8B205
:103B5000907300212170810700D0012101EB9000BA
:103B600010740001D0730120507070BD484A0020CD
:103B70006E010020A14000209C0100202DE9FC5F87
:103B8000002001248146834602F064FEF9488178D2
:103B90008DF8061041788DF8051000788DF8040036
:103BA000FEF7FEFC00253F23BE22272101200095C1
:103BB000FDF7F6FDF0A227210120FDF706FFF3A295
:103BC0002F211420FDF701FFF5A237211420FDF766
:103BD000FCFEDFF8E0A30A27E64E4FF47A70383E89
:103BE0002F21F0663220B0867078B0FBF7F03030CD
:103BF000C2B22C20FDF752FD7078B0FBF7F107FB45
:103C0000110230322F213220FDF748FD3079322861
:103C10007ED037222F214A20FDF740FD35222F216B
:103C20005020FDF73BFDD3483838C678072E02D91F
:103C3000C6F11700C6B2B6FBF7F080463030C2B20C
:103C40002F217420FDF72AFD07FB186230322F2147
:103C50007A20FDF723FDC74838388678072E02D929
:103C6000C6F11700C6B2B6FBF7F080463030C2B2DC
:103C700037217420FDF712FD07FB1862303237211F
:103C80007A20FDF70BFD9DF804003721B0FBF7F01B
:103C90003030C2B23220FDF701FD9DF80400B0FBC8
:103CA000F7F107FB1102303237213820FDF7F6FC1F
:103CB0009DF805003721B0FBF7F03030C2B2442048
:103CC000FDF7ECFC9DF80500B0FBF7F107FB1102D6
:103CD000303237214A20FDF7E1FC9DF806003721FC
:103CE000B0FBF7F03030C2B25620FDF7D7FC9DF89C
:103CF0000600B0FBF7F107FB1102303237215C20E0
:103D0000FDF7CCFC082C17D0ABA23721A02000E097
:103D10000BE0FDF75AFEDFF85C82A8F13808464652
:103D200098F81B00012809D00EE035222F214A20E7
:103D3000FDF7B4FC302272E7A1A2E6E7F57602F0C7
:103D400089FD8C4802F008F9FEF796FB012818D08F
:103D5000FEF7EEFB01281BD0FEF73CFC01281DD02E
:103D6000FEF752FB01285CD0FEF7CBFB012872D096
:103D7000FEF7BCFB01286FD0B08EB04600286CD097
:103D8000C8E1641E14F0FF047FF426AF082423E783
:103D9000641CE4B2082CFAD901241DE78A490120E9
:103DA000082C0870F3D2DFE804F004055915172237
:103DB0002D3A11E798F801004646202843D2401CCE
:103DC00040E04B2100E0322188F80410DAF80000CE
:103DD000417301E7012147E09DF80400401CC0B297
:103DE0008DF80400172817D98DF8045014E09DF8B9
:103DF0000500401CC0B28DF805003B280CD98DF899
:103E0000055009E09DF80600401CC0B28DF8060080
:103E10003B2801D98DF8065001208346DCE60121BC
:103E200055E06A490120082C0870B0D2DFE804F0A0
:103E30000405161B2A36424ECEE698F80100464687
:103E400008B1401E7070C0B2FFF754F8DAF80000F5
:103E500071784171C0E648E061E154E098F80410DF
:103E60003229B0D1ADE700214248353802F0D2F90D
:103E7000464698F80300FFF731F8DAF80000F178C9
:103E8000C171A9E69DF80400401EC0B28DF804007F
:103E900018288ED917208DF804009DE69DF805009E
:103EA000401EC0B28DF805003C2892D93B208DF809
:103EB000050091E69DF80600401EC0B28DF8060090
:103EC0003C2886D93B208DF8060085E6002129484C
:103ED000363802F09FF9464698F80200FEF7D4FF04
:103EE000DAF80000B178017276E600F097FBBBF1DA
:103EF000010F02D101A800F009FDFEF702FB012825
:103F0000FBD0BDE8FC9F32204646A8F83400B9F14A
:103F1000000F63D000208146082C12D2DFE804F0A5
:103F2000FA040A12171D2358362337222F212C207A
:103F3000009504E0362355222F214A200095FDF7F5
:103F40002FFCE7E036237F222F21009544E03F231A
:103F50003D22372132200095F1E73F234F223721C0
:103F600044200095EBE73F2361223721562000953E
:103F7000E5E7000050000020534554204175646976
:103F80006F20414E442054696D650000564F4C3AF5
:103F90002D2D50453A2D2D757320483A2D2D0000BA
:103FA00054696D65202D2D3A2D2D3A2D2D20423A44
:103FB0002D2D0000F00100202045786974000000DC
:103FC0003E457869740000008001002083010020D4
:103FD0003F237F22372100957420B0E701208146DE
:103FE000082C7ED2DFE804F09604162A576B814035
:103FF00070782F21B0FBF7F03030C2B22C20FDF7E3
:104000004DFB7078B0FBF7F107FB110230322F2126
:1040100032207DE098F80400322808D037222F2182
:104020004A20FDF73BFB35222F21502070E035223E
:104030002F214A20FDF732FB3022F5E798F8036084
:10404000072E02D9C6F11700C6B2B6FBF7F00090F2
:104050003030C2B22F217420FDF720FB009807FBFF
:10406000106230322F2114E098F80260072E02D936
:10407000C6F11700C6B2B6FBF7F000903030C2B2FE
:1040800037217420FDF70AFB009807FB10623032DD
:1040900037217A203CE09DF804003721B0FBF7F08F
:1040A0003030C2B23220FDF7F9FA9DF80400B0FBBF
:1040B000F7F107FB110230323721382028E09DF854
:1040C00005003721B0FBF7F03030C2B24420FDF7D5
:1040D000E5FA9DF80500B0FBF7F107FB110230325D
:1040E00000E017E037214A2012E09DF80600372152
:1040F000B0FBF7F03030C2B25620FDF7CFFA9DF892
:104100000600B0FBF7F107FB1102303237215C20CB
:10411000FDF7C4FAD8F86C0000287FF400AE00F078
:104120007DFAEEE62DE9F84F002501242E46FEF734
:1041300037FA002000903F23BE2227210120FDF7FF
:104140002FFB70A227210120FDF73FFC72A22F2137
:104150001420FDF73AFC76A237211420FDF735FC38
:10416000DFF8DC91DFF8DCA1774FA3464FF032088F
:104170004FF47A70F866A7F83480B86C00F048FB0A
:10418000388D00F08BFB022C07D020222F218C20B1
:10419000FDF784FA042C0ED004E03E222F218C205F
:1041A000FDF77CFA69A23721A020FDF70EFCF87E0E
:1041B000012802D009E067A2F5E70020F87602F0B6
:1041C00049FB6148383001F0C7FEFEF755F9012878
:1041D00014D0FEF7ADF9012816D0FEF7FBF901283F
:1041E00018D0FEF711F901282BD0FEF77FF901282E
:1041F00056D0FEF786F9012843D046E0641E14F03D
:10420000FF04B5D10424B3E7641CE4B2042CAFD995
:104210000124ADE75149012C81F800B008D0022CEF
:10422000A6D0032CA4D1388D9628A1D2401C14E02E
:10423000B86C4B4A64303946B86490421BD949483F
:1042400018E08AF800B0012C0CD0022C90D0032C7E
:104250008ED1388D00288BD0401E3885D9F80010BB
:10426000087185E7B86C3F4A64383946B8649042B3
:1042700001D23B4888640146D9F80000012501605D
:1042800076E700F0CBF9042C04D0F86E40B1B88E7C
:1042900050B125E0FEF735F90128FBD0BDE8F88FD5
:1042A000BDE8F84F00F0BAB9A7F834805EB1002637
:1042B000012C02D0032C13D102E000F095FA0FE09C
:1042C00000F09CFA0CE00126012C02D0032C07D14F
:1042D00003E0B86C00F09CFA02E0388D00F0DEFAE2
:1042E000012D7FF464AF9AF800000028F9D11D4930
:1042F000B86C49420144B1FBF8F0002580B2FEF7EA
:10430000E7FE54E753455420464D20414E44205289
:104310004620504F57455200464D3A20202020203D
:104320004D487A204175746F5365743A200000003F
:10433000524620504F5745523A2020202057000027
:10434000F00100208301002018000020204578693A
:10435000740000003E457869740000008001002070
:10436000E0A50100E02801002DE9F84F0124002517
:10437000FEF716F94FF000093F23BE222721012046
:10438000CDF80090FDF70CFA90A227210120FDF74F
:104390001CFB93A22F211420FDF717FB08200346D6
:1043A0000090924A2F215C2001F0AEFC90A23721B0
:1043B0001420FDF70AFBDFF844A2DFF844824FF037
:1043C000320B0A274FF47A70C8F86C00A8F834B0A2
:1043D00098F805004646B0FBF7F03030C2B22F2106
:1043E0005020FDF75BF97079B0FBF7F107FB110284
:1043F00030322F215620FDF751F9B0793721B0FB2B
:10440000F7F03030C2B24A20FDF748F92E223721AA
:104410005020FDF743F9B079B0FBF7F107FB11022B
:10442000303237215620FDF739F9032C08D075A218
:104430003721A020FDF7C9FAF07E012802D009E05B
:1044400072A2F5E786F81B9002F004FA6C48383047
:1044500001F082FDFEF710F8012810D0FEF768F891
:10446000012812D0FEF7B6F8012814D0FDF7CCFFD2
:10447000012827D0FEF745F8012844D047E0641E04
:1044800014F0FF049ED103249CE7641CE4B2032CC7
:1044900098D9012496E75F490120012C087009D0C2
:1044A000022C8FD1B079401CC0B2B0711E2818D92F
:1044B000142015E07079401CC0B2707150281DD9CD
:1044C0003C201AE054490120012C08700ED0022C27
:1044D000DAD1B079401EC0B2B071142801D21E20CA
:1044E000B071C1B2DAF8000081726BE77079401EDA
:1044F000C0B270713C2801D250207071C1B2DAF89C
:10450000000041725EE700F089F8032C06D0FDF749
:10451000EDFF012855D0B08E30B14EE0FDF7F1FF30
:104520000128FBD0BDE8F88FA6F834B0012D05D0E6
:104530000125012C18D0022C3FD126E00025012CAA
:1045400002D0022C39D106E036235B222F215020E5
:10455000CDF8009005E03F235B2237214A20CDF8BB
:104560000090FDF71DF928E070792F21B0FBF7F0DE
:104570003030C2B25020FDF791F87079B0FBF7F1FE
:1045800007FB110230322F2114E0B0793721B0FB44
:10459000F7F03030C2B24A20FDF780F82E223721E2
:1045A0005020FDF77BF8B079B0FBF7F107FB110263
:1045B000303237215620FDF771F8F06E00287FF475
:1045C0003BAFBDE8F84F00F029B800005345542038
:1045D00054656D7020414E44205357520000000036
:1045E000484947482054454D503A000028A100084A
:1045F00048494748205357523A000000F001002034
:104600001800002020457869740000003E45786954
:104610007400000080010020830100200F22024965
:104620004FF40070FDF7E0BAE04B002010B50F2208
:1046300029494FF40070FDF757FA2749274A284BBC
:10464000086810601844B0F5FA4F01D92548106089
:10465000254A48791070202801D920201070234B5A
:10466000C879072218700F2800D91A70204B087AD1
:1046700018700F2800D91A701E4A087910809628E1
:1046800001D9962010801C4A487A10703C381528B1
:1046900001D33C201070194A887A10701E2801D965
:1046A0001E20107016484A7B32220270154AC87AC2
:1046B0001070092801D909201070134A087B107066
:1046C000132801D913201070887B10490228087024
:1046D00001D90220087010BDE04B002060000020CE
:1046E00020D7FEFFC0570100190000201B0000204A
:1046F0001A000020400000201D0000201E000020A5
:104700001C00002027000020280000202900002095
:104710002DE9F0410E4E054600244FF4807728061F
:104720003946304602D5FDF750FB01E0FDF74BFB63
:1047300080213046FDF749FB6806050E8021304692
:10474000FDF741FB641CE4B2082CE8D3BDE8F0811E
:1047500000100140224900200A6842F480320A60B9
:104760004FF4A0630A6800F1010012F4003F01D188
:104770009842F7D10868800330D51A48026842F0A1
:1047800010020260026822F003020260026842F036
:10479000020202604868486048684860486840F41F
:1047A00080604860486820F47C104860486840F4A5
:1047B000E8104860086840F0807008600868800170
:1047C000FCD5486820F003004860486840F00200CB
:1047D00048604868C0F381000228FAD170470000A1
:1047E000001002400020024008B50020009036234F
:1047F00043222F212620FCF7D3FF08BD08B5002057
:1048000000903F23612237214A20FCF7C9FF08BDF1
:10481000204970B5B0FBF1F201FB12021E49B2FB58
:10482000F1F2B0FBF1F301FB130342F21071B3FBA1
:10483000F1F33033DCB2B0FBF1F301FB13034FF4BF
:104840007A71B3FBF1F33033DDB2B0FBF1F301FB6E
:1048500013006421B0FBF1F030303032C6B2D2B276
:104860002F212620FCF71AFF22462F212C20FCF7AF
:1048700015FF2A462F213220FCF710FF2E222F2170
:104880003820FCF70BFF3246BDE870402F213E2058
:10489000FCF704BF40420F00A086010042F21071F5
:1048A000B0FBF1F201FB12024FF47A71B2FBF1F2AC
:1048B000B0FBF1F301FB13036421B3FBF1F370B51B
:1048C0003033DCB2B0FBF1F301FB13030A21B3FB7D
:1048D000F1F5B0FBF1F301FB13063032D2B2303503
:1048E000303637214A20FCF7D9FE224637215020A6
:1048F000FCF7D4FE2A4637215620FCF7CFFE32467D
:10490000BDE8704037215C20FCF7C8BE10B50278C6
:104910004FF461614A4341788078C1EB011102EBA9
:1049200081010C18FFF79AF82046FFF779F8BDE8E7
:104930001040FFF793B800002DE9FF5F0746002500
:10494000C0EBC701CF480295084403950190016868
:1049500002918188ADF80C1080792C462E468DF896
:104960000E00FCF7FFFE1020FDF772F94FF0010872
:1049700000213F23BF220846CDF80080FDF706F84E
:104980003D2396220C210220CDF80080FCF7FEFF8B
:104990000E210820FEF7C4FA5B2202210120FCF759
:1049A0007DFE4FF00A09B7FBF9F080463030C2B205
:1049B00002210720FCF772FE09FB18723032022137
:1049C0000D20FCF76BFE5D2202211320FCF766FE32
:1049D000DFF8B0824FF47A7BA8F1C0084FF01609D7
:1049E0004FF0080AC8F86CB0002702A807EB47018F
:1049F000C25D4FF0190000EB4100AF42C0B24FF072
:104A0000020102D1FCF77AFE01E0FCF747FE7F1CB1
:104A1000FFB2072FE9D3072D07D09BA20221502018
:104A2000FCF7D3FF082D0FD004E099A202215020FB
:104A3000FCF7CBFF98A202217420FCF7C6FFFDF71C
:104A400060FD012802D037E095A2F4E7C8F86CB009
:104A500016B3072D30D2E0B2009000EB40000E21DB
:104A600001EB4002C4F3072707EB470309EB83017F
:104A70000AEB40000023FCF7D1FF07EB47018A4A0D
:104A800001EBC701009802EB41010026415C02A83E
:104A900041556D1CEDB2A7E7072D12D0082D1BD094
:104AA000002060F30704012660F30F240E2249461C
:104AB00050463346FCF7B2FFFDF78CFD01280DD0C0
:104AC0003AE0DDE901010160BDF80C1081809DF83C
:104AD0000E108171FCF74CF9BDE8FF9F734901206E
:104AE0000870C8F86CB03EB304EB44010AEB410017
:104AF000C7B2C4F3072000EB4001009009EB81002E
:104B0000C1B20023BA1D3846FCF788FF0098401E4A
:104B1000C0B260F30F24032802D9032060F30F24EE
:104B2000C4F3072000EB400109EB8100C1B201236F
:104B3000BA1D3846FCF772FFFDF766FC01282CD140
:104B40005B490870C8F86CB03EB304EB44010AEB53
:104B50004100C7B2C4F3072000EB4001009009EB0D
:104B60008100C1B20023BA1D3846FCF757FF0098F8
:104B7000401CC0B260F30F24032802D9002060F368
:104B80000F24C4F3072000EB400109EB8100C1B200
:104B90000123BA1D3846FCF741FFFDF76DFC0128E3
:104BA00028D144490870C8F86CB046B304EB4401FE
:104BB0000AEB4100C4F3072101EB410209EB82013A
:104BC000C0B2CFB20023821D3946FCF727FF601E1A
:104BD000C0B260F30704152802D9152060F307045A
:104BE00004EB44010AEB4100C0B20123821D3946A7
:104BF000FCF714FFFDF79CFC012807D030E06D1E88
:104C0000EDB2082D7FF647AF0825EDE62A490120D1
:104C10000870C8F86CB076B304EB44010AEB4100AD
:104C2000C4F3072101EB410209EB8201C0B2CFB20C
:104C30000023821D3946FCF7F1FE601CC0B260F310
:104C40000704152802D9002060F3070404EB44018F
:104C50000AEB4100C0B20123821D3946FCF7DEFE9B
:104C6000FDF744FC01283FF437AFD8F86C0000286A
:104C70007FF4E5AE30E76D1CEDB2082DC5D90025F7
:104C8000B2E60000D8000020205341564500000045
:104C90003E5341564500000020455849540000004D
:104CA0003E45584954000000B89500088001002096
:104CB0008301002084010020870100202DE9FF5F8F
:104CC0000746C948002500EBC7000190D0E9001055
:104CD000CDE902102C462E46FCF744FD1020FCF7CF
:104CE000B7FF4FF0010800213F23BF220846CDF84F
:104CF0000080FCF74BFE3D2396220C210220CDF8CC
:104D00000080FCF743FE0E210820FEF709F95B2224
:104D100002210120FCF7C2FC3037FAB20221072041
:104D2000FCF7BCFC5D2202210D20FCF7B7FCAE496C
:104D30004FF47A7B70394FF016094FF0080AC1F82A
:104D40006CB000274FF0130802A807EB4701C25DC3
:104D500008EB4100AF42C0B24FF0020102D1FCF7B4
:104D6000CDFC01E0FCF79AFC7F1CFFB2082FEBD3CF
:104D7000082D07D09DA202215020FCF726FE092D08
:104D800011D004E09BA202215020FCF71EFE9BA242
:104D900002217420FCF719FE934F703FFDF7B1FB21
:104DA000012802D037E097A2F2E7C7F86CB016B33B
:104DB000082D30D2E0B2804600EB48000E2101EB16
:104DC0004002C4F3072707EB470309EB83010AEB13
:104DD00040000023FCF722FE07EB47018B4A01EB62
:104DE000C70102EB410102A818F801100026415545
:104DF0006D1CEDB2A5E7082D12D0092D18D00020AA
:104E000060F30704012660F30F240E224946504642
:104E10003346FCF703FEFDF7DDFB01280AD039E03D
:104E200001AB07CBC0E90012FDF776FF02F0FAFEF6
:104E3000BDE8FF9F764901200870C7F86CB04EB3FB
:104E400004EB44010AEB4100C2B2C4F3072000EBBB
:104E500040010090904609EB8100C1B20023921DF1
:104E60004046FCF7DBFD0098401EC0B260F30F2403
:104E7000032802D9032060F30F24C4F3072000EBBA
:104E8000400109EB8100C1B2012308F1060240464E
:104E9000FCF7C4FDFDF7B8FA01282ED15D49087072
:104EA000C7F86CB04EB304EB44010AEB4100C2B248
:104EB000C4F3072000EB40010090904609EB81000D
:104EC000C1B20023921D4046FCF7A8FD0098401C8B
:104ED000C0B260F30F24032802D9002060F30F242E
:104EE000C4F3072000EB400109EB8100C1B20123AC
:104EF00008F106024046FCF791FDFDF7BDFA0128D6
:104F000028D145490870C7F86CB046B304EB44019A
:104F10000AEB4100C4F3072101EB410209EB8201D6
:104F2000C0B2C9B288460023821DFCF777FD601E1F
:104F3000C0B260F30704152802D9152060F30704F6
:104F400004EB44010AEB4100C0B20123821D41463B
:104F5000FCF764FDFDF7ECFA012807D030E06D1E88
:104F6000EDB2092D7FF646AF0925EAE62B4901206F
:104F70000870C7F86CB066B304EB44010AEB41005B
:104F8000C4F3072101EB410209EB8201C0B2C9B2AF
:104F900088460023821DFCF741FD601CC0B260F30F
:104FA0000704152802D9002060F3070404EB44012C
:104FB0000AEB4100C0B20123821D4146FCF72EFDE1
:104FC000FDF794FA01280AD0F86E00287FF4E6AEC7
:104FD0002EE76D1CEDB2092DC7D90025B1E60249B7
:104FE0007039C1F86CB023E7880000202053415687
:104FF000450000003E5341564500000020455849F9
:10500000540000003E45584954000000B89500087F
:1050100080010020830100208401002087010020FE
:105020002DE9FE4F022806D001287ED00521F84840
:105030000170BDE8FE8F0025F64E8DF804500295F4
:105040000124B574FCF78EFB012700213F23BF220A
:1050500008460097FCF79AFC0923BF221946002056
:105060000097FCF7C5FB00F007FDEB4906F11000C7
:10507000B9460860E94901A8B0460860E849401D02
:105080004FF47A7B0860E74902A8086000210846CF
:1050900000F094FC0121084600F090FC0221084633
:1050A00000F08CFC0321084600F088FC00278DF8F6
:1050B0000970BA468DF80870012C07D0002198F8C5
:1050C000100000F0F3FB022C0DD004E0012198F851
:1050D000100000F0EBFB00219DF8040000F0BAFB8B
:1050E000032C0DD004E001219DF8040000F0B2FB78
:1050F000CDA201218020FCF768FC042C1BD004E029
:10510000CBA201218020FCF760FCCBA20121A020D2
:10511000FCF75BFCCA4981F80090D8F86C0060B1DC
:10512000FDF7E4F9012808D000E09DE1FDF7E9F979
:10513000012804D073E0C3A2E8E7002077E0C8F8B4
:105140006CB0B5B39DF80920C0499DF8080001EB8B
:10515000021286183078401CC0B23070032801D982
:10516000002030709DF8080032780F280DD03946A5
:10517000504600F055FC3946504600F0DDFBB4487F
:1051800003210660A248017049E09DF809000090E3
:1051900001EB00100F21FBF7BDF93846009900F034
:1051A0000DFC3946504600F0C7FBAA4802210660B4
:1051B000E8E7FFE7022C04D0032C2CD0042C33D0DA
:1051C0002DE09DF80400401CC0B28DF804000328B7
:1051D00002D900208DF804000121C0B200F03AFB92
:1051E0009DF804204FF4C0719848FBF793F9032110
:1051F000084600F0E3FB0221084600F0DFFB012136
:10520000084600F0DBFB0021084600F0D7FB804990
:1052100081F8009003E098F81000FEF767F8FDF7BA
:10522000D9F9012806D042E0794900200870844964
:105230000870FEE6884981F800904146C8F86CB0D5
:1052400095B39DF8090060B1401EC0B28DF8090009
:105250006FB13946504600F06FFB7F1EFFB23946F2
:105260001EE00021504600F067FB002524E7C01C2B
:10527000C1B2032000F0A2FB9DF80900801CC1B25E
:10528000022000F09BFB9DF80900401CC1B20120E8
:1052900000F094FB9DF80910002000F08FFB002126
:1052A000504600F049FB02E0FFE7012C04D0FDF777
:1052B000ABF8012808D03FE0087C401CC0B208745D
:1052C000092846D9002043E0644981F8009041460E
:1052D000C8F86CB075B39DF8090017282CD2401C93
:1052E000C0B28DF80900032F07D23946504600F0AE
:1052F00023FB7F1CFFB2394618E0C01EC1B200205C
:1053000000F05CFB9DF80900801EC1B2012000F096
:1053100055FB9DF80900401EC1B2022000F04EFB73
:105320009DF80910032000F049FB0321504600F0CE
:1053300003FB01E0012C04D0FDF79EF801280CD0FE
:1053400034E0087C401EC0B20874092801D9092045
:105350000874C0B2FDF7FCFF98E6414981F800905F
:10536000C8F86CB08DB13946504600F0E5FA9DF8AA
:105370000800401EC0B28DF808000F2802D90F2087
:105380008DF80800C0B282460CE0641E14F0FF04E1
:1053900029D0022C7FF46AAF23A201218020FCF7E0
:1053A00014FB01253946504600F0C6FAFDF7C0F857
:1053B00001287FF4B2AE2B4981F80090C8F86CB098
:1053C0009DB13946504600F0B7FA9DF80800401CE0
:1053D000C0B28DF808000F2802D900208DF808000F
:1053E000C0B282460FE0042466E6641CE4B2042CDA
:1053F00001D9012460E6032CF6D100219DF80400B8
:1054000000F028FA01253946504600F095FA84E666
:105410009F01002018000020D8010020DC0100209E
:10542000E0010020E8010020205341564500000023
:105430003E534156450000002045584954000000A5
:10544000A10100203E45584954000000EC400020D6
:10545000EC010020E40100208001002083010020F5
:1054600084010020870100200421E0E52DE9F84FA8
:10547000E84C00200127667C00903F23BE222721B4
:105480003846FCF78DF9DFF890A34FF47A7BA146FC
:10549000102099F80F4099F81050FCF7D9FBDFA2C3
:1054A00027210120FCF791FADFA22F210120FCF730
:1054B0008CFAE0A237210120FCF787FA204600F0A1
:1054C00001FC284600F04CFA304600F079FC1F2021
:1054D00000EBC7008046C1B23E220120FCF7DEF897
:1054E00008F0FF013C225020FCF7D8F808F0FF013B
:1054F0003E229220FCF7D2F8C9F86CB099F81B0054
:10550000012808D1002089F81B0001F0A3F9C14847
:10551000383000F021FDFDF75DF8012808D0FCF7D8
:1055200073FF01281ED0FCF7A7FF012834D06BE0E1
:1055300008F0FF0120220120C9F86CB0FCF7AEF89A
:1055400008F0FF0120225020FCF7A8F808F0FF0126
:1055500020229220FCF7A2F87F1E17F0FF07B6D199
:105560000327B4E708F0FF0120220120C9F86CB03E
:10557000FCF794F808F0FF0120225020FCF78EF889
:1055800008F0FF0120229220FCF788F87F1CFFB270
:10559000032F9CD901279AE7C9F86CB0012F04D0DA
:1055A000022F12D0032F2FD121E0FCB1641EE4B2F0
:1055B00089F80F40DAF80000C472FFF72FF8204690
:1055C00000F080FB02F02EFB1EE07DB16D1EEDB2FF
:1055D00089F81050DAF800000573FFF71FF899F802
:1055E0001000FDF7B5FE284600F0BAF90CE05EB1F8
:1055F000761EF6B289F81160DAF800008673FFF7BC
:105600000DF8304600F0DCFBFCF792FF01283AD1A0
:10561000C9F86CB0012F04D0022F13D0032F32D160
:1056200023E0092C2FD2641CE4B289F80F40DAF889
:105630000000C472FEF7F2FF204600F043FB02F0C8
:10564000F1FA20E0132D1ED26D1CEDB289F8105036
:10565000DAF800000573FEF7E1FF99F81000FDF796
:1056600077FE284600F07CF90DE0022E0BD2761C66
:10567000F6B289F81160DAF800008673FEF7CEFF03
:10568000304600F09DFBFCF731FF012804D0FCF709
:1056900043FF01280FD011E00A20DFF8A4C1C9F8A8
:1056A0006CB000DFFCF722FF0128FBD06549002029
:1056B0000870BDE8F88F8020FCF7CAFAD9F86C00B2
:1056C0000028F6D0FCF71DFF01287FF417AFC8466D
:1056D0004846C9F86CB0012F04D0022F10D0032F18
:1056E00028D11BE0002088F81200012088F80B0068
:1056F0003220DFF84CC100DF2046FFF7DFFA19E067
:10570000002088F81200012088F80B003220DFF812
:1057100030C100DF2846FFF70FF90BE0002181744C
:10572000012188F80B103220DFF814C100DF304669
:10573000FFF776FC002088F80B00D8F86C00444690
:105740000028B6D0FCF70EF8012500213F23BF2228
:1057500008460095FCF71AF9002113234122084658
:105760000095FCF713F91323B32219460020009586
:10577000FCF73EF82523BF22194600200095FCF7D0
:1057800037F81423BF220021B3200095FCF7FEF860
:105790000A23BF221946B3200095FCF729F800F030
:1057A00031FB08252B46284A0121B520009500F041
:1057B000ABFA0823254A0A21B520009500F0A4FA87
:1057C000607C00F0CDFA207F00F0A6FB207F4FF434
:1057D000005101281E481AD0FCF7F5FA0D48383060
:1057E00000F0BAFBA06C00F075F9E08DC0B200F0DB
:1057F000C9F9207A00F066FB608D00F0F7F9A08D02
:10580000C0B200F00BFBE07900F03CFB40E6FCF797
:10581000DCFAE3E718000020F001002020505320BC
:105820004E616D6520203A002041726561204E6115
:105830006D653A0020524453204D6F6465203A0054
:10584000C57D00089F010020A0A2000898A20008C2
:10585000000C014038B5114A0C4658B1012804D05B
:10586000022804D0032805D103E00D4A02E00D4AC6
:1058700000E00D4A0820034600900121492000F075
:1058800043FA002C08D001B00823BDE83040502274
:1058900001214920FCF719B838BD0000C0A200085A
:1058A000B8A20008B0A20008A8A2000870B50C4673
:1058B000054601215B220846FBF7F0FE0A22B5FBF4
:1058C000F2F0014602FB11563030C2B230364FF0D2
:1058D00001014FF007003CB1FBF710FF32460121F8
:1058E0000D20FBF70BFF06E0FBF7D8FE3246012147
:1058F0000D20FBF7D3FE5D2201211320FBF7CEFE26
:105900000C49C5EBC50000244518192604EB4400DA
:1059100006EB40002A5DC0B20121FBF7BFFE641C0C
:10592000E4B2072CF2D3BDE870403A2201214320B3
:10593000FBF7B4BED800002000EB8000102202EB81
:10594000400001EB410202EBC1011231C9B201F189
:105950000A02C0B2D3B2C21DD2B2FBF7B6BF00007A
:1059600070B50A26B0FBF6F4054604F13000C2B269
:105970002F215620FBF792FE06FB145230322F21C6
:105980005C20FBF78BFE2D222F216220FBF786FE89
:105990000949C5EBC50000244518682604EB4400FE
:1059A00006EB40002A5DC0B22F21FBF777FE641C96
:1059B000E4B2072CF2D370BDD8000020F8B506463B
:1059C0000D4600EB460000EBC60113A00A2200685A
:1059D0000090B5FBF2F09DF800301431034402FB57
:1059E00010508DF800309DF80120C9B210448DF898
:1059F00001006A460120FBF7E8FF0848002400EB9D
:105A0000051531462A5D204600F00AF8641CE4B210
:105A1000102CF6D3F8BD000030300000EC40002020
:105A200008B5130000EB80004FF0100202EB4000BD
:105A300001EB410202EBC10101F112010A4AC0B2BD
:105A4000C9B206D0012B0AD0022B0AD0032B05D1F4
:105A5000064A0B230093082300F056F908BD044AB8
:105A6000F7E7044AF5E70000F1A20008D0A2000819
:105A7000E6A20008DBA2000838B50024112504EBDB
:105A8000840004F1300105EB4000CAB2C0B20A2123
:105A9000FBF704FE641CE4B20A2CF0D30CE004EB28
:105AA000840004F1370105EB4000CAB2C0B20A21FC
:105AB000FBF7F4FD641CE4B20F2CF0D3082003467E
:105AC0000090034A0A21A72000F01EF938BD00000B
:105AD000C8A200080EB520A1D1E900238968009270
